{
  "_format": "hh-sol-artifact-1",
  "contractName": "FreshFood",
  "sourceName": "contracts/FreshFood.sol",
  "abi": [
    {
      "inputs": [],
      "stateMutability": "nonpayable",
      "type": "constructor"
    },
    {
      "anonymous": false,
      "inputs": [
        {
          "indexed": true,
          "internalType": "address",
          "name": "owner",
          "type": "address"
        },
        {
          "indexed": true,
          "internalType": "address",
          "name": "approved",
          "type": "address"
        },
        {
          "indexed": true,
          "internalType": "uint256",
          "name": "tokenId",
          "type": "uint256"
        }
      ],
      "name": "Approval",
      "type": "event"
    },
    {
      "anonymous": false,
      "inputs": [
        {
          "indexed": true,
          "internalType": "address",
          "name": "owner",
          "type": "address"
        },
        {
          "indexed": true,
          "internalType": "address",
          "name": "operator",
          "type": "address"
        },
        {
          "indexed": false,
          "internalType": "bool",
          "name": "approved",
          "type": "bool"
        }
      ],
      "name": "ApprovalForAll",
      "type": "event"
    },
    {
      "anonymous": false,
      "inputs": [
        {
          "indexed": true,
          "internalType": "address",
          "name": "previousOwner",
          "type": "address"
        },
        {
          "indexed": true,
          "internalType": "address",
          "name": "newOwner",
          "type": "address"
        }
      ],
      "name": "OwnershipTransferred",
      "type": "event"
    },
    {
      "anonymous": false,
      "inputs": [
        {
          "indexed": true,
          "internalType": "address",
          "name": "from",
          "type": "address"
        },
        {
          "indexed": true,
          "internalType": "address",
          "name": "to",
          "type": "address"
        },
        {
          "indexed": true,
          "internalType": "uint256",
          "name": "tokenId",
          "type": "uint256"
        }
      ],
      "name": "Transfer",
      "type": "event"
    },
    {
      "inputs": [
        {
          "internalType": "uint256",
          "name": "_productId",
          "type": "uint256"
        },
        {
          "internalType": "string",
          "name": "_url",
          "type": "string"
        },
        {
          "internalType": "string",
          "name": "_hash",
          "type": "string"
        },
        {
          "internalType": "string",
          "name": "_location",
          "type": "string"
        }
      ],
      "name": "addLog",
      "outputs": [],
      "stateMutability": "nonpayable",
      "type": "function"
    },
    {
      "inputs": [
        {
          "internalType": "string",
          "name": "_name",
          "type": "string"
        },
        {
          "internalType": "string",
          "name": "_origin",
          "type": "string"
        }
      ],
      "name": "addProduct",
      "outputs": [],
      "stateMutability": "nonpayable",
      "type": "function"
    },
    {
      "inputs": [
        {
          "internalType": "address",
          "name": "to",
          "type": "address"
        },
        {
          "internalType": "uint256",
          "name": "tokenId",
          "type": "uint256"
        }
      ],
      "name": "approve",
      "outputs": [],
      "stateMutability": "nonpayable",
      "type": "function"
    },
    {
      "inputs": [
        {
          "internalType": "address",
          "name": "owner",
          "type": "address"
        }
      ],
      "name": "balanceOf",
      "outputs": [
        {
          "internalType": "uint256",
          "name": "",
          "type": "uint256"
        }
      ],
      "stateMutability": "view",
      "type": "function"
    },
    {
      "inputs": [
        {
          "internalType": "uint256",
          "name": "tokenId",
          "type": "uint256"
        }
      ],
      "name": "getApproved",
      "outputs": [
        {
          "internalType": "address",
          "name": "",
          "type": "address"
        }
      ],
      "stateMutability": "view",
      "type": "function"
    },
    {
      "inputs": [
        {
          "internalType": "uint256",
          "name": "_productId",
          "type": "uint256"
        }
      ],
      "name": "getLogs",
      "outputs": [
        {
          "components": [
            {
              "internalType": "string",
              "name": "url",
              "type": "string"
            },
            {
              "internalType": "string",
              "name": "hash",
              "type": "string"
            },
            {
              "internalType": "string",
              "name": "location",
              "type": "string"
            }
          ],
          "internalType": "struct Log[]",
          "name": "",
          "type": "tuple[]"
        }
      ],
      "stateMutability": "view",
      "type": "function"
    },
    {
      "inputs": [],
      "name": "getOwner",
      "outputs": [
        {
          "components": [
            {
              "internalType": "string",
              "name": "name",
              "type": "string"
            },
            {
              "internalType": "string",
              "name": "description",
              "type": "string"
            }
          ],
          "internalType": "struct Owner",
          "name": "",
          "type": "tuple"
        }
      ],
      "stateMutability": "view",
      "type": "function"
    },
    {
      "inputs": [
        {
          "internalType": "address",
          "name": "_ownerAddr",
          "type": "address"
        }
      ],
      "name": "getOwnerByAddress",
      "outputs": [
        {
          "components": [
            {
              "internalType": "string",
              "name": "name",
              "type": "string"
            },
            {
              "internalType": "string",
              "name": "description",
              "type": "string"
            }
          ],
          "internalType": "struct Owner",
          "name": "",
          "type": "tuple"
        }
      ],
      "stateMutability": "view",
      "type": "function"
    },
    {
      "inputs": [
        {
          "internalType": "uint256",
          "name": "_productId",
          "type": "uint256"
        }
      ],
      "name": "getOwnerListFromProduct",
      "outputs": [
        {
          "components": [
            {
              "internalType": "string",
              "name": "name",
              "type": "string"
            },
            {
              "internalType": "string",
              "name": "description",
              "type": "string"
            }
          ],
          "internalType": "struct Owner[]",
          "name": "",
          "type": "tuple[]"
        }
      ],
      "stateMutability": "view",
      "type": "function"
    },
    {
      "inputs": [
        {
          "internalType": "uint256",
          "name": "_productId",
          "type": "uint256"
        }
      ],
      "name": "getProduct",
      "outputs": [
        {
          "components": [
            {
              "internalType": "uint256",
              "name": "productId",
              "type": "uint256"
            },
            {
              "internalType": "string",
              "name": "name",
              "type": "string"
            },
            {
              "internalType": "string",
              "name": "origin",
              "type": "string"
            },
            {
              "components": [
                {
                  "internalType": "string",
                  "name": "name",
                  "type": "string"
                },
                {
                  "internalType": "string",
                  "name": "description",
                  "type": "string"
                }
              ],
              "internalType": "struct Owner[]",
              "name": "ownerList",
              "type": "tuple[]"
            },
            {
              "components": [
                {
                  "internalType": "string",
                  "name": "url",
                  "type": "string"
                },
                {
                  "internalType": "string",
                  "name": "hash",
                  "type": "string"
                },
                {
                  "internalType": "string",
                  "name": "location",
                  "type": "string"
                }
              ],
              "internalType": "struct Log[]",
              "name": "logList",
              "type": "tuple[]"
            }
          ],
          "internalType": "struct Product",
          "name": "",
          "type": "tuple"
        }
      ],
      "stateMutability": "view",
      "type": "function"
    },
    {
      "inputs": [
        {
          "internalType": "address",
          "name": "_ownerAddr",
          "type": "address"
        }
      ],
      "name": "getProductByOwner",
      "outputs": [
        {
          "components": [
            {
              "internalType": "uint256",
              "name": "productId",
              "type": "uint256"
            },
            {
              "internalType": "string",
              "name": "name",
              "type": "string"
            },
            {
              "internalType": "string",
              "name": "origin",
              "type": "string"
            },
            {
              "components": [
                {
                  "internalType": "string",
                  "name": "name",
                  "type": "string"
                },
                {
                  "internalType": "string",
                  "name": "description",
                  "type": "string"
                }
              ],
              "internalType": "struct Owner[]",
              "name": "ownerList",
              "type": "tuple[]"
            },
            {
              "components": [
                {
                  "internalType": "string",
                  "name": "url",
                  "type": "string"
                },
                {
                  "internalType": "string",
                  "name": "hash",
                  "type": "string"
                },
                {
                  "internalType": "string",
                  "name": "location",
                  "type": "string"
                }
              ],
              "internalType": "struct Log[]",
              "name": "logList",
              "type": "tuple[]"
            }
          ],
          "internalType": "struct Product[]",
          "name": "",
          "type": "tuple[]"
        }
      ],
      "stateMutability": "view",
      "type": "function"
    },
    {
      "inputs": [],
      "name": "getProducts",
      "outputs": [
        {
          "components": [
            {
              "internalType": "uint256",
              "name": "productId",
              "type": "uint256"
            },
            {
              "internalType": "string",
              "name": "name",
              "type": "string"
            },
            {
              "internalType": "string",
              "name": "origin",
              "type": "string"
            },
            {
              "components": [
                {
                  "internalType": "string",
                  "name": "name",
                  "type": "string"
                },
                {
                  "internalType": "string",
                  "name": "description",
                  "type": "string"
                }
              ],
              "internalType": "struct Owner[]",
              "name": "ownerList",
              "type": "tuple[]"
            },
            {
              "components": [
                {
                  "internalType": "string",
                  "name": "url",
                  "type": "string"
                },
                {
                  "internalType": "string",
                  "name": "hash",
                  "type": "string"
                },
                {
                  "internalType": "string",
                  "name": "location",
                  "type": "string"
                }
              ],
              "internalType": "struct Log[]",
              "name": "logList",
              "type": "tuple[]"
            }
          ],
          "internalType": "struct Product[]",
          "name": "",
          "type": "tuple[]"
        }
      ],
      "stateMutability": "view",
      "type": "function"
    },
    {
      "inputs": [
        {
          "internalType": "address",
          "name": "owner",
          "type": "address"
        },
        {
          "internalType": "address",
          "name": "operator",
          "type": "address"
        }
      ],
      "name": "isApprovedForAll",
      "outputs": [
        {
          "internalType": "bool",
          "name": "",
          "type": "bool"
        }
      ],
      "stateMutability": "view",
      "type": "function"
    },
    {
      "inputs": [],
      "name": "name",
      "outputs": [
        {
          "internalType": "string",
          "name": "",
          "type": "string"
        }
      ],
      "stateMutability": "view",
      "type": "function"
    },
    {
      "inputs": [],
      "name": "owner",
      "outputs": [
        {
          "internalType": "address",
          "name": "",
          "type": "address"
        }
      ],
      "stateMutability": "view",
      "type": "function"
    },
    {
      "inputs": [
        {
          "internalType": "uint256",
          "name": "tokenId",
          "type": "uint256"
        }
      ],
      "name": "ownerOf",
      "outputs": [
        {
          "internalType": "address",
          "name": "",
          "type": "address"
        }
      ],
      "stateMutability": "view",
      "type": "function"
    },
    {
      "inputs": [
        {
          "internalType": "address",
          "name": "",
          "type": "address"
        }
      ],
      "name": "owners",
      "outputs": [
        {
          "internalType": "string",
          "name": "name",
          "type": "string"
        },
        {
          "internalType": "string",
          "name": "description",
          "type": "string"
        }
      ],
      "stateMutability": "view",
      "type": "function"
    },
    {
      "inputs": [
        {
          "internalType": "uint256",
          "name": "",
          "type": "uint256"
        }
      ],
      "name": "products",
      "outputs": [
        {
          "internalType": "uint256",
          "name": "productId",
          "type": "uint256"
        },
        {
          "internalType": "string",
          "name": "name",
          "type": "string"
        },
        {
          "internalType": "string",
          "name": "origin",
          "type": "string"
        }
      ],
      "stateMutability": "view",
      "type": "function"
    },
    {
      "inputs": [
        {
          "internalType": "string",
          "name": "_name",
          "type": "string"
        },
        {
          "internalType": "string",
          "name": "_description",
          "type": "string"
        }
      ],
      "name": "registerOwner",
      "outputs": [
        {
          "components": [
            {
              "internalType": "string",
              "name": "name",
              "type": "string"
            },
            {
              "internalType": "string",
              "name": "description",
              "type": "string"
            }
          ],
          "internalType": "struct Owner",
          "name": "",
          "type": "tuple"
        }
      ],
      "stateMutability": "nonpayable",
      "type": "function"
    },
    {
      "inputs": [],
      "name": "renounceOwnership",
      "outputs": [],
      "stateMutability": "nonpayable",
      "type": "function"
    },
    {
      "inputs": [
        {
          "internalType": "address",
          "name": "to",
          "type": "address"
        }
      ],
      "name": "safeMint",
      "outputs": [],
      "stateMutability": "nonpayable",
      "type": "function"
    },
    {
      "inputs": [
        {
          "internalType": "address",
          "name": "from",
          "type": "address"
        },
        {
          "internalType": "address",
          "name": "to",
          "type": "address"
        },
        {
          "internalType": "uint256",
          "name": "tokenId",
          "type": "uint256"
        }
      ],
      "name": "safeTransferFrom",
      "outputs": [],
      "stateMutability": "nonpayable",
      "type": "function"
    },
    {
      "inputs": [
        {
          "internalType": "address",
          "name": "from",
          "type": "address"
        },
        {
          "internalType": "address",
          "name": "to",
          "type": "address"
        },
        {
          "internalType": "uint256",
          "name": "tokenId",
          "type": "uint256"
        },
        {
          "internalType": "bytes",
          "name": "data",
          "type": "bytes"
        }
      ],
      "name": "safeTransferFrom",
      "outputs": [],
      "stateMutability": "nonpayable",
      "type": "function"
    },
    {
      "inputs": [
        {
          "internalType": "address",
          "name": "operator",
          "type": "address"
        },
        {
          "internalType": "bool",
          "name": "approved",
          "type": "bool"
        }
      ],
      "name": "setApprovalForAll",
      "outputs": [],
      "stateMutability": "nonpayable",
      "type": "function"
    },
    {
      "inputs": [
        {
          "internalType": "bytes4",
          "name": "interfaceId",
          "type": "bytes4"
        }
      ],
      "name": "supportsInterface",
      "outputs": [
        {
          "internalType": "bool",
          "name": "",
          "type": "bool"
        }
      ],
      "stateMutability": "view",
      "type": "function"
    },
    {
      "inputs": [],
      "name": "symbol",
      "outputs": [
        {
          "internalType": "string",
          "name": "",
          "type": "string"
        }
      ],
      "stateMutability": "view",
      "type": "function"
    },
    {
      "inputs": [
        {
          "internalType": "uint256",
          "name": "tokenId",
          "type": "uint256"
        }
      ],
      "name": "tokenURI",
      "outputs": [
        {
          "internalType": "string",
          "name": "",
          "type": "string"
        }
      ],
      "stateMutability": "view",
      "type": "function"
    },
    {
      "inputs": [
        {
          "internalType": "address",
          "name": "from",
          "type": "address"
        },
        {
          "internalType": "address",
          "name": "to",
          "type": "address"
        },
        {
          "internalType": "uint256",
          "name": "tokenId",
          "type": "uint256"
        }
      ],
      "name": "transferFrom",
      "outputs": [],
      "stateMutability": "nonpayable",
      "type": "function"
    },
    {
      "inputs": [
        {
          "internalType": "address",
          "name": "newOwner",
          "type": "address"
        }
      ],
      "name": "transferOwnership",
      "outputs": [],
      "stateMutability": "nonpayable",
      "type": "function"
    },
    {
      "inputs": [
        {
          "internalType": "uint256",
          "name": "_productId",
          "type": "uint256"
        },
        {
          "internalType": "address",
          "name": "_newOwner",
          "type": "address"
        }
      ],
      "name": "transferProduct",
      "outputs": [],
      "stateMutability": "nonpayable",
      "type": "function"
    }
  ],
  "bytecode": "0x60806040523480156200001157600080fd5b506040518060400160405280600981526020017f4672657368466f6f6400000000000000000000000000000000000000000000008152506040518060400160405280600381526020017f465246000000000000000000000000000000000000000000000000000000000081525081600090816200008f919062000412565b508060019081620000a1919062000412565b505050620000c4620000b8620000ca60201b60201c565b620000d260201b60201c565b620004f9565b600033905090565b6000600660009054906101000a900473ffffffffffffffffffffffffffffffffffffffff16905081600660006101000a81548173ffffffffffffffffffffffffffffffffffffffff021916908373ffffffffffffffffffffffffffffffffffffffff1602179055508173ffffffffffffffffffffffffffffffffffffffff168173ffffffffffffffffffffffffffffffffffffffff167f8be0079c531659141344cd1fd0a4f28419497f9722a3daafe3b4186f6b6457e060405160405180910390a35050565b600081519050919050565b7f4e487b7100000000000000000000000000000000000000000000000000000000600052604160045260246000fd5b7f4e487b7100000000000000000000000000000000000000000000000000000000600052602260045260246000fd5b600060028204905060018216806200021a57607f821691505b60208210810362000230576200022f620001d2565b5b50919050565b60008190508160005260206000209050919050565b60006020601f8301049050919050565b600082821b905092915050565b6000600883026200029a7fffffffffffffffffffffffffffffffffffffffffffffffffffffffffffffffff826200025b565b620002a686836200025b565b95508019841693508086168417925050509392505050565b6000819050919050565b6000819050919050565b6000620002f3620002ed620002e784620002be565b620002c8565b620002be565b9050919050565b6000819050919050565b6200030f83620002d2565b620003276200031e82620002fa565b84845462000268565b825550505050565b600090565b6200033e6200032f565b6200034b81848462000304565b505050565b5b8181101562000373576200036760008262000334565b60018101905062000351565b5050565b601f821115620003c2576200038c8162000236565b62000397846200024b565b81016020851015620003a7578190505b620003bf620003b6856200024b565b83018262000350565b50505b505050565b600082821c905092915050565b6000620003e760001984600802620003c7565b1980831691505092915050565b6000620004028383620003d4565b9150826002028217905092915050565b6200041d8262000198565b67ffffffffffffffff811115620004395762000438620001a3565b5b62000445825462000201565b6200045282828562000377565b600060209050601f8311600181146200048a576000841562000475578287015190505b620004818582620003f4565b865550620004f1565b601f1984166200049a8662000236565b60005b82811015620004c4578489015182556001820191506020850194506020810190506200049d565b86831015620004e45784890151620004e0601f891682620003d4565b8355505b6001600288020188555050505b505050505050565b615ad480620005096000396000f3fe608060405234801561001057600080fd5b50600436106101da5760003560e01c8063893d20e811610104578063c29b2f20116100a2578063e43059e511610071578063e43059e5146105b6578063e7ab0731146105d2578063e985e9c5146105ee578063f2fde38b1461061e576101da565b8063c29b2f201461051c578063c87b56dd1461053a578063ca2efb551461056a578063d0d0bf0114610586576101da565b8063a22cb465116100de578063a22cb46514610484578063a4fde7c6146104a0578063b88d4fde146104d0578063b9db15b4146104ec576101da565b8063893d20e81461042a5780638da5cb5b1461044857806395d89b4114610466576101da565b80633fdeca4e1161017c5780636f4421541161014b5780636f4421541461038e57806370a08231146103be578063715018a6146103ee5780637acc0b20146103f8576101da565b80633fdeca4e146102f657806340d097c31461032657806342842e0e146103425780636352211e1461035e576101da565b8063081812fc116101b8578063081812fc1461025e578063095ea7b31461028e5780631124c05a146102aa57806323b872dd146102da576101da565b806301ffc9a7146101df578063022914a71461020f57806306fdde0314610240575b600080fd5b6101f960048036038101906101f49190613f63565b61063a565b6040516102069190613fab565b60405180910390f35b61022960048036038101906102249190614024565b61071c565b6040516102379291906140e1565b60405180910390f35b610248610850565b6040516102559190614118565b60405180910390f35b61027860048036038101906102739190614170565b6108e2565b60405161028591906141ac565b60405180910390f35b6102a860048036038101906102a391906141c7565b610928565b005b6102c460048036038101906102bf9190614170565b610a3f565b6040516102d19190614371565b60405180910390f35b6102f460048036038101906102ef9190614393565b610c6a565b005b610310600480360381019061030b9190614170565b610cca565b60405161031d91906144ec565b60405180910390f35b610340600480360381019061033b9190614024565b610e63565b005b61035c60048036038101906103579190614393565b610e91565b005b61037860048036038101906103739190614170565b610eb1565b60405161038591906141ac565b60405180910390f35b6103a860048036038101906103a39190614024565b610f37565b6040516103b59190614552565b60405180910390f35b6103d860048036038101906103d39190614024565b6110b4565b6040516103e59190614583565b60405180910390f35b6103f661116b565b005b610412600480360381019061040d9190614170565b61117f565b6040516104219392919061459e565b60405180910390f35b6104326112b9565b60405161043f9190614552565b60405180910390f35b610450611434565b60405161045d91906141ac565b60405180910390f35b61046e61145e565b60405161047b9190614118565b60405180910390f35b61049e6004803603810190610499919061460f565b6114f0565b005b6104ba60048036038101906104b59190614784565b611506565b6040516104c79190614552565b60405180910390f35b6104ea60048036038101906104e5919061489d565b6115a0565b005b61050660048036038101906105019190614170565b611602565b6040516105139190614ac6565b60405180910390f35b610524611af5565b6040516105319190614c35565b60405180910390f35b610554600480360381019061054f9190614170565b612089565b6040516105619190614118565b60405180910390f35b610584600480360381019061057f9190614784565b6120f1565b005b6105a0600480360381019061059b9190614024565b6123ad565b6040516105ad9190614c35565b60405180910390f35b6105d060048036038101906105cb9190614c57565b612a40565b005b6105ec60048036038101906105e79190614c97565b612d41565b005b61060860048036038101906106039190614d52565b612e61565b6040516106159190613fab565b60405180910390f35b61063860048036038101906106339190614024565b612ef5565b005b60007f80ac58cd000000000000000000000000000000000000000000000000000000007bffffffffffffffffffffffffffffffffffffffffffffffffffffffff1916827bffffffffffffffffffffffffffffffffffffffffffffffffffffffff1916148061070557507f5b5e139f000000000000000000000000000000000000000000000000000000007bffffffffffffffffffffffffffffffffffffffffffffffffffffffff1916827bffffffffffffffffffffffffffffffffffffffffffffffffffffffff1916145b80610715575061071482612f78565b5b9050919050565b600960205280600052604060002060009150905080600001805461073f90614dc1565b80601f016020809104026020016040519081016040528092919081815260200182805461076b90614dc1565b80156107b85780601f1061078d576101008083540402835291602001916107b8565b820191906000526020600020905b81548152906001019060200180831161079b57829003601f168201915b5050505050908060010180546107cd90614dc1565b80601f01602080910402602001604051908101604052809291908181526020018280546107f990614dc1565b80156108465780601f1061081b57610100808354040283529160200191610846565b820191906000526020600020905b81548152906001019060200180831161082957829003601f168201915b5050505050905082565b60606000805461085f90614dc1565b80601f016020809104026020016040519081016040528092919081815260200182805461088b90614dc1565b80156108d85780601f106108ad576101008083540402835291602001916108d8565b820191906000526020600020905b8154815290600101906020018083116108bb57829003601f168201915b5050505050905090565b60006108ed82612fe2565b6004600083815260200190815260200160002060009054906101000a900473ffffffffffffffffffffffffffffffffffffffff169050919050565b600061093382610eb1565b90508073ffffffffffffffffffffffffffffffffffffffff168373ffffffffffffffffffffffffffffffffffffffff16036109a3576040517f08c379a000000000000000000000000000000000000000000000000000000000815260040161099a90614e64565b60405180910390fd5b8073ffffffffffffffffffffffffffffffffffffffff166109c261302d565b73ffffffffffffffffffffffffffffffffffffffff1614806109f157506109f0816109eb61302d565b612e61565b5b610a30576040517f08c379a0000000000000000000000000000000000000000000000000000000008152600401610a2790614ef6565b60405180910390fd5b610a3a8383613035565b505050565b606060086000838152602001908152602001600020600401805480602002602001604051908101604052809291908181526020016000905b82821015610c5f5783829060005260206000209060030201604051806060016040529081600082018054610aaa90614dc1565b80601f0160208091040260200160405190810160405280929190818152602001828054610ad690614dc1565b8015610b235780601f10610af857610100808354040283529160200191610b23565b820191906000526020600020905b815481529060010190602001808311610b0657829003601f168201915b50505050508152602001600182018054610b3c90614dc1565b80601f0160208091040260200160405190810160405280929190818152602001828054610b6890614dc1565b8015610bb55780601f10610b8a57610100808354040283529160200191610bb5565b820191906000526020600020905b815481529060010190602001808311610b9857829003601f168201915b50505050508152602001600282018054610bce90614dc1565b80601f0160208091040260200160405190810160405280929190818152602001828054610bfa90614dc1565b8015610c475780601f10610c1c57610100808354040283529160200191610c47565b820191906000526020600020905b815481529060010190602001808311610c2a57829003601f168201915b50505050508152505081526020019060010190610a77565b505050509050919050565b610c7b610c7561302d565b826130ee565b610cba576040517f08c379a0000000000000000000000000000000000000000000000000000000008152600401610cb190614f88565b60405180910390fd5b610cc5838383613183565b505050565b606060086000838152602001908152602001600020600301805480602002602001604051908101604052809291908181526020016000905b82821015610e585783829060005260206000209060020201604051806040016040529081600082018054610d3590614dc1565b80601f0160208091040260200160405190810160405280929190818152602001828054610d6190614dc1565b8015610dae5780601f10610d8357610100808354040283529160200191610dae565b820191906000526020600020905b815481529060010190602001808311610d9157829003601f168201915b50505050508152602001600182018054610dc790614dc1565b80601f0160208091040260200160405190810160405280929190818152602001828054610df390614dc1565b8015610e405780601f10610e1557610100808354040283529160200191610e40565b820191906000526020600020905b815481529060010190602001808311610e2357829003601f168201915b50505050508152505081526020019060010190610d02565b505050509050919050565b610e6b61347c565b6000610e7760076134fa565b9050610e836007613508565b610e8d828261351e565b5050565b610eac838383604051806020016040528060008152506115a0565b505050565b600080610ebd8361353c565b9050600073ffffffffffffffffffffffffffffffffffffffff168173ffffffffffffffffffffffffffffffffffffffff1603610f2e576040517f08c379a0000000000000000000000000000000000000000000000000000000008152600401610f2590614ff4565b60405180910390fd5b80915050919050565b610f3f613eae565b600960008373ffffffffffffffffffffffffffffffffffffffff1673ffffffffffffffffffffffffffffffffffffffff168152602001908152602001600020604051806040016040529081600082018054610f9990614dc1565b80601f0160208091040260200160405190810160405280929190818152602001828054610fc590614dc1565b80156110125780601f10610fe757610100808354040283529160200191611012565b820191906000526020600020905b815481529060010190602001808311610ff557829003601f168201915b5050505050815260200160018201805461102b90614dc1565b80601f016020809104026020016040519081016040528092919081815260200182805461105790614dc1565b80156110a45780601f10611079576101008083540402835291602001916110a4565b820191906000526020600020905b81548152906001019060200180831161108757829003601f168201915b5050505050815250509050919050565b60008073ffffffffffffffffffffffffffffffffffffffff168273ffffffffffffffffffffffffffffffffffffffff1603611124576040517f08c379a000000000000000000000000000000000000000000000000000000000815260040161111b90615086565b60405180910390fd5b600360008373ffffffffffffffffffffffffffffffffffffffff1673ffffffffffffffffffffffffffffffffffffffff168152602001908152602001600020549050919050565b61117361347c565b61117d6000613579565b565b60086020528060005260406000206000915090508060000154908060010180546111a890614dc1565b80601f01602080910402602001604051908101604052809291908181526020018280546111d490614dc1565b80156112215780601f106111f657610100808354040283529160200191611221565b820191906000526020600020905b81548152906001019060200180831161120457829003601f168201915b50505050509080600201805461123690614dc1565b80601f016020809104026020016040519081016040528092919081815260200182805461126290614dc1565b80156112af5780601f10611284576101008083540402835291602001916112af565b820191906000526020600020905b81548152906001019060200180831161129257829003601f168201915b5050505050905083565b6112c1613eae565b600960003373ffffffffffffffffffffffffffffffffffffffff1673ffffffffffffffffffffffffffffffffffffffff16815260200190815260200160002060405180604001604052908160008201805461131b90614dc1565b80601f016020809104026020016040519081016040528092919081815260200182805461134790614dc1565b80156113945780601f1061136957610100808354040283529160200191611394565b820191906000526020600020905b81548152906001019060200180831161137757829003601f168201915b505050505081526020016001820180546113ad90614dc1565b80601f01602080910402602001604051908101604052809291908181526020018280546113d990614dc1565b80156114265780601f106113fb57610100808354040283529160200191611426565b820191906000526020600020905b81548152906001019060200180831161140957829003601f168201915b505050505081525050905090565b6000600660009054906101000a900473ffffffffffffffffffffffffffffffffffffffff16905090565b60606001805461146d90614dc1565b80601f016020809104026020016040519081016040528092919081815260200182805461149990614dc1565b80156114e65780601f106114bb576101008083540402835291602001916114e6565b820191906000526020600020905b8154815290600101906020018083116114c957829003601f168201915b5050505050905090565b6115026114fb61302d565b838361363f565b5050565b61150e613eae565b6000604051806040016040528085815260200184815250905080600960003373ffffffffffffffffffffffffffffffffffffffff1673ffffffffffffffffffffffffffffffffffffffff168152602001908152602001600020600082015181600001908161157c9190615252565b5060208201518160010190816115929190615252565b509050508091505092915050565b6115b16115ab61302d565b836130ee565b6115f0576040517f08c379a00000000000000000000000000000000000000000000000000000000081526004016115e790614f88565b60405180910390fd5b6115fc848484846137ab565b50505050565b61160a613ec8565b600860008381526020019081526020016000206040518060a00160405290816000820154815260200160018201805461164290614dc1565b80601f016020809104026020016040519081016040528092919081815260200182805461166e90614dc1565b80156116bb5780601f10611690576101008083540402835291602001916116bb565b820191906000526020600020905b81548152906001019060200180831161169e57829003601f168201915b505050505081526020016002820180546116d490614dc1565b80601f016020809104026020016040519081016040528092919081815260200182805461170090614dc1565b801561174d5780601f106117225761010080835404028352916020019161174d565b820191906000526020600020905b81548152906001019060200180831161173057829003601f168201915b5050505050815260200160038201805480602002602001604051908101604052809291908181526020016000905b828210156118d157838290600052602060002090600202016040518060400160405290816000820180546117ae90614dc1565b80601f01602080910402602001604051908101604052809291908181526020018280546117da90614dc1565b80156118275780601f106117fc57610100808354040283529160200191611827565b820191906000526020600020905b81548152906001019060200180831161180a57829003601f168201915b5050505050815260200160018201805461184090614dc1565b80601f016020809104026020016040519081016040528092919081815260200182805461186c90614dc1565b80156118b95780601f1061188e576101008083540402835291602001916118b9565b820191906000526020600020905b81548152906001019060200180831161189c57829003601f168201915b5050505050815250508152602001906001019061177b565b50505050815260200160048201805480602002602001604051908101604052809291908181526020016000905b82821015611ae6578382906000526020600020906003020160405180606001604052908160008201805461193190614dc1565b80601f016020809104026020016040519081016040528092919081815260200182805461195d90614dc1565b80156119aa5780601f1061197f576101008083540402835291602001916119aa565b820191906000526020600020905b81548152906001019060200180831161198d57829003601f168201915b505050505081526020016001820180546119c390614dc1565b80601f01602080910402602001604051908101604052809291908181526020018280546119ef90614dc1565b8015611a3c5780601f10611a1157610100808354040283529160200191611a3c565b820191906000526020600020905b815481529060010190602001808311611a1f57829003601f168201915b50505050508152602001600282018054611a5590614dc1565b80601f0160208091040260200160405190810160405280929190818152602001828054611a8190614dc1565b8015611ace5780601f10611aa357610100808354040283529160200191611ace565b820191906000526020600020905b815481529060010190602001808311611ab157829003601f168201915b505050505081525050815260200190600101906118fe565b50505050815250509050919050565b60606000611b0360076134fa565b67ffffffffffffffff811115611b1c57611b1b614659565b5b604051908082528060200260200182016040528015611b5557816020015b611b42613ec8565b815260200190600190039081611b3a5790505b50905060005b611b6560076134fa565b81101561208157600860008281526020019081526020016000206040518060a001604052908160008201548152602001600182018054611ba490614dc1565b80601f0160208091040260200160405190810160405280929190818152602001828054611bd090614dc1565b8015611c1d5780601f10611bf257610100808354040283529160200191611c1d565b820191906000526020600020905b815481529060010190602001808311611c0057829003601f168201915b50505050508152602001600282018054611c3690614dc1565b80601f0160208091040260200160405190810160405280929190818152602001828054611c6290614dc1565b8015611caf5780601f10611c8457610100808354040283529160200191611caf565b820191906000526020600020905b815481529060010190602001808311611c9257829003601f168201915b5050505050815260200160038201805480602002602001604051908101604052809291908181526020016000905b82821015611e335783829060005260206000209060020201604051806040016040529081600082018054611d1090614dc1565b80601f0160208091040260200160405190810160405280929190818152602001828054611d3c90614dc1565b8015611d895780601f10611d5e57610100808354040283529160200191611d89565b820191906000526020600020905b815481529060010190602001808311611d6c57829003601f168201915b50505050508152602001600182018054611da290614dc1565b80601f0160208091040260200160405190810160405280929190818152602001828054611dce90614dc1565b8015611e1b5780601f10611df057610100808354040283529160200191611e1b565b820191906000526020600020905b815481529060010190602001808311611dfe57829003601f168201915b50505050508152505081526020019060010190611cdd565b50505050815260200160048201805480602002602001604051908101604052809291908181526020016000905b828210156120485783829060005260206000209060030201604051806060016040529081600082018054611e9390614dc1565b80601f0160208091040260200160405190810160405280929190818152602001828054611ebf90614dc1565b8015611f0c5780601f10611ee157610100808354040283529160200191611f0c565b820191906000526020600020905b815481529060010190602001808311611eef57829003601f168201915b50505050508152602001600182018054611f2590614dc1565b80601f0160208091040260200160405190810160405280929190818152602001828054611f5190614dc1565b8015611f9e5780601f10611f7357610100808354040283529160200191611f9e565b820191906000526020600020905b815481529060010190602001808311611f8157829003601f168201915b50505050508152602001600282018054611fb790614dc1565b80601f0160208091040260200160405190810160405280929190818152602001828054611fe390614dc1565b80156120305780601f1061200557610100808354040283529160200191612030565b820191906000526020600020905b81548152906001019060200180831161201357829003601f168201915b50505050508152505081526020019060010190611e60565b505050508152505082828151811061206357612062615324565b5b6020026020010181905250808061207990615382565b915050611b5b565b508091505090565b606061209482612fe2565b600061209e613807565b905060008151116120be57604051806020016040528060008152506120e9565b806120c88461381e565b6040516020016120d9929190615406565b6040516020818303038152906040525b915050919050565b6000600960003373ffffffffffffffffffffffffffffffffffffffff1673ffffffffffffffffffffffffffffffffffffffff168152602001908152602001600020600001805461214090614dc1565b905003612182576040517f08c379a000000000000000000000000000000000000000000000000000000000815260040161217990615476565b60405180910390fd5b600061218e60076134fa565b905061219a6007613508565b6000600860008381526020019081526020016000209050818160000181905550838160010190816121cb9190615252565b50828160020190816121dd9190615252565b5060006121e933610f37565b60000151905060006121fa33610f37565b60200151905082600301604051806040016040528084815260200183815250908060018154018082558091505060019003906000526020600020906002020160009091909190915060008201518160000190816122579190615252565b50602082015181600101908161226d9190615252565b5050508260040160405180606001604052806040518060400160405280600681526020017f637265617465000000000000000000000000000000000000000000000000000081525081526020016040518060400160405280600681526020017f637265617465000000000000000000000000000000000000000000000000000081525081526020016040518060400160405280600681526020017f63726561746500000000000000000000000000000000000000000000000000008152508152509080600181540180825580915050600190039060005260206000209060030201600090919091909150600082015181600001908161236c9190615252565b5060208201518160010190816123829190615252565b5060408201518160020190816123989190615252565b5050506123a5338561351e565b505050505050565b606060006123bb60076134fa565b67ffffffffffffffff8111156123d4576123d3614659565b5b60405190808252806020026020018201604052801561240d57816020015b6123fa613ec8565b8152602001906001900390816123f25790505b5090506000805b61241e60076134fa565b811015612984578473ffffffffffffffffffffffffffffffffffffffff1661244582610eb1565b73ffffffffffffffffffffffffffffffffffffffff160361297157600860008281526020019081526020016000206040518060a00160405290816000820154815260200160018201805461249890614dc1565b80601f01602080910402602001604051908101604052809291908181526020018280546124c490614dc1565b80156125115780601f106124e657610100808354040283529160200191612511565b820191906000526020600020905b8154815290600101906020018083116124f457829003601f168201915b5050505050815260200160028201805461252a90614dc1565b80601f016020809104026020016040519081016040528092919081815260200182805461255690614dc1565b80156125a35780601f10612578576101008083540402835291602001916125a3565b820191906000526020600020905b81548152906001019060200180831161258657829003601f168201915b5050505050815260200160038201805480602002602001604051908101604052809291908181526020016000905b82821015612727578382906000526020600020906002020160405180604001604052908160008201805461260490614dc1565b80601f016020809104026020016040519081016040528092919081815260200182805461263090614dc1565b801561267d5780601f106126525761010080835404028352916020019161267d565b820191906000526020600020905b81548152906001019060200180831161266057829003601f168201915b5050505050815260200160018201805461269690614dc1565b80601f01602080910402602001604051908101604052809291908181526020018280546126c290614dc1565b801561270f5780601f106126e45761010080835404028352916020019161270f565b820191906000526020600020905b8154815290600101906020018083116126f257829003601f168201915b505050505081525050815260200190600101906125d1565b50505050815260200160048201805480602002602001604051908101604052809291908181526020016000905b8282101561293c578382906000526020600020906003020160405180606001604052908160008201805461278790614dc1565b80601f01602080910402602001604051908101604052809291908181526020018280546127b390614dc1565b80156128005780601f106127d557610100808354040283529160200191612800565b820191906000526020600020905b8154815290600101906020018083116127e357829003601f168201915b5050505050815260200160018201805461281990614dc1565b80601f016020809104026020016040519081016040528092919081815260200182805461284590614dc1565b80156128925780601f1061286757610100808354040283529160200191612892565b820191906000526020600020905b81548152906001019060200180831161287557829003601f168201915b505050505081526020016002820180546128ab90614dc1565b80601f01602080910402602001604051908101604052809291908181526020018280546128d790614dc1565b80156129245780601f106128f957610100808354040283529160200191612924565b820191906000526020600020905b81548152906001019060200180831161290757829003601f168201915b50505050508152505081526020019060010190612754565b505050508152505083838151811061295757612956615324565b5b6020026020010181905250818061296d90615382565b9250505b808061297c90615382565b915050612414565b5060008167ffffffffffffffff8111156129a1576129a0614659565b5b6040519080825280602002602001820160405280156129da57816020015b6129c7613ec8565b8152602001906001900390816129bf5790505b50905060005b82811015612a34578381815181106129fb576129fa615324565b5b6020026020010151828281518110612a1657612a15615324565b5b60200260200101819052508080612a2c90615382565b9150506129e0565b50809350505050919050565b6000600960008373ffffffffffffffffffffffffffffffffffffffff1673ffffffffffffffffffffffffffffffffffffffff1681526020019081526020016000206000018054612a8f90614dc1565b905003612ad1576040517f08c379a0000000000000000000000000000000000000000000000000000000008152600401612ac8906154e2565b60405180910390fd5b3373ffffffffffffffffffffffffffffffffffffffff16612af183610eb1565b73ffffffffffffffffffffffffffffffffffffffff1614612b47576040517f08c379a0000000000000000000000000000000000000000000000000000000008152600401612b3e90615574565b60405180910390fd5b6000612b5282610f37565b6000015190506000612b6383610f37565b6020015190506008600085815260200190815260200160002060030160405180604001604052808481526020018381525090806001815401808255809150506001900390600052602060002090600202016000909190919091506000820151816000019081612bd29190615252565b506020820151816001019081612be89190615252565b5050506008600085815260200190815260200160002060040160405180606001604052806040518060400160405280600881526020017f7472616e7366657200000000000000000000000000000000000000000000000081525081526020016040518060400160405280600881526020017f7472616e7366657200000000000000000000000000000000000000000000000081525081526020016040518060400160405280600881526020017f7472616e7366657200000000000000000000000000000000000000000000000081525081525090806001815401808255809150506001900390600052602060002090600302016000909190919091506000820151816000019081612cf99190615252565b506020820151816001019081612d0f9190615252565b506040820151816002019081612d259190615252565b505050612d3b612d3485610eb1565b8486613183565b50505050565b3373ffffffffffffffffffffffffffffffffffffffff16612d6185610eb1565b73ffffffffffffffffffffffffffffffffffffffff1614612db7576040517f08c379a0000000000000000000000000000000000000000000000000000000008152600401612dae90615574565b60405180910390fd5b60006040518060600160405280858152602001848152602001838152509050600860008681526020019081526020016000206004018190806001815401808255809150506001900390600052602060002090600302016000909190919091506000820151816000019081612e2b9190615252565b506020820151816001019081612e419190615252565b506040820151816002019081612e579190615252565b5050505050505050565b6000600560008473ffffffffffffffffffffffffffffffffffffffff1673ffffffffffffffffffffffffffffffffffffffff16815260200190815260200160002060008373ffffffffffffffffffffffffffffffffffffffff1673ffffffffffffffffffffffffffffffffffffffff16815260200190815260200160002060009054906101000a900460ff16905092915050565b612efd61347c565b600073ffffffffffffffffffffffffffffffffffffffff168173ffffffffffffffffffffffffffffffffffffffff1603612f6c576040517f08c379a0000000000000000000000000000000000000000000000000000000008152600401612f6390615606565b60405180910390fd5b612f7581613579565b50565b60007f01ffc9a7000000000000000000000000000000000000000000000000000000007bffffffffffffffffffffffffffffffffffffffffffffffffffffffff1916827bffffffffffffffffffffffffffffffffffffffffffffffffffffffff1916149050919050565b612feb816138ec565b61302a576040517f08c379a000000000000000000000000000000000000000000000000000000000815260040161302190614ff4565b60405180910390fd5b50565b600033905090565b816004600083815260200190815260200160002060006101000a81548173ffffffffffffffffffffffffffffffffffffffff021916908373ffffffffffffffffffffffffffffffffffffffff160217905550808273ffffffffffffffffffffffffffffffffffffffff166130a883610eb1565b73ffffffffffffffffffffffffffffffffffffffff167f8c5be1e5ebec7d5bd14f71427d1e84f3dd0314c0f7b2291e5b200ac8c7c3b92560405160405180910390a45050565b6000806130fa83610eb1565b90508073ffffffffffffffffffffffffffffffffffffffff168473ffffffffffffffffffffffffffffffffffffffff16148061313c575061313b8185612e61565b5b8061317a57508373ffffffffffffffffffffffffffffffffffffffff16613162846108e2565b73ffffffffffffffffffffffffffffffffffffffff16145b91505092915050565b8273ffffffffffffffffffffffffffffffffffffffff166131a382610eb1565b73ffffffffffffffffffffffffffffffffffffffff16146131f9576040517f08c379a00000000000000000000000000000000000000000000000000000000081526004016131f090615698565b60405180910390fd5b600073ffffffffffffffffffffffffffffffffffffffff168273ffffffffffffffffffffffffffffffffffffffff1603613268576040517f08c379a000000000000000000000000000000000000000000000000000000000815260040161325f9061572a565b60405180910390fd5b613275838383600161392d565b8273ffffffffffffffffffffffffffffffffffffffff1661329582610eb1565b73ffffffffffffffffffffffffffffffffffffffff16146132eb576040517f08c379a00000000000000000000000000000000000000000000000000000000081526004016132e290615698565b60405180910390fd5b6004600082815260200190815260200160002060006101000a81549073ffffffffffffffffffffffffffffffffffffffff02191690556001600360008573ffffffffffffffffffffffffffffffffffffffff1673ffffffffffffffffffffffffffffffffffffffff168152602001908152602001600020600082825403925050819055506001600360008473ffffffffffffffffffffffffffffffffffffffff1673ffffffffffffffffffffffffffffffffffffffff16815260200190815260200160002060008282540192505081905550816002600083815260200190815260200160002060006101000a81548173ffffffffffffffffffffffffffffffffffffffff021916908373ffffffffffffffffffffffffffffffffffffffff160217905550808273ffffffffffffffffffffffffffffffffffffffff168473ffffffffffffffffffffffffffffffffffffffff167fddf252ad1be2c89b69c2b068fc378daa952ba7f163c4a11628f55a4df523b3ef60405160405180910390a46134778383836001613933565b505050565b61348461302d565b73ffffffffffffffffffffffffffffffffffffffff166134a2611434565b73ffffffffffffffffffffffffffffffffffffffff16146134f8576040517f08c379a00000000000000000000000000000000000000000000000000000000081526004016134ef90615796565b60405180910390fd5b565b600081600001549050919050565b6001816000016000828254019250508190555050565b613538828260405180602001604052806000815250613939565b5050565b60006002600083815260200190815260200160002060009054906101000a900473ffffffffffffffffffffffffffffffffffffffff169050919050565b6000600660009054906101000a900473ffffffffffffffffffffffffffffffffffffffff16905081600660006101000a81548173ffffffffffffffffffffffffffffffffffffffff021916908373ffffffffffffffffffffffffffffffffffffffff1602179055508173ffffffffffffffffffffffffffffffffffffffff168173ffffffffffffffffffffffffffffffffffffffff167f8be0079c531659141344cd1fd0a4f28419497f9722a3daafe3b4186f6b6457e060405160405180910390a35050565b8173ffffffffffffffffffffffffffffffffffffffff168373ffffffffffffffffffffffffffffffffffffffff16036136ad576040517f08c379a00000000000000000000000000000000000000000000000000000000081526004016136a490615802565b60405180910390fd5b80600560008573ffffffffffffffffffffffffffffffffffffffff1673ffffffffffffffffffffffffffffffffffffffff16815260200190815260200160002060008473ffffffffffffffffffffffffffffffffffffffff1673ffffffffffffffffffffffffffffffffffffffff16815260200190815260200160002060006101000a81548160ff0219169083151502179055508173ffffffffffffffffffffffffffffffffffffffff168373ffffffffffffffffffffffffffffffffffffffff167f17307eab39ab6107e8899845ad3d59bd9653f200f220920489ca2b5937696c318360405161379e9190613fab565b60405180910390a3505050565b6137b6848484613183565b6137c284848484613994565b613801576040517f08c379a00000000000000000000000000000000000000000000000000000000081526004016137f890615894565b60405180910390fd5b50505050565b606060405180602001604052806000815250905090565b60606000600161382d84613b1b565b01905060008167ffffffffffffffff81111561384c5761384b614659565b5b6040519080825280601f01601f19166020018201604052801561387e5781602001600182028036833780820191505090505b509050600082602001820190505b6001156138e1578080600190039150507f3031323334353637383961626364656600000000000000000000000000000000600a86061a8153600a85816138d5576138d46158b4565b5b0494506000850361388c575b819350505050919050565b60008073ffffffffffffffffffffffffffffffffffffffff1661390e8361353c565b73ffffffffffffffffffffffffffffffffffffffff1614159050919050565b50505050565b50505050565b6139438383613c6e565b6139506000848484613994565b61398f576040517f08c379a000000000000000000000000000000000000000000000000000000000815260040161398690615894565b60405180910390fd5b505050565b60006139b58473ffffffffffffffffffffffffffffffffffffffff16613e8b565b15613b0e578373ffffffffffffffffffffffffffffffffffffffff1663150b7a026139de61302d565b8786866040518563ffffffff1660e01b8152600401613a009493929190615938565b6020604051808303816000875af1925050508015613a3c57506040513d601f19601f82011682018060405250810190613a399190615999565b60015b613abe573d8060008114613a6c576040519150601f19603f3d011682016040523d82523d6000602084013e613a71565b606091505b506000815103613ab6576040517f08c379a0000000000000000000000000000000000000000000000000000000008152600401613aad90615894565b60405180910390fd5b805181602001fd5b63150b7a0260e01b7bffffffffffffffffffffffffffffffffffffffffffffffffffffffff1916817bffffffffffffffffffffffffffffffffffffffffffffffffffffffff191614915050613b13565b600190505b949350505050565b600080600090507a184f03e93ff9f4daa797ed6e38ed64bf6a1f0100000000000000008310613b79577a184f03e93ff9f4daa797ed6e38ed64bf6a1f0100000000000000008381613b6f57613b6e6158b4565b5b0492506040810190505b6d04ee2d6d415b85acef81000000008310613bb6576d04ee2d6d415b85acef81000000008381613bac57613bab6158b4565b5b0492506020810190505b662386f26fc100008310613be557662386f26fc100008381613bdb57613bda6158b4565b5b0492506010810190505b6305f5e1008310613c0e576305f5e1008381613c0457613c036158b4565b5b0492506008810190505b6127108310613c33576127108381613c2957613c286158b4565b5b0492506004810190505b60648310613c565760648381613c4c57613c4b6158b4565b5b0492506002810190505b600a8310613c65576001810190505b80915050919050565b600073ffffffffffffffffffffffffffffffffffffffff168273ffffffffffffffffffffffffffffffffffffffff1603613cdd576040517f08c379a0000000000000000000000000000000000000000000000000000000008152600401613cd490615a12565b60405180910390fd5b613ce6816138ec565b15613d26576040517f08c379a0000000000000000000000000000000000000000000000000000000008152600401613d1d90615a7e565b60405180910390fd5b613d3460008383600161392d565b613d3d816138ec565b15613d7d576040517f08c379a0000000000000000000000000000000000000000000000000000000008152600401613d7490615a7e565b60405180910390fd5b6001600360008473ffffffffffffffffffffffffffffffffffffffff1673ffffffffffffffffffffffffffffffffffffffff16815260200190815260200160002060008282540192505081905550816002600083815260200190815260200160002060006101000a81548173ffffffffffffffffffffffffffffffffffffffff021916908373ffffffffffffffffffffffffffffffffffffffff160217905550808273ffffffffffffffffffffffffffffffffffffffff16600073ffffffffffffffffffffffffffffffffffffffff167fddf252ad1be2c89b69c2b068fc378daa952ba7f163c4a11628f55a4df523b3ef60405160405180910390a4613e87600083836001613933565b5050565b6000808273ffffffffffffffffffffffffffffffffffffffff163b119050919050565b604051806040016040528060608152602001606081525090565b6040518060a0016040528060008152602001606081526020016060815260200160608152602001606081525090565b6000604051905090565b600080fd5b600080fd5b60007fffffffff0000000000000000000000000000000000000000000000000000000082169050919050565b613f4081613f0b565b8114613f4b57600080fd5b50565b600081359050613f5d81613f37565b92915050565b600060208284031215613f7957613f78613f01565b5b6000613f8784828501613f4e565b91505092915050565b60008115159050919050565b613fa581613f90565b82525050565b6000602082019050613fc06000830184613f9c565b92915050565b600073ffffffffffffffffffffffffffffffffffffffff82169050919050565b6000613ff182613fc6565b9050919050565b61400181613fe6565b811461400c57600080fd5b50565b60008135905061401e81613ff8565b92915050565b60006020828403121561403a57614039613f01565b5b60006140488482850161400f565b91505092915050565b600081519050919050565b600082825260208201905092915050565b60005b8381101561408b578082015181840152602081019050614070565b60008484015250505050565b6000601f19601f8301169050919050565b60006140b382614051565b6140bd818561405c565b93506140cd81856020860161406d565b6140d681614097565b840191505092915050565b600060408201905081810360008301526140fb81856140a8565b9050818103602083015261410f81846140a8565b90509392505050565b6000602082019050818103600083015261413281846140a8565b905092915050565b6000819050919050565b61414d8161413a565b811461415857600080fd5b50565b60008135905061416a81614144565b92915050565b60006020828403121561418657614185613f01565b5b60006141948482850161415b565b91505092915050565b6141a681613fe6565b82525050565b60006020820190506141c1600083018461419d565b92915050565b600080604083850312156141de576141dd613f01565b5b60006141ec8582860161400f565b92505060206141fd8582860161415b565b9150509250929050565b600081519050919050565b600082825260208201905092915050565b6000819050602082019050919050565b600082825260208201905092915050565b600061424f82614051565b6142598185614233565b935061426981856020860161406d565b61427281614097565b840191505092915050565b6000606083016000830151848203600086015261429a8282614244565b915050602083015184820360208601526142b48282614244565b915050604083015184820360408601526142ce8282614244565b9150508091505092915050565b60006142e7838361427d565b905092915050565b6000602082019050919050565b600061430782614207565b6143118185614212565b93508360208202850161432385614223565b8060005b8581101561435f578484038952815161434085826142db565b945061434b836142ef565b925060208a01995050600181019050614327565b50829750879550505050505092915050565b6000602082019050818103600083015261438b81846142fc565b905092915050565b6000806000606084860312156143ac576143ab613f01565b5b60006143ba8682870161400f565b93505060206143cb8682870161400f565b92505060406143dc8682870161415b565b9150509250925092565b600081519050919050565b600082825260208201905092915050565b6000819050602082019050919050565b6000604083016000830151848203600086015261442f8282614244565b915050602083015184820360208601526144498282614244565b9150508091505092915050565b60006144628383614412565b905092915050565b6000602082019050919050565b6000614482826143e6565b61448c81856143f1565b93508360208202850161449e85614402565b8060005b858110156144da57848403895281516144bb8582614456565b94506144c68361446a565b925060208a019950506001810190506144a2565b50829750879550505050505092915050565b600060208201905081810360008301526145068184614477565b905092915050565b6000604083016000830151848203600086015261452b8282614244565b915050602083015184820360208601526145458282614244565b9150508091505092915050565b6000602082019050818103600083015261456c818461450e565b905092915050565b61457d8161413a565b82525050565b60006020820190506145986000830184614574565b92915050565b60006060820190506145b36000830186614574565b81810360208301526145c581856140a8565b905081810360408301526145d981846140a8565b9050949350505050565b6145ec81613f90565b81146145f757600080fd5b50565b600081359050614609816145e3565b92915050565b6000806040838503121561462657614625613f01565b5b60006146348582860161400f565b9250506020614645858286016145fa565b9150509250929050565b600080fd5b600080fd5b7f4e487b7100000000000000000000000000000000000000000000000000000000600052604160045260246000fd5b61469182614097565b810181811067ffffffffffffffff821117156146b0576146af614659565b5b80604052505050565b60006146c3613ef7565b90506146cf8282614688565b919050565b600067ffffffffffffffff8211156146ef576146ee614659565b5b6146f882614097565b9050602081019050919050565b82818337600083830152505050565b6000614727614722846146d4565b6146b9565b90508281526020810184848401111561474357614742614654565b5b61474e848285614705565b509392505050565b600082601f83011261476b5761476a61464f565b5b813561477b848260208601614714565b91505092915050565b6000806040838503121561479b5761479a613f01565b5b600083013567ffffffffffffffff8111156147b9576147b8613f06565b5b6147c585828601614756565b925050602083013567ffffffffffffffff8111156147e6576147e5613f06565b5b6147f285828601614756565b9150509250929050565b600067ffffffffffffffff82111561481757614816614659565b5b61482082614097565b9050602081019050919050565b600061484061483b846147fc565b6146b9565b90508281526020810184848401111561485c5761485b614654565b5b614867848285614705565b509392505050565b600082601f8301126148845761488361464f565b5b813561489484826020860161482d565b91505092915050565b600080600080608085870312156148b7576148b6613f01565b5b60006148c58782880161400f565b94505060206148d68782880161400f565b93505060406148e78782880161415b565b925050606085013567ffffffffffffffff81111561490857614907613f06565b5b6149148782880161486f565b91505092959194509250565b6149298161413a565b82525050565b600082825260208201905092915050565b600061494b826143e6565b614955818561492f565b93508360208202850161496785614402565b8060005b858110156149a357848403895281516149848582614456565b945061498f8361446a565b925060208a0199505060018101905061496b565b50829750879550505050505092915050565b600082825260208201905092915050565b60006149d182614207565b6149db81856149b5565b9350836020820285016149ed85614223565b8060005b85811015614a295784840389528151614a0a85826142db565b9450614a15836142ef565b925060208a019950506001810190506149f1565b50829750879550505050505092915050565b600060a083016000830151614a536000860182614920565b5060208301518482036020860152614a6b8282614244565b91505060408301518482036040860152614a858282614244565b91505060608301518482036060860152614a9f8282614940565b91505060808301518482036080860152614ab982826149c6565b9150508091505092915050565b60006020820190508181036000830152614ae08184614a3b565b905092915050565b600081519050919050565b600082825260208201905092915050565b6000819050602082019050919050565b600060a083016000830151614b2c6000860182614920565b5060208301518482036020860152614b448282614244565b91505060408301518482036040860152614b5e8282614244565b91505060608301518482036060860152614b788282614940565b91505060808301518482036080860152614b9282826149c6565b9150508091505092915050565b6000614bab8383614b14565b905092915050565b6000602082019050919050565b6000614bcb82614ae8565b614bd58185614af3565b935083602082028501614be785614b04565b8060005b85811015614c235784840389528151614c048582614b9f565b9450614c0f83614bb3565b925060208a01995050600181019050614beb565b50829750879550505050505092915050565b60006020820190508181036000830152614c4f8184614bc0565b905092915050565b60008060408385031215614c6e57614c6d613f01565b5b6000614c7c8582860161415b565b9250506020614c8d8582860161400f565b9150509250929050565b60008060008060808587031215614cb157614cb0613f01565b5b6000614cbf8782880161415b565b945050602085013567ffffffffffffffff811115614ce057614cdf613f06565b5b614cec87828801614756565b935050604085013567ffffffffffffffff811115614d0d57614d0c613f06565b5b614d1987828801614756565b925050606085013567ffffffffffffffff811115614d3a57614d39613f06565b5b614d4687828801614756565b91505092959194509250565b60008060408385031215614d6957614d68613f01565b5b6000614d778582860161400f565b9250506020614d888582860161400f565b9150509250929050565b7f4e487b7100000000000000000000000000000000000000000000000000000000600052602260045260246000fd5b60006002820490506001821680614dd957607f821691505b602082108103614dec57614deb614d92565b5b50919050565b7f4552433732313a20617070726f76616c20746f2063757272656e74206f776e6560008201527f7200000000000000000000000000000000000000000000000000000000000000602082015250565b6000614e4e60218361405c565b9150614e5982614df2565b604082019050919050565b60006020820190508181036000830152614e7d81614e41565b9050919050565b7f4552433732313a20617070726f76652063616c6c6572206973206e6f7420746f60008201527f6b656e206f776e6572206f7220617070726f76656420666f7220616c6c000000602082015250565b6000614ee0603d8361405c565b9150614eeb82614e84565b604082019050919050565b60006020820190508181036000830152614f0f81614ed3565b9050919050565b7f4552433732313a2063616c6c6572206973206e6f7420746f6b656e206f776e6560008201527f72206f7220617070726f76656400000000000000000000000000000000000000602082015250565b6000614f72602d8361405c565b9150614f7d82614f16565b604082019050919050565b60006020820190508181036000830152614fa181614f65565b9050919050565b7f4552433732313a20696e76616c696420746f6b656e2049440000000000000000600082015250565b6000614fde60188361405c565b9150614fe982614fa8565b602082019050919050565b6000602082019050818103600083015261500d81614fd1565b9050919050565b7f4552433732313a2061646472657373207a65726f206973206e6f74206120766160008201527f6c6964206f776e65720000000000000000000000000000000000000000000000602082015250565b600061507060298361405c565b915061507b82615014565b604082019050919050565b6000602082019050818103600083015261509f81615063565b9050919050565b60008190508160005260206000209050919050565b60006020601f8301049050919050565b600082821b905092915050565b6000600883026151087fffffffffffffffffffffffffffffffffffffffffffffffffffffffffffffffff826150cb565b61511286836150cb565b95508019841693508086168417925050509392505050565b6000819050919050565b600061514f61514a6151458461413a565b61512a565b61413a565b9050919050565b6000819050919050565b61516983615134565b61517d61517582615156565b8484546150d8565b825550505050565b600090565b615192615185565b61519d818484615160565b505050565b5b818110156151c1576151b660008261518a565b6001810190506151a3565b5050565b601f821115615206576151d7816150a6565b6151e0846150bb565b810160208510156151ef578190505b6152036151fb856150bb565b8301826151a2565b50505b505050565b600082821c905092915050565b60006152296000198460080261520b565b1980831691505092915050565b60006152428383615218565b9150826002028217905092915050565b61525b82614051565b67ffffffffffffffff81111561527457615273614659565b5b61527e8254614dc1565b6152898282856151c5565b600060209050601f8311600181146152bc57600084156152aa578287015190505b6152b48582615236565b86555061531c565b601f1984166152ca866150a6565b60005b828110156152f2578489015182556001820191506020850194506020810190506152cd565b8683101561530f578489015161530b601f891682615218565b8355505b6001600288020188555050505b505050505050565b7f4e487b7100000000000000000000000000000000000000000000000000000000600052603260045260246000fd5b7f4e487b7100000000000000000000000000000000000000000000000000000000600052601160045260246000fd5b600061538d8261413a565b91507fffffffffffffffffffffffffffffffffffffffffffffffffffffffffffffffff82036153bf576153be615353565b5b600182019050919050565b600081905092915050565b60006153e082614051565b6153ea81856153ca565b93506153fa81856020860161406d565b80840191505092915050565b600061541282856153d5565b915061541e82846153d5565b91508190509392505050565b7f596f75206d757374207265676973746572206173206f776e6572206669727374600082015250565b600061546060208361405c565b915061546b8261542a565b602082019050919050565b6000602082019050818103600083015261548f81615453565b9050919050565b7f4e6577206f776e6572206d757374207265676973746572000000000000000000600082015250565b60006154cc60178361405c565b91506154d782615496565b602082019050919050565b600060208201905081810360008301526154fb816154bf565b9050919050565b7f596f7520617265206e6f7420746865206f776e6572206f66207468697320707260008201527f6f64756374000000000000000000000000000000000000000000000000000000602082015250565b600061555e60258361405c565b915061556982615502565b604082019050919050565b6000602082019050818103600083015261558d81615551565b9050919050565b7f4f776e61626c653a206e6577206f776e657220697320746865207a65726f206160008201527f6464726573730000000000000000000000000000000000000000000000000000602082015250565b60006155f060268361405c565b91506155fb82615594565b604082019050919050565b6000602082019050818103600083015261561f816155e3565b9050919050565b7f4552433732313a207472616e736665722066726f6d20696e636f72726563742060008201527f6f776e6572000000000000000000000000000000000000000000000000000000602082015250565b600061568260258361405c565b915061568d82615626565b604082019050919050565b600060208201905081810360008301526156b181615675565b9050919050565b7f4552433732313a207472616e7366657220746f20746865207a65726f2061646460008201527f7265737300000000000000000000000000000000000000000000000000000000602082015250565b600061571460248361405c565b915061571f826156b8565b604082019050919050565b6000602082019050818103600083015261574381615707565b9050919050565b7f4f776e61626c653a2063616c6c6572206973206e6f7420746865206f776e6572600082015250565b600061578060208361405c565b915061578b8261574a565b602082019050919050565b600060208201905081810360008301526157af81615773565b9050919050565b7f4552433732313a20617070726f766520746f2063616c6c657200000000000000600082015250565b60006157ec60198361405c565b91506157f7826157b6565b602082019050919050565b6000602082019050818103600083015261581b816157df565b9050919050565b7f4552433732313a207472616e7366657220746f206e6f6e20455243373231526560008201527f63656976657220696d706c656d656e7465720000000000000000000000000000602082015250565b600061587e60328361405c565b915061588982615822565b604082019050919050565b600060208201905081810360008301526158ad81615871565b9050919050565b7f4e487b7100000000000000000000000000000000000000000000000000000000600052601260045260246000fd5b600081519050919050565b600082825260208201905092915050565b600061590a826158e3565b61591481856158ee565b935061592481856020860161406d565b61592d81614097565b840191505092915050565b600060808201905061594d600083018761419d565b61595a602083018661419d565b6159676040830185614574565b818103606083015261597981846158ff565b905095945050505050565b60008151905061599381613f37565b92915050565b6000602082840312156159af576159ae613f01565b5b60006159bd84828501615984565b91505092915050565b7f4552433732313a206d696e7420746f20746865207a65726f2061646472657373600082015250565b60006159fc60208361405c565b9150615a07826159c6565b602082019050919050565b60006020820190508181036000830152615a2b816159ef565b9050919050565b7f4552433732313a20746f6b656e20616c7265616479206d696e74656400000000600082015250565b6000615a68601c8361405c565b9150615a7382615a32565b602082019050919050565b60006020820190508181036000830152615a9781615a5b565b905091905056fea26469706673582212204c3b36079d0d7917975ecfe059e58a8718a226c2ac0f0a0dfbf1bb2b9100651264736f6c63430008110033",
  "linkReferences": {},
  "deployedLinkReferences": {}
}