{
  "_format": "hh-sol-artifact-1",
  "contractName": "FreshFood",
  "sourceName": "contracts/FreshFood.sol",
  "abi": [
    {
      "inputs": [],
      "stateMutability": "nonpayable",
      "type": "constructor"
    },
    {
      "anonymous": false,
      "inputs": [
        {
          "indexed": true,
          "internalType": "address",
          "name": "owner",
          "type": "address"
        },
        {
          "indexed": true,
          "internalType": "address",
          "name": "approved",
          "type": "address"
        },
        {
          "indexed": true,
          "internalType": "uint256",
          "name": "tokenId",
          "type": "uint256"
        }
      ],
      "name": "Approval",
      "type": "event"
    },
    {
      "anonymous": false,
      "inputs": [
        {
          "indexed": true,
          "internalType": "address",
          "name": "owner",
          "type": "address"
        },
        {
          "indexed": true,
          "internalType": "address",
          "name": "operator",
          "type": "address"
        },
        {
          "indexed": false,
          "internalType": "bool",
          "name": "approved",
          "type": "bool"
        }
      ],
      "name": "ApprovalForAll",
      "type": "event"
    },
    {
      "anonymous": false,
      "inputs": [
        {
          "indexed": true,
          "internalType": "address",
          "name": "previousOwner",
          "type": "address"
        },
        {
          "indexed": true,
          "internalType": "address",
          "name": "newOwner",
          "type": "address"
        }
      ],
      "name": "OwnershipTransferred",
      "type": "event"
    },
    {
      "anonymous": false,
      "inputs": [
        {
          "indexed": true,
          "internalType": "address",
          "name": "from",
          "type": "address"
        },
        {
          "indexed": true,
          "internalType": "address",
          "name": "to",
          "type": "address"
        },
        {
          "indexed": true,
          "internalType": "uint256",
          "name": "tokenId",
          "type": "uint256"
        }
      ],
      "name": "Transfer",
      "type": "event"
    },
    {
      "inputs": [
        {
          "internalType": "uint256",
          "name": "_productId",
          "type": "uint256"
        },
        {
          "internalType": "string",
          "name": "_url",
          "type": "string"
        },
        {
          "internalType": "string",
          "name": "_hash",
          "type": "string"
        },
        {
          "internalType": "string",
          "name": "_location",
          "type": "string"
        }
      ],
      "name": "addLog",
      "outputs": [],
      "stateMutability": "nonpayable",
      "type": "function"
    },
    {
      "inputs": [
        {
          "internalType": "string",
          "name": "_name",
          "type": "string"
        },
        {
          "internalType": "string",
          "name": "_origin",
          "type": "string"
        }
      ],
      "name": "addProduct",
      "outputs": [],
      "stateMutability": "nonpayable",
      "type": "function"
    },
    {
      "inputs": [
        {
          "internalType": "address",
          "name": "to",
          "type": "address"
        },
        {
          "internalType": "uint256",
          "name": "tokenId",
          "type": "uint256"
        }
      ],
      "name": "approve",
      "outputs": [],
      "stateMutability": "nonpayable",
      "type": "function"
    },
    {
      "inputs": [
        {
          "internalType": "address",
          "name": "owner",
          "type": "address"
        }
      ],
      "name": "balanceOf",
      "outputs": [
        {
          "internalType": "uint256",
          "name": "",
          "type": "uint256"
        }
      ],
      "stateMutability": "view",
      "type": "function"
    },
    {
      "inputs": [
        {
          "internalType": "uint256",
          "name": "tokenId",
          "type": "uint256"
        }
      ],
      "name": "getApproved",
      "outputs": [
        {
          "internalType": "address",
          "name": "",
          "type": "address"
        }
      ],
      "stateMutability": "view",
      "type": "function"
    },
    {
      "inputs": [
        {
          "internalType": "uint256",
          "name": "_productId",
          "type": "uint256"
        }
      ],
      "name": "getLogs",
      "outputs": [
        {
          "components": [
            {
              "internalType": "string",
              "name": "url",
              "type": "string"
            },
            {
              "internalType": "string",
              "name": "hash",
              "type": "string"
            },
            {
              "internalType": "string",
              "name": "location",
              "type": "string"
            }
          ],
          "internalType": "struct Log[]",
          "name": "",
          "type": "tuple[]"
        }
      ],
      "stateMutability": "view",
      "type": "function"
    },
    {
      "inputs": [
        {
          "internalType": "address",
          "name": "_ownerAddr",
          "type": "address"
        }
      ],
      "name": "getOwner",
      "outputs": [
        {
          "components": [
            {
              "internalType": "string",
              "name": "name",
              "type": "string"
            },
            {
              "internalType": "string",
              "name": "description",
              "type": "string"
            }
          ],
          "internalType": "struct Owner",
          "name": "",
          "type": "tuple"
        }
      ],
      "stateMutability": "view",
      "type": "function"
    },
    {
      "inputs": [
        {
          "internalType": "uint256",
          "name": "_productId",
          "type": "uint256"
        }
      ],
      "name": "getOwnerListFromProduct",
      "outputs": [
        {
          "components": [
            {
              "internalType": "string",
              "name": "name",
              "type": "string"
            },
            {
              "internalType": "string",
              "name": "description",
              "type": "string"
            }
          ],
          "internalType": "struct Owner[]",
          "name": "",
          "type": "tuple[]"
        }
      ],
      "stateMutability": "view",
      "type": "function"
    },
    {
      "inputs": [
        {
          "internalType": "uint256",
          "name": "_productId",
          "type": "uint256"
        }
      ],
      "name": "getProduct",
      "outputs": [
        {
          "components": [
            {
              "internalType": "uint256",
              "name": "productId",
              "type": "uint256"
            },
            {
              "internalType": "string",
              "name": "name",
              "type": "string"
            },
            {
              "internalType": "string",
              "name": "origin",
              "type": "string"
            },
            {
              "components": [
                {
                  "internalType": "string",
                  "name": "name",
                  "type": "string"
                },
                {
                  "internalType": "string",
                  "name": "description",
                  "type": "string"
                }
              ],
              "internalType": "struct Owner[]",
              "name": "ownerList",
              "type": "tuple[]"
            },
            {
              "components": [
                {
                  "internalType": "string",
                  "name": "url",
                  "type": "string"
                },
                {
                  "internalType": "string",
                  "name": "hash",
                  "type": "string"
                },
                {
                  "internalType": "string",
                  "name": "location",
                  "type": "string"
                }
              ],
              "internalType": "struct Log[]",
              "name": "logList",
              "type": "tuple[]"
            }
          ],
          "internalType": "struct Product",
          "name": "",
          "type": "tuple"
        }
      ],
      "stateMutability": "view",
      "type": "function"
    },
    {
      "inputs": [
        {
          "internalType": "address",
          "name": "_ownerAddr",
          "type": "address"
        }
      ],
      "name": "getProductByOwner",
      "outputs": [
        {
          "components": [
            {
              "internalType": "uint256",
              "name": "productId",
              "type": "uint256"
            },
            {
              "internalType": "string",
              "name": "name",
              "type": "string"
            },
            {
              "internalType": "string",
              "name": "origin",
              "type": "string"
            },
            {
              "components": [
                {
                  "internalType": "string",
                  "name": "name",
                  "type": "string"
                },
                {
                  "internalType": "string",
                  "name": "description",
                  "type": "string"
                }
              ],
              "internalType": "struct Owner[]",
              "name": "ownerList",
              "type": "tuple[]"
            },
            {
              "components": [
                {
                  "internalType": "string",
                  "name": "url",
                  "type": "string"
                },
                {
                  "internalType": "string",
                  "name": "hash",
                  "type": "string"
                },
                {
                  "internalType": "string",
                  "name": "location",
                  "type": "string"
                }
              ],
              "internalType": "struct Log[]",
              "name": "logList",
              "type": "tuple[]"
            }
          ],
          "internalType": "struct Product[]",
          "name": "",
          "type": "tuple[]"
        }
      ],
      "stateMutability": "view",
      "type": "function"
    },
    {
      "inputs": [],
      "name": "getProducts",
      "outputs": [
        {
          "components": [
            {
              "internalType": "uint256",
              "name": "productId",
              "type": "uint256"
            },
            {
              "internalType": "string",
              "name": "name",
              "type": "string"
            },
            {
              "internalType": "string",
              "name": "origin",
              "type": "string"
            },
            {
              "components": [
                {
                  "internalType": "string",
                  "name": "name",
                  "type": "string"
                },
                {
                  "internalType": "string",
                  "name": "description",
                  "type": "string"
                }
              ],
              "internalType": "struct Owner[]",
              "name": "ownerList",
              "type": "tuple[]"
            },
            {
              "components": [
                {
                  "internalType": "string",
                  "name": "url",
                  "type": "string"
                },
                {
                  "internalType": "string",
                  "name": "hash",
                  "type": "string"
                },
                {
                  "internalType": "string",
                  "name": "location",
                  "type": "string"
                }
              ],
              "internalType": "struct Log[]",
              "name": "logList",
              "type": "tuple[]"
            }
          ],
          "internalType": "struct Product[]",
          "name": "",
          "type": "tuple[]"
        }
      ],
      "stateMutability": "view",
      "type": "function"
    },
    {
      "inputs": [
        {
          "internalType": "address",
          "name": "owner",
          "type": "address"
        },
        {
          "internalType": "address",
          "name": "operator",
          "type": "address"
        }
      ],
      "name": "isApprovedForAll",
      "outputs": [
        {
          "internalType": "bool",
          "name": "",
          "type": "bool"
        }
      ],
      "stateMutability": "view",
      "type": "function"
    },
    {
      "inputs": [],
      "name": "name",
      "outputs": [
        {
          "internalType": "string",
          "name": "",
          "type": "string"
        }
      ],
      "stateMutability": "view",
      "type": "function"
    },
    {
      "inputs": [],
      "name": "owner",
      "outputs": [
        {
          "internalType": "address",
          "name": "",
          "type": "address"
        }
      ],
      "stateMutability": "view",
      "type": "function"
    },
    {
      "inputs": [
        {
          "internalType": "uint256",
          "name": "tokenId",
          "type": "uint256"
        }
      ],
      "name": "ownerOf",
      "outputs": [
        {
          "internalType": "address",
          "name": "",
          "type": "address"
        }
      ],
      "stateMutability": "view",
      "type": "function"
    },
    {
      "inputs": [
        {
          "internalType": "address",
          "name": "",
          "type": "address"
        }
      ],
      "name": "owners",
      "outputs": [
        {
          "internalType": "string",
          "name": "name",
          "type": "string"
        },
        {
          "internalType": "string",
          "name": "description",
          "type": "string"
        }
      ],
      "stateMutability": "view",
      "type": "function"
    },
    {
      "inputs": [
        {
          "internalType": "uint256",
          "name": "",
          "type": "uint256"
        }
      ],
      "name": "products",
      "outputs": [
        {
          "internalType": "uint256",
          "name": "productId",
          "type": "uint256"
        },
        {
          "internalType": "string",
          "name": "name",
          "type": "string"
        },
        {
          "internalType": "string",
          "name": "origin",
          "type": "string"
        }
      ],
      "stateMutability": "view",
      "type": "function"
    },
    {
      "inputs": [
        {
          "internalType": "string",
          "name": "_name",
          "type": "string"
        },
        {
          "internalType": "string",
          "name": "_description",
          "type": "string"
        }
      ],
      "name": "registerOwner",
      "outputs": [],
      "stateMutability": "nonpayable",
      "type": "function"
    },
    {
      "inputs": [],
      "name": "renounceOwnership",
      "outputs": [],
      "stateMutability": "nonpayable",
      "type": "function"
    },
    {
      "inputs": [
        {
          "internalType": "address",
          "name": "to",
          "type": "address"
        }
      ],
      "name": "safeMint",
      "outputs": [],
      "stateMutability": "nonpayable",
      "type": "function"
    },
    {
      "inputs": [
        {
          "internalType": "address",
          "name": "from",
          "type": "address"
        },
        {
          "internalType": "address",
          "name": "to",
          "type": "address"
        },
        {
          "internalType": "uint256",
          "name": "tokenId",
          "type": "uint256"
        }
      ],
      "name": "safeTransferFrom",
      "outputs": [],
      "stateMutability": "nonpayable",
      "type": "function"
    },
    {
      "inputs": [
        {
          "internalType": "address",
          "name": "from",
          "type": "address"
        },
        {
          "internalType": "address",
          "name": "to",
          "type": "address"
        },
        {
          "internalType": "uint256",
          "name": "tokenId",
          "type": "uint256"
        },
        {
          "internalType": "bytes",
          "name": "data",
          "type": "bytes"
        }
      ],
      "name": "safeTransferFrom",
      "outputs": [],
      "stateMutability": "nonpayable",
      "type": "function"
    },
    {
      "inputs": [
        {
          "internalType": "address",
          "name": "operator",
          "type": "address"
        },
        {
          "internalType": "bool",
          "name": "approved",
          "type": "bool"
        }
      ],
      "name": "setApprovalForAll",
      "outputs": [],
      "stateMutability": "nonpayable",
      "type": "function"
    },
    {
      "inputs": [
        {
          "internalType": "bytes4",
          "name": "interfaceId",
          "type": "bytes4"
        }
      ],
      "name": "supportsInterface",
      "outputs": [
        {
          "internalType": "bool",
          "name": "",
          "type": "bool"
        }
      ],
      "stateMutability": "view",
      "type": "function"
    },
    {
      "inputs": [],
      "name": "symbol",
      "outputs": [
        {
          "internalType": "string",
          "name": "",
          "type": "string"
        }
      ],
      "stateMutability": "view",
      "type": "function"
    },
    {
      "inputs": [
        {
          "internalType": "uint256",
          "name": "tokenId",
          "type": "uint256"
        }
      ],
      "name": "tokenURI",
      "outputs": [
        {
          "internalType": "string",
          "name": "",
          "type": "string"
        }
      ],
      "stateMutability": "view",
      "type": "function"
    },
    {
      "inputs": [
        {
          "internalType": "address",
          "name": "from",
          "type": "address"
        },
        {
          "internalType": "address",
          "name": "to",
          "type": "address"
        },
        {
          "internalType": "uint256",
          "name": "tokenId",
          "type": "uint256"
        }
      ],
      "name": "transferFrom",
      "outputs": [],
      "stateMutability": "nonpayable",
      "type": "function"
    },
    {
      "inputs": [
        {
          "internalType": "address",
          "name": "newOwner",
          "type": "address"
        }
      ],
      "name": "transferOwnership",
      "outputs": [],
      "stateMutability": "nonpayable",
      "type": "function"
    },
    {
      "inputs": [
        {
          "internalType": "uint256",
          "name": "_productId",
          "type": "uint256"
        },
        {
          "internalType": "address",
          "name": "_newOwner",
          "type": "address"
        }
      ],
      "name": "transferProduct",
      "outputs": [],
      "stateMutability": "nonpayable",
      "type": "function"
    }
  ],
  "bytecode": "0x60806040523480156200001157600080fd5b506040518060400160405280600981526020017f4672657368466f6f6400000000000000000000000000000000000000000000008152506040518060400160405280600381526020017f465246000000000000000000000000000000000000000000000000000000000081525081600090816200008f919062000412565b508060019081620000a1919062000412565b505050620000c4620000b8620000ca60201b60201c565b620000d260201b60201c565b620004f9565b600033905090565b6000600660009054906101000a900473ffffffffffffffffffffffffffffffffffffffff16905081600660006101000a81548173ffffffffffffffffffffffffffffffffffffffff021916908373ffffffffffffffffffffffffffffffffffffffff1602179055508173ffffffffffffffffffffffffffffffffffffffff168173ffffffffffffffffffffffffffffffffffffffff167f8be0079c531659141344cd1fd0a4f28419497f9722a3daafe3b4186f6b6457e060405160405180910390a35050565b600081519050919050565b7f4e487b7100000000000000000000000000000000000000000000000000000000600052604160045260246000fd5b7f4e487b7100000000000000000000000000000000000000000000000000000000600052602260045260246000fd5b600060028204905060018216806200021a57607f821691505b60208210810362000230576200022f620001d2565b5b50919050565b60008190508160005260206000209050919050565b60006020601f8301049050919050565b600082821b905092915050565b6000600883026200029a7fffffffffffffffffffffffffffffffffffffffffffffffffffffffffffffffff826200025b565b620002a686836200025b565b95508019841693508086168417925050509392505050565b6000819050919050565b6000819050919050565b6000620002f3620002ed620002e784620002be565b620002c8565b620002be565b9050919050565b6000819050919050565b6200030f83620002d2565b620003276200031e82620002fa565b84845462000268565b825550505050565b600090565b6200033e6200032f565b6200034b81848462000304565b505050565b5b8181101562000373576200036760008262000334565b60018101905062000351565b5050565b601f821115620003c2576200038c8162000236565b62000397846200024b565b81016020851015620003a7578190505b620003bf620003b6856200024b565b83018262000350565b50505b505050565b600082821c905092915050565b6000620003e760001984600802620003c7565b1980831691505092915050565b6000620004028383620003d4565b9150826002028217905092915050565b6200041d8262000198565b67ffffffffffffffff811115620004395762000438620001a3565b5b62000445825462000201565b6200045282828562000377565b600060209050601f8311600181146200048a576000841562000475578287015190505b620004818582620003f4565b865550620004f1565b601f1984166200049a8662000236565b60005b82811015620004c4578489015182556001820191506020850194506020810190506200049d565b86831015620004e45784890151620004e0601f891682620003d4565b8355505b6001600288020188555050505b505050505050565b61590f80620005096000396000f3fe608060405234801561001057600080fd5b50600436106101cf5760003560e01c80638da5cb5b11610104578063c87b56dd116100a2578063e7ab073111610071578063e7ab073114610565578063e985e9c514610581578063f2fde38b146105b1578063fa544161146105cd576101cf565b8063c87b56dd146104cd578063ca2efb55146104fd578063d0d0bf0114610519578063e43059e514610549576101cf565b8063a4fde7c6116100de578063a4fde7c614610447578063b88d4fde14610463578063b9db15b41461047f578063c29b2f20146104af576101cf565b80638da5cb5b146103ef57806395d89b411461040d578063a22cb4651461042b576101cf565b80633fdeca4e116101715780636352211e1161014b5780636352211e1461035357806370a0823114610383578063715018a6146103b35780637acc0b20146103bd576101cf565b80633fdeca4e146102eb57806340d097c31461031b57806342842e0e14610337576101cf565b8063081812fc116101ad578063081812fc14610253578063095ea7b3146102835780631124c05a1461029f57806323b872dd146102cf576101cf565b806301ffc9a7146101d4578063022914a71461020457806306fdde0314610235575b600080fd5b6101ee60048036038101906101e99190613d9e565b6105fd565b6040516101fb9190613de6565b60405180910390f35b61021e60048036038101906102199190613e5f565b6106df565b60405161022c929190613f1c565b60405180910390f35b61023d610813565b60405161024a9190613f53565b60405180910390f35b61026d60048036038101906102689190613fab565b6108a5565b60405161027a9190613fe7565b60405180910390f35b61029d60048036038101906102989190614002565b6108eb565b005b6102b960048036038101906102b49190613fab565b610a02565b6040516102c691906141ac565b60405180910390f35b6102e960048036038101906102e491906141ce565b610c2d565b005b61030560048036038101906103009190613fab565b610c8d565b6040516103129190614327565b60405180910390f35b61033560048036038101906103309190613e5f565b610e26565b005b610351600480360381019061034c91906141ce565b610e54565b005b61036d60048036038101906103689190613fab565b610e74565b60405161037a9190613fe7565b60405180910390f35b61039d60048036038101906103989190613e5f565b610efa565b6040516103aa9190614358565b60405180910390f35b6103bb610fb1565b005b6103d760048036038101906103d29190613fab565b610fc5565b6040516103e693929190614373565b60405180910390f35b6103f76110ff565b6040516104049190613fe7565b60405180910390f35b610415611129565b6040516104229190613f53565b60405180910390f35b610445600480360381019061044091906143e4565b6111bb565b005b610461600480360381019061045c9190614559565b6111d1565b005b61047d60048036038101906104789190614672565b61125e565b005b61049960048036038101906104949190613fab565b6112c0565b6040516104a6919061489b565b60405180910390f35b6104b76117b3565b6040516104c49190614a0a565b60405180910390f35b6104e760048036038101906104e29190613fab565b611d47565b6040516104f49190613f53565b60405180910390f35b61051760048036038101906105129190614559565b611daf565b005b610533600480360381019061052e9190613e5f565b61206b565b6040516105409190614a0a565b60405180910390f35b610563600480360381019061055e9190614a2c565b6126fe565b005b61057f600480360381019061057a9190614a6c565b6129ff565b005b61059b60048036038101906105969190614b27565b612b1f565b6040516105a89190613de6565b60405180910390f35b6105cb60048036038101906105c69190613e5f565b612bb3565b005b6105e760048036038101906105e29190613e5f565b612c36565b6040516105f49190614bab565b60405180910390f35b60007f80ac58cd000000000000000000000000000000000000000000000000000000007bffffffffffffffffffffffffffffffffffffffffffffffffffffffff1916827bffffffffffffffffffffffffffffffffffffffffffffffffffffffff191614806106c857507f5b5e139f000000000000000000000000000000000000000000000000000000007bffffffffffffffffffffffffffffffffffffffffffffffffffffffff1916827bffffffffffffffffffffffffffffffffffffffffffffffffffffffff1916145b806106d857506106d782612db3565b5b9050919050565b600960205280600052604060002060009150905080600001805461070290614bfc565b80601f016020809104026020016040519081016040528092919081815260200182805461072e90614bfc565b801561077b5780601f106107505761010080835404028352916020019161077b565b820191906000526020600020905b81548152906001019060200180831161075e57829003601f168201915b50505050509080600101805461079090614bfc565b80601f01602080910402602001604051908101604052809291908181526020018280546107bc90614bfc565b80156108095780601f106107de57610100808354040283529160200191610809565b820191906000526020600020905b8154815290600101906020018083116107ec57829003601f168201915b5050505050905082565b60606000805461082290614bfc565b80601f016020809104026020016040519081016040528092919081815260200182805461084e90614bfc565b801561089b5780601f106108705761010080835404028352916020019161089b565b820191906000526020600020905b81548152906001019060200180831161087e57829003601f168201915b5050505050905090565b60006108b082612e1d565b6004600083815260200190815260200160002060009054906101000a900473ffffffffffffffffffffffffffffffffffffffff169050919050565b60006108f682610e74565b90508073ffffffffffffffffffffffffffffffffffffffff168373ffffffffffffffffffffffffffffffffffffffff1603610966576040517f08c379a000000000000000000000000000000000000000000000000000000000815260040161095d90614c9f565b60405180910390fd5b8073ffffffffffffffffffffffffffffffffffffffff16610985612e68565b73ffffffffffffffffffffffffffffffffffffffff1614806109b457506109b3816109ae612e68565b612b1f565b5b6109f3576040517f08c379a00000000000000000000000000000000000000000000000000000000081526004016109ea90614d31565b60405180910390fd5b6109fd8383612e70565b505050565b606060086000838152602001908152602001600020600401805480602002602001604051908101604052809291908181526020016000905b82821015610c225783829060005260206000209060030201604051806060016040529081600082018054610a6d90614bfc565b80601f0160208091040260200160405190810160405280929190818152602001828054610a9990614bfc565b8015610ae65780601f10610abb57610100808354040283529160200191610ae6565b820191906000526020600020905b815481529060010190602001808311610ac957829003601f168201915b50505050508152602001600182018054610aff90614bfc565b80601f0160208091040260200160405190810160405280929190818152602001828054610b2b90614bfc565b8015610b785780601f10610b4d57610100808354040283529160200191610b78565b820191906000526020600020905b815481529060010190602001808311610b5b57829003601f168201915b50505050508152602001600282018054610b9190614bfc565b80601f0160208091040260200160405190810160405280929190818152602001828054610bbd90614bfc565b8015610c0a5780601f10610bdf57610100808354040283529160200191610c0a565b820191906000526020600020905b815481529060010190602001808311610bed57829003601f168201915b50505050508152505081526020019060010190610a3a565b505050509050919050565b610c3e610c38612e68565b82612f29565b610c7d576040517f08c379a0000000000000000000000000000000000000000000000000000000008152600401610c7490614dc3565b60405180910390fd5b610c88838383612fbe565b505050565b606060086000838152602001908152602001600020600301805480602002602001604051908101604052809291908181526020016000905b82821015610e1b5783829060005260206000209060020201604051806040016040529081600082018054610cf890614bfc565b80601f0160208091040260200160405190810160405280929190818152602001828054610d2490614bfc565b8015610d715780601f10610d4657610100808354040283529160200191610d71565b820191906000526020600020905b815481529060010190602001808311610d5457829003601f168201915b50505050508152602001600182018054610d8a90614bfc565b80601f0160208091040260200160405190810160405280929190818152602001828054610db690614bfc565b8015610e035780601f10610dd857610100808354040283529160200191610e03565b820191906000526020600020905b815481529060010190602001808311610de657829003601f168201915b50505050508152505081526020019060010190610cc5565b505050509050919050565b610e2e6132b7565b6000610e3a6007613335565b9050610e466007613343565b610e508282613359565b5050565b610e6f8383836040518060200160405280600081525061125e565b505050565b600080610e8083613377565b9050600073ffffffffffffffffffffffffffffffffffffffff168173ffffffffffffffffffffffffffffffffffffffff1603610ef1576040517f08c379a0000000000000000000000000000000000000000000000000000000008152600401610ee890614e2f565b60405180910390fd5b80915050919050565b60008073ffffffffffffffffffffffffffffffffffffffff168273ffffffffffffffffffffffffffffffffffffffff1603610f6a576040517f08c379a0000000000000000000000000000000000000000000000000000000008152600401610f6190614ec1565b60405180910390fd5b600360008373ffffffffffffffffffffffffffffffffffffffff1673ffffffffffffffffffffffffffffffffffffffff168152602001908152602001600020549050919050565b610fb96132b7565b610fc360006133b4565b565b6008602052806000526040600020600091509050806000015490806001018054610fee90614bfc565b80601f016020809104026020016040519081016040528092919081815260200182805461101a90614bfc565b80156110675780601f1061103c57610100808354040283529160200191611067565b820191906000526020600020905b81548152906001019060200180831161104a57829003601f168201915b50505050509080600201805461107c90614bfc565b80601f01602080910402602001604051908101604052809291908181526020018280546110a890614bfc565b80156110f55780601f106110ca576101008083540402835291602001916110f5565b820191906000526020600020905b8154815290600101906020018083116110d857829003601f168201915b5050505050905083565b6000600660009054906101000a900473ffffffffffffffffffffffffffffffffffffffff16905090565b60606001805461113890614bfc565b80601f016020809104026020016040519081016040528092919081815260200182805461116490614bfc565b80156111b15780601f10611186576101008083540402835291602001916111b1565b820191906000526020600020905b81548152906001019060200180831161119457829003601f168201915b5050505050905090565b6111cd6111c6612e68565b838361347a565b5050565b6000604051806040016040528084815260200183815250905080600960003373ffffffffffffffffffffffffffffffffffffffff1673ffffffffffffffffffffffffffffffffffffffff168152602001908152602001600020600082015181600001908161123f919061508d565b506020820151816001019081611255919061508d565b50905050505050565b61126f611269612e68565b83612f29565b6112ae576040517f08c379a00000000000000000000000000000000000000000000000000000000081526004016112a590614dc3565b60405180910390fd5b6112ba848484846135e6565b50505050565b6112c8613ce9565b600860008381526020019081526020016000206040518060a00160405290816000820154815260200160018201805461130090614bfc565b80601f016020809104026020016040519081016040528092919081815260200182805461132c90614bfc565b80156113795780601f1061134e57610100808354040283529160200191611379565b820191906000526020600020905b81548152906001019060200180831161135c57829003601f168201915b5050505050815260200160028201805461139290614bfc565b80601f01602080910402602001604051908101604052809291908181526020018280546113be90614bfc565b801561140b5780601f106113e05761010080835404028352916020019161140b565b820191906000526020600020905b8154815290600101906020018083116113ee57829003601f168201915b5050505050815260200160038201805480602002602001604051908101604052809291908181526020016000905b8282101561158f578382906000526020600020906002020160405180604001604052908160008201805461146c90614bfc565b80601f016020809104026020016040519081016040528092919081815260200182805461149890614bfc565b80156114e55780601f106114ba576101008083540402835291602001916114e5565b820191906000526020600020905b8154815290600101906020018083116114c857829003601f168201915b505050505081526020016001820180546114fe90614bfc565b80601f016020809104026020016040519081016040528092919081815260200182805461152a90614bfc565b80156115775780601f1061154c57610100808354040283529160200191611577565b820191906000526020600020905b81548152906001019060200180831161155a57829003601f168201915b50505050508152505081526020019060010190611439565b50505050815260200160048201805480602002602001604051908101604052809291908181526020016000905b828210156117a457838290600052602060002090600302016040518060600160405290816000820180546115ef90614bfc565b80601f016020809104026020016040519081016040528092919081815260200182805461161b90614bfc565b80156116685780601f1061163d57610100808354040283529160200191611668565b820191906000526020600020905b81548152906001019060200180831161164b57829003601f168201915b5050505050815260200160018201805461168190614bfc565b80601f01602080910402602001604051908101604052809291908181526020018280546116ad90614bfc565b80156116fa5780601f106116cf576101008083540402835291602001916116fa565b820191906000526020600020905b8154815290600101906020018083116116dd57829003601f168201915b5050505050815260200160028201805461171390614bfc565b80601f016020809104026020016040519081016040528092919081815260200182805461173f90614bfc565b801561178c5780601f106117615761010080835404028352916020019161178c565b820191906000526020600020905b81548152906001019060200180831161176f57829003601f168201915b505050505081525050815260200190600101906115bc565b50505050815250509050919050565b606060006117c16007613335565b67ffffffffffffffff8111156117da576117d961442e565b5b60405190808252806020026020018201604052801561181357816020015b611800613ce9565b8152602001906001900390816117f85790505b50905060005b6118236007613335565b811015611d3f57600860008281526020019081526020016000206040518060a00160405290816000820154815260200160018201805461186290614bfc565b80601f016020809104026020016040519081016040528092919081815260200182805461188e90614bfc565b80156118db5780601f106118b0576101008083540402835291602001916118db565b820191906000526020600020905b8154815290600101906020018083116118be57829003601f168201915b505050505081526020016002820180546118f490614bfc565b80601f016020809104026020016040519081016040528092919081815260200182805461192090614bfc565b801561196d5780601f106119425761010080835404028352916020019161196d565b820191906000526020600020905b81548152906001019060200180831161195057829003601f168201915b5050505050815260200160038201805480602002602001604051908101604052809291908181526020016000905b82821015611af157838290600052602060002090600202016040518060400160405290816000820180546119ce90614bfc565b80601f01602080910402602001604051908101604052809291908181526020018280546119fa90614bfc565b8015611a475780601f10611a1c57610100808354040283529160200191611a47565b820191906000526020600020905b815481529060010190602001808311611a2a57829003601f168201915b50505050508152602001600182018054611a6090614bfc565b80601f0160208091040260200160405190810160405280929190818152602001828054611a8c90614bfc565b8015611ad95780601f10611aae57610100808354040283529160200191611ad9565b820191906000526020600020905b815481529060010190602001808311611abc57829003601f168201915b5050505050815250508152602001906001019061199b565b50505050815260200160048201805480602002602001604051908101604052809291908181526020016000905b82821015611d065783829060005260206000209060030201604051806060016040529081600082018054611b5190614bfc565b80601f0160208091040260200160405190810160405280929190818152602001828054611b7d90614bfc565b8015611bca5780601f10611b9f57610100808354040283529160200191611bca565b820191906000526020600020905b815481529060010190602001808311611bad57829003601f168201915b50505050508152602001600182018054611be390614bfc565b80601f0160208091040260200160405190810160405280929190818152602001828054611c0f90614bfc565b8015611c5c5780601f10611c3157610100808354040283529160200191611c5c565b820191906000526020600020905b815481529060010190602001808311611c3f57829003601f168201915b50505050508152602001600282018054611c7590614bfc565b80601f0160208091040260200160405190810160405280929190818152602001828054611ca190614bfc565b8015611cee5780601f10611cc357610100808354040283529160200191611cee565b820191906000526020600020905b815481529060010190602001808311611cd157829003601f168201915b50505050508152505081526020019060010190611b1e565b5050505081525050828281518110611d2157611d2061515f565b5b60200260200101819052508080611d37906151bd565b915050611819565b508091505090565b6060611d5282612e1d565b6000611d5c613642565b90506000815111611d7c5760405180602001604052806000815250611da7565b80611d8684613659565b604051602001611d97929190615241565b6040516020818303038152906040525b915050919050565b6000600960003373ffffffffffffffffffffffffffffffffffffffff1673ffffffffffffffffffffffffffffffffffffffff1681526020019081526020016000206000018054611dfe90614bfc565b905003611e40576040517f08c379a0000000000000000000000000000000000000000000000000000000008152600401611e37906152b1565b60405180910390fd5b6000611e4c6007613335565b9050611e586007613343565b600060086000838152602001908152602001600020905081816000018190555083816001019081611e89919061508d565b5082816002019081611e9b919061508d565b506000611ea733612c36565b6000015190506000611eb833612c36565b6020015190508260030160405180604001604052808481526020018381525090806001815401808255809150506001900390600052602060002090600202016000909190919091506000820151816000019081611f15919061508d565b506020820151816001019081611f2b919061508d565b5050508260040160405180606001604052806040518060400160405280600681526020017f637265617465000000000000000000000000000000000000000000000000000081525081526020016040518060400160405280600681526020017f637265617465000000000000000000000000000000000000000000000000000081525081526020016040518060400160405280600681526020017f63726561746500000000000000000000000000000000000000000000000000008152508152509080600181540180825580915050600190039060005260206000209060030201600090919091909150600082015181600001908161202a919061508d565b506020820151816001019081612040919061508d565b506040820151816002019081612056919061508d565b5050506120633385613359565b505050505050565b606060006120796007613335565b67ffffffffffffffff8111156120925761209161442e565b5b6040519080825280602002602001820160405280156120cb57816020015b6120b8613ce9565b8152602001906001900390816120b05790505b5090506000805b6120dc6007613335565b811015612642578473ffffffffffffffffffffffffffffffffffffffff1661210382610e74565b73ffffffffffffffffffffffffffffffffffffffff160361262f57600860008281526020019081526020016000206040518060a00160405290816000820154815260200160018201805461215690614bfc565b80601f016020809104026020016040519081016040528092919081815260200182805461218290614bfc565b80156121cf5780601f106121a4576101008083540402835291602001916121cf565b820191906000526020600020905b8154815290600101906020018083116121b257829003601f168201915b505050505081526020016002820180546121e890614bfc565b80601f016020809104026020016040519081016040528092919081815260200182805461221490614bfc565b80156122615780601f1061223657610100808354040283529160200191612261565b820191906000526020600020905b81548152906001019060200180831161224457829003601f168201915b5050505050815260200160038201805480602002602001604051908101604052809291908181526020016000905b828210156123e557838290600052602060002090600202016040518060400160405290816000820180546122c290614bfc565b80601f01602080910402602001604051908101604052809291908181526020018280546122ee90614bfc565b801561233b5780601f106123105761010080835404028352916020019161233b565b820191906000526020600020905b81548152906001019060200180831161231e57829003601f168201915b5050505050815260200160018201805461235490614bfc565b80601f016020809104026020016040519081016040528092919081815260200182805461238090614bfc565b80156123cd5780601f106123a2576101008083540402835291602001916123cd565b820191906000526020600020905b8154815290600101906020018083116123b057829003601f168201915b5050505050815250508152602001906001019061228f565b50505050815260200160048201805480602002602001604051908101604052809291908181526020016000905b828210156125fa578382906000526020600020906003020160405180606001604052908160008201805461244590614bfc565b80601f016020809104026020016040519081016040528092919081815260200182805461247190614bfc565b80156124be5780601f10612493576101008083540402835291602001916124be565b820191906000526020600020905b8154815290600101906020018083116124a157829003601f168201915b505050505081526020016001820180546124d790614bfc565b80601f016020809104026020016040519081016040528092919081815260200182805461250390614bfc565b80156125505780601f1061252557610100808354040283529160200191612550565b820191906000526020600020905b81548152906001019060200180831161253357829003601f168201915b5050505050815260200160028201805461256990614bfc565b80601f016020809104026020016040519081016040528092919081815260200182805461259590614bfc565b80156125e25780601f106125b7576101008083540402835291602001916125e2565b820191906000526020600020905b8154815290600101906020018083116125c557829003601f168201915b50505050508152505081526020019060010190612412565b50505050815250508383815181106126155761261461515f565b5b6020026020010181905250818061262b906151bd565b9250505b808061263a906151bd565b9150506120d2565b5060008167ffffffffffffffff81111561265f5761265e61442e565b5b60405190808252806020026020018201604052801561269857816020015b612685613ce9565b81526020019060019003908161267d5790505b50905060005b828110156126f2578381815181106126b9576126b861515f565b5b60200260200101518282815181106126d4576126d361515f565b5b602002602001018190525080806126ea906151bd565b91505061269e565b50809350505050919050565b6000600960008373ffffffffffffffffffffffffffffffffffffffff1673ffffffffffffffffffffffffffffffffffffffff168152602001908152602001600020600001805461274d90614bfc565b90500361278f576040517f08c379a00000000000000000000000000000000000000000000000000000000081526004016127869061531d565b60405180910390fd5b3373ffffffffffffffffffffffffffffffffffffffff166127af83610e74565b73ffffffffffffffffffffffffffffffffffffffff1614612805576040517f08c379a00000000000000000000000000000000000000000000000000000000081526004016127fc906153af565b60405180910390fd5b600061281082612c36565b600001519050600061282183612c36565b6020015190506008600085815260200190815260200160002060030160405180604001604052808481526020018381525090806001815401808255809150506001900390600052602060002090600202016000909190919091506000820151816000019081612890919061508d565b5060208201518160010190816128a6919061508d565b5050506008600085815260200190815260200160002060040160405180606001604052806040518060400160405280600881526020017f7472616e7366657200000000000000000000000000000000000000000000000081525081526020016040518060400160405280600881526020017f7472616e7366657200000000000000000000000000000000000000000000000081525081526020016040518060400160405280600881526020017f7472616e73666572000000000000000000000000000000000000000000000000815250815250908060018154018082558091505060019003906000526020600020906003020160009091909190915060008201518160000190816129b7919061508d565b5060208201518160010190816129cd919061508d565b5060408201518160020190816129e3919061508d565b5050506129f96129f285610e74565b8486612fbe565b50505050565b3373ffffffffffffffffffffffffffffffffffffffff16612a1f85610e74565b73ffffffffffffffffffffffffffffffffffffffff1614612a75576040517f08c379a0000000000000000000000000000000000000000000000000000000008152600401612a6c906153af565b60405180910390fd5b60006040518060600160405280858152602001848152602001838152509050600860008681526020019081526020016000206004018190806001815401808255809150506001900390600052602060002090600302016000909190919091506000820151816000019081612ae9919061508d565b506020820151816001019081612aff919061508d565b506040820151816002019081612b15919061508d565b5050505050505050565b6000600560008473ffffffffffffffffffffffffffffffffffffffff1673ffffffffffffffffffffffffffffffffffffffff16815260200190815260200160002060008373ffffffffffffffffffffffffffffffffffffffff1673ffffffffffffffffffffffffffffffffffffffff16815260200190815260200160002060009054906101000a900460ff16905092915050565b612bbb6132b7565b600073ffffffffffffffffffffffffffffffffffffffff168173ffffffffffffffffffffffffffffffffffffffff1603612c2a576040517f08c379a0000000000000000000000000000000000000000000000000000000008152600401612c2190615441565b60405180910390fd5b612c33816133b4565b50565b612c3e613d18565b600960008373ffffffffffffffffffffffffffffffffffffffff1673ffffffffffffffffffffffffffffffffffffffff168152602001908152602001600020604051806040016040529081600082018054612c9890614bfc565b80601f0160208091040260200160405190810160405280929190818152602001828054612cc490614bfc565b8015612d115780601f10612ce657610100808354040283529160200191612d11565b820191906000526020600020905b815481529060010190602001808311612cf457829003601f168201915b50505050508152602001600182018054612d2a90614bfc565b80601f0160208091040260200160405190810160405280929190818152602001828054612d5690614bfc565b8015612da35780601f10612d7857610100808354040283529160200191612da3565b820191906000526020600020905b815481529060010190602001808311612d8657829003601f168201915b5050505050815250509050919050565b60007f01ffc9a7000000000000000000000000000000000000000000000000000000007bffffffffffffffffffffffffffffffffffffffffffffffffffffffff1916827bffffffffffffffffffffffffffffffffffffffffffffffffffffffff1916149050919050565b612e2681613727565b612e65576040517f08c379a0000000000000000000000000000000000000000000000000000000008152600401612e5c90614e2f565b60405180910390fd5b50565b600033905090565b816004600083815260200190815260200160002060006101000a81548173ffffffffffffffffffffffffffffffffffffffff021916908373ffffffffffffffffffffffffffffffffffffffff160217905550808273ffffffffffffffffffffffffffffffffffffffff16612ee383610e74565b73ffffffffffffffffffffffffffffffffffffffff167f8c5be1e5ebec7d5bd14f71427d1e84f3dd0314c0f7b2291e5b200ac8c7c3b92560405160405180910390a45050565b600080612f3583610e74565b90508073ffffffffffffffffffffffffffffffffffffffff168473ffffffffffffffffffffffffffffffffffffffff161480612f775750612f768185612b1f565b5b80612fb557508373ffffffffffffffffffffffffffffffffffffffff16612f9d846108a5565b73ffffffffffffffffffffffffffffffffffffffff16145b91505092915050565b8273ffffffffffffffffffffffffffffffffffffffff16612fde82610e74565b73ffffffffffffffffffffffffffffffffffffffff1614613034576040517f08c379a000000000000000000000000000000000000000000000000000000000815260040161302b906154d3565b60405180910390fd5b600073ffffffffffffffffffffffffffffffffffffffff168273ffffffffffffffffffffffffffffffffffffffff16036130a3576040517f08c379a000000000000000000000000000000000000000000000000000000000815260040161309a90615565565b60405180910390fd5b6130b08383836001613768565b8273ffffffffffffffffffffffffffffffffffffffff166130d082610e74565b73ffffffffffffffffffffffffffffffffffffffff1614613126576040517f08c379a000000000000000000000000000000000000000000000000000000000815260040161311d906154d3565b60405180910390fd5b6004600082815260200190815260200160002060006101000a81549073ffffffffffffffffffffffffffffffffffffffff02191690556001600360008573ffffffffffffffffffffffffffffffffffffffff1673ffffffffffffffffffffffffffffffffffffffff168152602001908152602001600020600082825403925050819055506001600360008473ffffffffffffffffffffffffffffffffffffffff1673ffffffffffffffffffffffffffffffffffffffff16815260200190815260200160002060008282540192505081905550816002600083815260200190815260200160002060006101000a81548173ffffffffffffffffffffffffffffffffffffffff021916908373ffffffffffffffffffffffffffffffffffffffff160217905550808273ffffffffffffffffffffffffffffffffffffffff168473ffffffffffffffffffffffffffffffffffffffff167fddf252ad1be2c89b69c2b068fc378daa952ba7f163c4a11628f55a4df523b3ef60405160405180910390a46132b2838383600161376e565b505050565b6132bf612e68565b73ffffffffffffffffffffffffffffffffffffffff166132dd6110ff565b73ffffffffffffffffffffffffffffffffffffffff1614613333576040517f08c379a000000000000000000000000000000000000000000000000000000000815260040161332a906155d1565b60405180910390fd5b565b600081600001549050919050565b6001816000016000828254019250508190555050565b613373828260405180602001604052806000815250613774565b5050565b60006002600083815260200190815260200160002060009054906101000a900473ffffffffffffffffffffffffffffffffffffffff169050919050565b6000600660009054906101000a900473ffffffffffffffffffffffffffffffffffffffff16905081600660006101000a81548173ffffffffffffffffffffffffffffffffffffffff021916908373ffffffffffffffffffffffffffffffffffffffff1602179055508173ffffffffffffffffffffffffffffffffffffffff168173ffffffffffffffffffffffffffffffffffffffff167f8be0079c531659141344cd1fd0a4f28419497f9722a3daafe3b4186f6b6457e060405160405180910390a35050565b8173ffffffffffffffffffffffffffffffffffffffff168373ffffffffffffffffffffffffffffffffffffffff16036134e8576040517f08c379a00000000000000000000000000000000000000000000000000000000081526004016134df9061563d565b60405180910390fd5b80600560008573ffffffffffffffffffffffffffffffffffffffff1673ffffffffffffffffffffffffffffffffffffffff16815260200190815260200160002060008473ffffffffffffffffffffffffffffffffffffffff1673ffffffffffffffffffffffffffffffffffffffff16815260200190815260200160002060006101000a81548160ff0219169083151502179055508173ffffffffffffffffffffffffffffffffffffffff168373ffffffffffffffffffffffffffffffffffffffff167f17307eab39ab6107e8899845ad3d59bd9653f200f220920489ca2b5937696c31836040516135d99190613de6565b60405180910390a3505050565b6135f1848484612fbe565b6135fd848484846137cf565b61363c576040517f08c379a0000000000000000000000000000000000000000000000000000000008152600401613633906156cf565b60405180910390fd5b50505050565b606060405180602001604052806000815250905090565b60606000600161366884613956565b01905060008167ffffffffffffffff8111156136875761368661442e565b5b6040519080825280601f01601f1916602001820160405280156136b95781602001600182028036833780820191505090505b509050600082602001820190505b60011561371c578080600190039150507f3031323334353637383961626364656600000000000000000000000000000000600a86061a8153600a85816137105761370f6156ef565b5b049450600085036136c7575b819350505050919050565b60008073ffffffffffffffffffffffffffffffffffffffff1661374983613377565b73ffffffffffffffffffffffffffffffffffffffff1614159050919050565b50505050565b50505050565b61377e8383613aa9565b61378b60008484846137cf565b6137ca576040517f08c379a00000000000000000000000000000000000000000000000000000000081526004016137c1906156cf565b60405180910390fd5b505050565b60006137f08473ffffffffffffffffffffffffffffffffffffffff16613cc6565b15613949578373ffffffffffffffffffffffffffffffffffffffff1663150b7a02613819612e68565b8786866040518563ffffffff1660e01b815260040161383b9493929190615773565b6020604051808303816000875af192505050801561387757506040513d601f19601f8201168201806040525081019061387491906157d4565b60015b6138f9573d80600081146138a7576040519150601f19603f3d011682016040523d82523d6000602084013e6138ac565b606091505b5060008151036138f1576040517f08c379a00000000000000000000000000000000000000000000000000000000081526004016138e8906156cf565b60405180910390fd5b805181602001fd5b63150b7a0260e01b7bffffffffffffffffffffffffffffffffffffffffffffffffffffffff1916817bffffffffffffffffffffffffffffffffffffffffffffffffffffffff19161491505061394e565b600190505b949350505050565b600080600090507a184f03e93ff9f4daa797ed6e38ed64bf6a1f01000000000000000083106139b4577a184f03e93ff9f4daa797ed6e38ed64bf6a1f01000000000000000083816139aa576139a96156ef565b5b0492506040810190505b6d04ee2d6d415b85acef810000000083106139f1576d04ee2d6d415b85acef810000000083816139e7576139e66156ef565b5b0492506020810190505b662386f26fc100008310613a2057662386f26fc100008381613a1657613a156156ef565b5b0492506010810190505b6305f5e1008310613a49576305f5e1008381613a3f57613a3e6156ef565b5b0492506008810190505b6127108310613a6e576127108381613a6457613a636156ef565b5b0492506004810190505b60648310613a915760648381613a8757613a866156ef565b5b0492506002810190505b600a8310613aa0576001810190505b80915050919050565b600073ffffffffffffffffffffffffffffffffffffffff168273ffffffffffffffffffffffffffffffffffffffff1603613b18576040517f08c379a0000000000000000000000000000000000000000000000000000000008152600401613b0f9061584d565b60405180910390fd5b613b2181613727565b15613b61576040517f08c379a0000000000000000000000000000000000000000000000000000000008152600401613b58906158b9565b60405180910390fd5b613b6f600083836001613768565b613b7881613727565b15613bb8576040517f08c379a0000000000000000000000000000000000000000000000000000000008152600401613baf906158b9565b60405180910390fd5b6001600360008473ffffffffffffffffffffffffffffffffffffffff1673ffffffffffffffffffffffffffffffffffffffff16815260200190815260200160002060008282540192505081905550816002600083815260200190815260200160002060006101000a81548173ffffffffffffffffffffffffffffffffffffffff021916908373ffffffffffffffffffffffffffffffffffffffff160217905550808273ffffffffffffffffffffffffffffffffffffffff16600073ffffffffffffffffffffffffffffffffffffffff167fddf252ad1be2c89b69c2b068fc378daa952ba7f163c4a11628f55a4df523b3ef60405160405180910390a4613cc260008383600161376e565b5050565b6000808273ffffffffffffffffffffffffffffffffffffffff163b119050919050565b6040518060a0016040528060008152602001606081526020016060815260200160608152602001606081525090565b604051806040016040528060608152602001606081525090565b6000604051905090565b600080fd5b600080fd5b60007fffffffff0000000000000000000000000000000000000000000000000000000082169050919050565b613d7b81613d46565b8114613d8657600080fd5b50565b600081359050613d9881613d72565b92915050565b600060208284031215613db457613db3613d3c565b5b6000613dc284828501613d89565b91505092915050565b60008115159050919050565b613de081613dcb565b82525050565b6000602082019050613dfb6000830184613dd7565b92915050565b600073ffffffffffffffffffffffffffffffffffffffff82169050919050565b6000613e2c82613e01565b9050919050565b613e3c81613e21565b8114613e4757600080fd5b50565b600081359050613e5981613e33565b92915050565b600060208284031215613e7557613e74613d3c565b5b6000613e8384828501613e4a565b91505092915050565b600081519050919050565b600082825260208201905092915050565b60005b83811015613ec6578082015181840152602081019050613eab565b60008484015250505050565b6000601f19601f8301169050919050565b6000613eee82613e8c565b613ef88185613e97565b9350613f08818560208601613ea8565b613f1181613ed2565b840191505092915050565b60006040820190508181036000830152613f368185613ee3565b90508181036020830152613f4a8184613ee3565b90509392505050565b60006020820190508181036000830152613f6d8184613ee3565b905092915050565b6000819050919050565b613f8881613f75565b8114613f9357600080fd5b50565b600081359050613fa581613f7f565b92915050565b600060208284031215613fc157613fc0613d3c565b5b6000613fcf84828501613f96565b91505092915050565b613fe181613e21565b82525050565b6000602082019050613ffc6000830184613fd8565b92915050565b6000806040838503121561401957614018613d3c565b5b600061402785828601613e4a565b925050602061403885828601613f96565b9150509250929050565b600081519050919050565b600082825260208201905092915050565b6000819050602082019050919050565b600082825260208201905092915050565b600061408a82613e8c565b614094818561406e565b93506140a4818560208601613ea8565b6140ad81613ed2565b840191505092915050565b600060608301600083015184820360008601526140d5828261407f565b915050602083015184820360208601526140ef828261407f565b91505060408301518482036040860152614109828261407f565b9150508091505092915050565b600061412283836140b8565b905092915050565b6000602082019050919050565b600061414282614042565b61414c818561404d565b93508360208202850161415e8561405e565b8060005b8581101561419a578484038952815161417b8582614116565b94506141868361412a565b925060208a01995050600181019050614162565b50829750879550505050505092915050565b600060208201905081810360008301526141c68184614137565b905092915050565b6000806000606084860312156141e7576141e6613d3c565b5b60006141f586828701613e4a565b935050602061420686828701613e4a565b925050604061421786828701613f96565b9150509250925092565b600081519050919050565b600082825260208201905092915050565b6000819050602082019050919050565b6000604083016000830151848203600086015261426a828261407f565b91505060208301518482036020860152614284828261407f565b9150508091505092915050565b600061429d838361424d565b905092915050565b6000602082019050919050565b60006142bd82614221565b6142c7818561422c565b9350836020820285016142d98561423d565b8060005b8581101561431557848403895281516142f68582614291565b9450614301836142a5565b925060208a019950506001810190506142dd565b50829750879550505050505092915050565b6000602082019050818103600083015261434181846142b2565b905092915050565b61435281613f75565b82525050565b600060208201905061436d6000830184614349565b92915050565b60006060820190506143886000830186614349565b818103602083015261439a8185613ee3565b905081810360408301526143ae8184613ee3565b9050949350505050565b6143c181613dcb565b81146143cc57600080fd5b50565b6000813590506143de816143b8565b92915050565b600080604083850312156143fb576143fa613d3c565b5b600061440985828601613e4a565b925050602061441a858286016143cf565b9150509250929050565b600080fd5b600080fd5b7f4e487b7100000000000000000000000000000000000000000000000000000000600052604160045260246000fd5b61446682613ed2565b810181811067ffffffffffffffff821117156144855761448461442e565b5b80604052505050565b6000614498613d32565b90506144a4828261445d565b919050565b600067ffffffffffffffff8211156144c4576144c361442e565b5b6144cd82613ed2565b9050602081019050919050565b82818337600083830152505050565b60006144fc6144f7846144a9565b61448e565b90508281526020810184848401111561451857614517614429565b5b6145238482856144da565b509392505050565b600082601f8301126145405761453f614424565b5b81356145508482602086016144e9565b91505092915050565b600080604083850312156145705761456f613d3c565b5b600083013567ffffffffffffffff81111561458e5761458d613d41565b5b61459a8582860161452b565b925050602083013567ffffffffffffffff8111156145bb576145ba613d41565b5b6145c78582860161452b565b9150509250929050565b600067ffffffffffffffff8211156145ec576145eb61442e565b5b6145f582613ed2565b9050602081019050919050565b6000614615614610846145d1565b61448e565b90508281526020810184848401111561463157614630614429565b5b61463c8482856144da565b509392505050565b600082601f83011261465957614658614424565b5b8135614669848260208601614602565b91505092915050565b6000806000806080858703121561468c5761468b613d3c565b5b600061469a87828801613e4a565b94505060206146ab87828801613e4a565b93505060406146bc87828801613f96565b925050606085013567ffffffffffffffff8111156146dd576146dc613d41565b5b6146e987828801614644565b91505092959194509250565b6146fe81613f75565b82525050565b600082825260208201905092915050565b600061472082614221565b61472a8185614704565b93508360208202850161473c8561423d565b8060005b8581101561477857848403895281516147598582614291565b9450614764836142a5565b925060208a01995050600181019050614740565b50829750879550505050505092915050565b600082825260208201905092915050565b60006147a682614042565b6147b0818561478a565b9350836020820285016147c28561405e565b8060005b858110156147fe57848403895281516147df8582614116565b94506147ea8361412a565b925060208a019950506001810190506147c6565b50829750879550505050505092915050565b600060a08301600083015161482860008601826146f5565b5060208301518482036020860152614840828261407f565b9150506040830151848203604086015261485a828261407f565b915050606083015184820360608601526148748282614715565b9150506080830151848203608086015261488e828261479b565b9150508091505092915050565b600060208201905081810360008301526148b58184614810565b905092915050565b600081519050919050565b600082825260208201905092915050565b6000819050602082019050919050565b600060a08301600083015161490160008601826146f5565b5060208301518482036020860152614919828261407f565b91505060408301518482036040860152614933828261407f565b9150506060830151848203606086015261494d8282614715565b91505060808301518482036080860152614967828261479b565b9150508091505092915050565b600061498083836148e9565b905092915050565b6000602082019050919050565b60006149a0826148bd565b6149aa81856148c8565b9350836020820285016149bc856148d9565b8060005b858110156149f857848403895281516149d98582614974565b94506149e483614988565b925060208a019950506001810190506149c0565b50829750879550505050505092915050565b60006020820190508181036000830152614a248184614995565b905092915050565b60008060408385031215614a4357614a42613d3c565b5b6000614a5185828601613f96565b9250506020614a6285828601613e4a565b9150509250929050565b60008060008060808587031215614a8657614a85613d3c565b5b6000614a9487828801613f96565b945050602085013567ffffffffffffffff811115614ab557614ab4613d41565b5b614ac18782880161452b565b935050604085013567ffffffffffffffff811115614ae257614ae1613d41565b5b614aee8782880161452b565b925050606085013567ffffffffffffffff811115614b0f57614b0e613d41565b5b614b1b8782880161452b565b91505092959194509250565b60008060408385031215614b3e57614b3d613d3c565b5b6000614b4c85828601613e4a565b9250506020614b5d85828601613e4a565b9150509250929050565b60006040830160008301518482036000860152614b84828261407f565b91505060208301518482036020860152614b9e828261407f565b9150508091505092915050565b60006020820190508181036000830152614bc58184614b67565b905092915050565b7f4e487b7100000000000000000000000000000000000000000000000000000000600052602260045260246000fd5b60006002820490506001821680614c1457607f821691505b602082108103614c2757614c26614bcd565b5b50919050565b7f4552433732313a20617070726f76616c20746f2063757272656e74206f776e6560008201527f7200000000000000000000000000000000000000000000000000000000000000602082015250565b6000614c89602183613e97565b9150614c9482614c2d565b604082019050919050565b60006020820190508181036000830152614cb881614c7c565b9050919050565b7f4552433732313a20617070726f76652063616c6c6572206973206e6f7420746f60008201527f6b656e206f776e6572206f7220617070726f76656420666f7220616c6c000000602082015250565b6000614d1b603d83613e97565b9150614d2682614cbf565b604082019050919050565b60006020820190508181036000830152614d4a81614d0e565b9050919050565b7f4552433732313a2063616c6c6572206973206e6f7420746f6b656e206f776e6560008201527f72206f7220617070726f76656400000000000000000000000000000000000000602082015250565b6000614dad602d83613e97565b9150614db882614d51565b604082019050919050565b60006020820190508181036000830152614ddc81614da0565b9050919050565b7f4552433732313a20696e76616c696420746f6b656e2049440000000000000000600082015250565b6000614e19601883613e97565b9150614e2482614de3565b602082019050919050565b60006020820190508181036000830152614e4881614e0c565b9050919050565b7f4552433732313a2061646472657373207a65726f206973206e6f74206120766160008201527f6c6964206f776e65720000000000000000000000000000000000000000000000602082015250565b6000614eab602983613e97565b9150614eb682614e4f565b604082019050919050565b60006020820190508181036000830152614eda81614e9e565b9050919050565b60008190508160005260206000209050919050565b60006020601f8301049050919050565b600082821b905092915050565b600060088302614f437fffffffffffffffffffffffffffffffffffffffffffffffffffffffffffffffff82614f06565b614f4d8683614f06565b95508019841693508086168417925050509392505050565b6000819050919050565b6000614f8a614f85614f8084613f75565b614f65565b613f75565b9050919050565b6000819050919050565b614fa483614f6f565b614fb8614fb082614f91565b848454614f13565b825550505050565b600090565b614fcd614fc0565b614fd8818484614f9b565b505050565b5b81811015614ffc57614ff1600082614fc5565b600181019050614fde565b5050565b601f8211156150415761501281614ee1565b61501b84614ef6565b8101602085101561502a578190505b61503e61503685614ef6565b830182614fdd565b50505b505050565b600082821c905092915050565b600061506460001984600802615046565b1980831691505092915050565b600061507d8383615053565b9150826002028217905092915050565b61509682613e8c565b67ffffffffffffffff8111156150af576150ae61442e565b5b6150b98254614bfc565b6150c4828285615000565b600060209050601f8311600181146150f757600084156150e5578287015190505b6150ef8582615071565b865550615157565b601f19841661510586614ee1565b60005b8281101561512d57848901518255600182019150602085019450602081019050615108565b8683101561514a5784890151615146601f891682615053565b8355505b6001600288020188555050505b505050505050565b7f4e487b7100000000000000000000000000000000000000000000000000000000600052603260045260246000fd5b7f4e487b7100000000000000000000000000000000000000000000000000000000600052601160045260246000fd5b60006151c882613f75565b91507fffffffffffffffffffffffffffffffffffffffffffffffffffffffffffffffff82036151fa576151f961518e565b5b600182019050919050565b600081905092915050565b600061521b82613e8c565b6152258185615205565b9350615235818560208601613ea8565b80840191505092915050565b600061524d8285615210565b91506152598284615210565b91508190509392505050565b7f596f75206d757374207265676973746572206173206f776e6572206669727374600082015250565b600061529b602083613e97565b91506152a682615265565b602082019050919050565b600060208201905081810360008301526152ca8161528e565b9050919050565b7f4e6577206f776e6572206d757374207265676973746572000000000000000000600082015250565b6000615307601783613e97565b9150615312826152d1565b602082019050919050565b60006020820190508181036000830152615336816152fa565b9050919050565b7f596f7520617265206e6f7420746865206f776e6572206f66207468697320707260008201527f6f64756374000000000000000000000000000000000000000000000000000000602082015250565b6000615399602583613e97565b91506153a48261533d565b604082019050919050565b600060208201905081810360008301526153c88161538c565b9050919050565b7f4f776e61626c653a206e6577206f776e657220697320746865207a65726f206160008201527f6464726573730000000000000000000000000000000000000000000000000000602082015250565b600061542b602683613e97565b9150615436826153cf565b604082019050919050565b6000602082019050818103600083015261545a8161541e565b9050919050565b7f4552433732313a207472616e736665722066726f6d20696e636f72726563742060008201527f6f776e6572000000000000000000000000000000000000000000000000000000602082015250565b60006154bd602583613e97565b91506154c882615461565b604082019050919050565b600060208201905081810360008301526154ec816154b0565b9050919050565b7f4552433732313a207472616e7366657220746f20746865207a65726f2061646460008201527f7265737300000000000000000000000000000000000000000000000000000000602082015250565b600061554f602483613e97565b915061555a826154f3565b604082019050919050565b6000602082019050818103600083015261557e81615542565b9050919050565b7f4f776e61626c653a2063616c6c6572206973206e6f7420746865206f776e6572600082015250565b60006155bb602083613e97565b91506155c682615585565b602082019050919050565b600060208201905081810360008301526155ea816155ae565b9050919050565b7f4552433732313a20617070726f766520746f2063616c6c657200000000000000600082015250565b6000615627601983613e97565b9150615632826155f1565b602082019050919050565b600060208201905081810360008301526156568161561a565b9050919050565b7f4552433732313a207472616e7366657220746f206e6f6e20455243373231526560008201527f63656976657220696d706c656d656e7465720000000000000000000000000000602082015250565b60006156b9603283613e97565b91506156c48261565d565b604082019050919050565b600060208201905081810360008301526156e8816156ac565b9050919050565b7f4e487b7100000000000000000000000000000000000000000000000000000000600052601260045260246000fd5b600081519050919050565b600082825260208201905092915050565b60006157458261571e565b61574f8185615729565b935061575f818560208601613ea8565b61576881613ed2565b840191505092915050565b60006080820190506157886000830187613fd8565b6157956020830186613fd8565b6157a26040830185614349565b81810360608301526157b4818461573a565b905095945050505050565b6000815190506157ce81613d72565b92915050565b6000602082840312156157ea576157e9613d3c565b5b60006157f8848285016157bf565b91505092915050565b7f4552433732313a206d696e7420746f20746865207a65726f2061646472657373600082015250565b6000615837602083613e97565b915061584282615801565b602082019050919050565b600060208201905081810360008301526158668161582a565b9050919050565b7f4552433732313a20746f6b656e20616c7265616479206d696e74656400000000600082015250565b60006158a3601c83613e97565b91506158ae8261586d565b602082019050919050565b600060208201905081810360008301526158d281615896565b905091905056fea264697066735822122009042b3b93e4635219ffc42a892558744aed2dab141eb3e30f7adec078d034e264736f6c63430008110033",
  "linkReferences": {},
  "deployedLinkReferences": {}
}