{
  "_format": "hh-sol-artifact-1",
  "contractName": "FreshFood",
  "sourceName": "contracts/FreshFood.sol",
  "abi": [
    {
      "inputs": [],
      "stateMutability": "nonpayable",
      "type": "constructor"
    },
    {
      "anonymous": false,
      "inputs": [
        {
          "indexed": true,
          "internalType": "address",
          "name": "owner",
          "type": "address"
        },
        {
          "indexed": true,
          "internalType": "address",
          "name": "approved",
          "type": "address"
        },
        {
          "indexed": true,
          "internalType": "uint256",
          "name": "tokenId",
          "type": "uint256"
        }
      ],
      "name": "Approval",
      "type": "event"
    },
    {
      "anonymous": false,
      "inputs": [
        {
          "indexed": true,
          "internalType": "address",
          "name": "owner",
          "type": "address"
        },
        {
          "indexed": true,
          "internalType": "address",
          "name": "operator",
          "type": "address"
        },
        {
          "indexed": false,
          "internalType": "bool",
          "name": "approved",
          "type": "bool"
        }
      ],
      "name": "ApprovalForAll",
      "type": "event"
    },
    {
      "anonymous": false,
      "inputs": [
        {
          "indexed": true,
          "internalType": "address",
          "name": "previousOwner",
          "type": "address"
        },
        {
          "indexed": true,
          "internalType": "address",
          "name": "newOwner",
          "type": "address"
        }
      ],
      "name": "OwnershipTransferred",
      "type": "event"
    },
    {
      "anonymous": false,
      "inputs": [
        {
          "indexed": true,
          "internalType": "address",
          "name": "from",
          "type": "address"
        },
        {
          "indexed": true,
          "internalType": "address",
          "name": "to",
          "type": "address"
        },
        {
          "indexed": true,
          "internalType": "uint256",
          "name": "tokenId",
          "type": "uint256"
        }
      ],
      "name": "Transfer",
      "type": "event"
    },
    {
      "inputs": [
        {
          "internalType": "uint256",
          "name": "_productId",
          "type": "uint256"
        },
        {
          "internalType": "string",
          "name": "_obecjectId",
          "type": "string"
        },
        {
          "internalType": "string",
          "name": "_hash",
          "type": "string"
        },
        {
          "internalType": "string",
          "name": "_location",
          "type": "string"
        }
      ],
      "name": "addLog",
      "outputs": [],
      "stateMutability": "nonpayable",
      "type": "function"
    },
    {
      "inputs": [
        {
          "internalType": "string",
          "name": "_name",
          "type": "string"
        },
        {
          "internalType": "string",
          "name": "_origin",
          "type": "string"
        },
        {
          "internalType": "string",
          "name": "_url",
          "type": "string"
        }
      ],
      "name": "addProduct",
      "outputs": [],
      "stateMutability": "nonpayable",
      "type": "function"
    },
    {
      "inputs": [
        {
          "internalType": "address",
          "name": "to",
          "type": "address"
        },
        {
          "internalType": "uint256",
          "name": "tokenId",
          "type": "uint256"
        }
      ],
      "name": "approve",
      "outputs": [],
      "stateMutability": "nonpayable",
      "type": "function"
    },
    {
      "inputs": [
        {
          "internalType": "address",
          "name": "owner",
          "type": "address"
        }
      ],
      "name": "balanceOf",
      "outputs": [
        {
          "internalType": "uint256",
          "name": "",
          "type": "uint256"
        }
      ],
      "stateMutability": "view",
      "type": "function"
    },
    {
      "inputs": [
        {
          "internalType": "uint256",
          "name": "_productId",
          "type": "uint256"
        }
      ],
      "name": "checkProductVerified",
      "outputs": [
        {
          "internalType": "bool",
          "name": "",
          "type": "bool"
        }
      ],
      "stateMutability": "view",
      "type": "function"
    },
    {
      "inputs": [
        {
          "internalType": "uint256",
          "name": "tokenId",
          "type": "uint256"
        }
      ],
      "name": "getApproved",
      "outputs": [
        {
          "internalType": "address",
          "name": "",
          "type": "address"
        }
      ],
      "stateMutability": "view",
      "type": "function"
    },
    {
      "inputs": [
        {
          "internalType": "uint256",
          "name": "_productId",
          "type": "uint256"
        }
      ],
      "name": "getCurrentOwnerOfProduct",
      "outputs": [
        {
          "components": [
            {
              "internalType": "string",
              "name": "name",
              "type": "string"
            },
            {
              "internalType": "string",
              "name": "description",
              "type": "string"
            }
          ],
          "internalType": "struct Owner",
          "name": "",
          "type": "tuple"
        }
      ],
      "stateMutability": "view",
      "type": "function"
    },
    {
      "inputs": [
        {
          "internalType": "uint256",
          "name": "_productId",
          "type": "uint256"
        }
      ],
      "name": "getLog",
      "outputs": [
        {
          "components": [
            {
              "internalType": "string",
              "name": "objectId",
              "type": "string"
            },
            {
              "internalType": "string",
              "name": "hash",
              "type": "string"
            },
            {
              "internalType": "string",
              "name": "location",
              "type": "string"
            },
            {
              "internalType": "uint256",
              "name": "timestamp",
              "type": "uint256"
            }
          ],
          "internalType": "struct Log[]",
          "name": "",
          "type": "tuple[]"
        }
      ],
      "stateMutability": "view",
      "type": "function"
    },
    {
      "inputs": [],
      "name": "getOwner",
      "outputs": [
        {
          "components": [
            {
              "internalType": "string",
              "name": "name",
              "type": "string"
            },
            {
              "internalType": "string",
              "name": "description",
              "type": "string"
            }
          ],
          "internalType": "struct Owner",
          "name": "",
          "type": "tuple"
        }
      ],
      "stateMutability": "view",
      "type": "function"
    },
    {
      "inputs": [
        {
          "internalType": "address",
          "name": "_ownerAddr",
          "type": "address"
        }
      ],
      "name": "getOwnerByAddress",
      "outputs": [
        {
          "components": [
            {
              "internalType": "string",
              "name": "name",
              "type": "string"
            },
            {
              "internalType": "string",
              "name": "description",
              "type": "string"
            }
          ],
          "internalType": "struct Owner",
          "name": "",
          "type": "tuple"
        }
      ],
      "stateMutability": "view",
      "type": "function"
    },
    {
      "inputs": [
        {
          "internalType": "uint256",
          "name": "_productId",
          "type": "uint256"
        }
      ],
      "name": "getOwnersOfProduct",
      "outputs": [
        {
          "components": [
            {
              "internalType": "string",
              "name": "name",
              "type": "string"
            },
            {
              "internalType": "string",
              "name": "description",
              "type": "string"
            }
          ],
          "internalType": "struct Owner[]",
          "name": "",
          "type": "tuple[]"
        }
      ],
      "stateMutability": "view",
      "type": "function"
    },
    {
      "inputs": [
        {
          "internalType": "uint256",
          "name": "_productId",
          "type": "uint256"
        }
      ],
      "name": "getProduct",
      "outputs": [
        {
          "components": [
            {
              "internalType": "uint256",
              "name": "productId",
              "type": "uint256"
            },
            {
              "internalType": "string",
              "name": "name",
              "type": "string"
            },
            {
              "internalType": "string",
              "name": "origin",
              "type": "string"
            },
            {
              "components": [
                {
                  "internalType": "string",
                  "name": "name",
                  "type": "string"
                },
                {
                  "internalType": "string",
                  "name": "description",
                  "type": "string"
                }
              ],
              "internalType": "struct Owner[]",
              "name": "ownerList",
              "type": "tuple[]"
            },
            {
              "components": [
                {
                  "internalType": "string",
                  "name": "objectId",
                  "type": "string"
                },
                {
                  "internalType": "string",
                  "name": "hash",
                  "type": "string"
                },
                {
                  "internalType": "string",
                  "name": "location",
                  "type": "string"
                },
                {
                  "internalType": "uint256",
                  "name": "timestamp",
                  "type": "uint256"
                }
              ],
              "internalType": "struct Log[]",
              "name": "logList",
              "type": "tuple[]"
            },
            {
              "internalType": "bool",
              "name": "verified",
              "type": "bool"
            },
            {
              "internalType": "string",
              "name": "url",
              "type": "string"
            }
          ],
          "internalType": "struct Product",
          "name": "",
          "type": "tuple"
        }
      ],
      "stateMutability": "view",
      "type": "function"
    },
    {
      "inputs": [
        {
          "internalType": "address",
          "name": "_ownerAddr",
          "type": "address"
        }
      ],
      "name": "getProductByOwner",
      "outputs": [
        {
          "components": [
            {
              "internalType": "uint256",
              "name": "productId",
              "type": "uint256"
            },
            {
              "internalType": "string",
              "name": "name",
              "type": "string"
            },
            {
              "internalType": "string",
              "name": "origin",
              "type": "string"
            },
            {
              "components": [
                {
                  "internalType": "string",
                  "name": "name",
                  "type": "string"
                },
                {
                  "internalType": "string",
                  "name": "description",
                  "type": "string"
                }
              ],
              "internalType": "struct Owner[]",
              "name": "ownerList",
              "type": "tuple[]"
            },
            {
              "components": [
                {
                  "internalType": "string",
                  "name": "objectId",
                  "type": "string"
                },
                {
                  "internalType": "string",
                  "name": "hash",
                  "type": "string"
                },
                {
                  "internalType": "string",
                  "name": "location",
                  "type": "string"
                },
                {
                  "internalType": "uint256",
                  "name": "timestamp",
                  "type": "uint256"
                }
              ],
              "internalType": "struct Log[]",
              "name": "logList",
              "type": "tuple[]"
            },
            {
              "internalType": "bool",
              "name": "verified",
              "type": "bool"
            },
            {
              "internalType": "string",
              "name": "url",
              "type": "string"
            }
          ],
          "internalType": "struct Product[]",
          "name": "",
          "type": "tuple[]"
        }
      ],
      "stateMutability": "view",
      "type": "function"
    },
    {
      "inputs": [],
      "name": "getProducts",
      "outputs": [
        {
          "components": [
            {
              "internalType": "uint256",
              "name": "productId",
              "type": "uint256"
            },
            {
              "internalType": "string",
              "name": "name",
              "type": "string"
            },
            {
              "internalType": "string",
              "name": "origin",
              "type": "string"
            },
            {
              "components": [
                {
                  "internalType": "string",
                  "name": "name",
                  "type": "string"
                },
                {
                  "internalType": "string",
                  "name": "description",
                  "type": "string"
                }
              ],
              "internalType": "struct Owner[]",
              "name": "ownerList",
              "type": "tuple[]"
            },
            {
              "components": [
                {
                  "internalType": "string",
                  "name": "objectId",
                  "type": "string"
                },
                {
                  "internalType": "string",
                  "name": "hash",
                  "type": "string"
                },
                {
                  "internalType": "string",
                  "name": "location",
                  "type": "string"
                },
                {
                  "internalType": "uint256",
                  "name": "timestamp",
                  "type": "uint256"
                }
              ],
              "internalType": "struct Log[]",
              "name": "logList",
              "type": "tuple[]"
            },
            {
              "internalType": "bool",
              "name": "verified",
              "type": "bool"
            },
            {
              "internalType": "string",
              "name": "url",
              "type": "string"
            }
          ],
          "internalType": "struct Product[]",
          "name": "",
          "type": "tuple[]"
        }
      ],
      "stateMutability": "view",
      "type": "function"
    },
    {
      "inputs": [
        {
          "internalType": "address",
          "name": "owner",
          "type": "address"
        },
        {
          "internalType": "address",
          "name": "operator",
          "type": "address"
        }
      ],
      "name": "isApprovedForAll",
      "outputs": [
        {
          "internalType": "bool",
          "name": "",
          "type": "bool"
        }
      ],
      "stateMutability": "view",
      "type": "function"
    },
    {
      "inputs": [],
      "name": "name",
      "outputs": [
        {
          "internalType": "string",
          "name": "",
          "type": "string"
        }
      ],
      "stateMutability": "view",
      "type": "function"
    },
    {
      "inputs": [],
      "name": "owner",
      "outputs": [
        {
          "internalType": "address",
          "name": "",
          "type": "address"
        }
      ],
      "stateMutability": "view",
      "type": "function"
    },
    {
      "inputs": [
        {
          "internalType": "uint256",
          "name": "tokenId",
          "type": "uint256"
        }
      ],
      "name": "ownerOf",
      "outputs": [
        {
          "internalType": "address",
          "name": "",
          "type": "address"
        }
      ],
      "stateMutability": "view",
      "type": "function"
    },
    {
      "inputs": [
        {
          "internalType": "address",
          "name": "",
          "type": "address"
        }
      ],
      "name": "owners",
      "outputs": [
        {
          "internalType": "string",
          "name": "name",
          "type": "string"
        },
        {
          "internalType": "string",
          "name": "description",
          "type": "string"
        }
      ],
      "stateMutability": "view",
      "type": "function"
    },
    {
      "inputs": [
        {
          "internalType": "uint256",
          "name": "",
          "type": "uint256"
        }
      ],
      "name": "products",
      "outputs": [
        {
          "internalType": "uint256",
          "name": "productId",
          "type": "uint256"
        },
        {
          "internalType": "string",
          "name": "name",
          "type": "string"
        },
        {
          "internalType": "string",
          "name": "origin",
          "type": "string"
        },
        {
          "internalType": "bool",
          "name": "verified",
          "type": "bool"
        },
        {
          "internalType": "string",
          "name": "url",
          "type": "string"
        }
      ],
      "stateMutability": "view",
      "type": "function"
    },
    {
      "inputs": [
        {
          "internalType": "string",
          "name": "_name",
          "type": "string"
        },
        {
          "internalType": "string",
          "name": "_description",
          "type": "string"
        }
      ],
      "name": "registerOwner",
      "outputs": [
        {
          "components": [
            {
              "internalType": "string",
              "name": "name",
              "type": "string"
            },
            {
              "internalType": "string",
              "name": "description",
              "type": "string"
            }
          ],
          "internalType": "struct Owner",
          "name": "",
          "type": "tuple"
        }
      ],
      "stateMutability": "nonpayable",
      "type": "function"
    },
    {
      "inputs": [],
      "name": "renounceOwnership",
      "outputs": [],
      "stateMutability": "nonpayable",
      "type": "function"
    },
    {
      "inputs": [
        {
          "internalType": "address",
          "name": "to",
          "type": "address"
        }
      ],
      "name": "safeMint",
      "outputs": [],
      "stateMutability": "nonpayable",
      "type": "function"
    },
    {
      "inputs": [
        {
          "internalType": "address",
          "name": "from",
          "type": "address"
        },
        {
          "internalType": "address",
          "name": "to",
          "type": "address"
        },
        {
          "internalType": "uint256",
          "name": "tokenId",
          "type": "uint256"
        }
      ],
      "name": "safeTransferFrom",
      "outputs": [],
      "stateMutability": "nonpayable",
      "type": "function"
    },
    {
      "inputs": [
        {
          "internalType": "address",
          "name": "from",
          "type": "address"
        },
        {
          "internalType": "address",
          "name": "to",
          "type": "address"
        },
        {
          "internalType": "uint256",
          "name": "tokenId",
          "type": "uint256"
        },
        {
          "internalType": "bytes",
          "name": "data",
          "type": "bytes"
        }
      ],
      "name": "safeTransferFrom",
      "outputs": [],
      "stateMutability": "nonpayable",
      "type": "function"
    },
    {
      "inputs": [
        {
          "internalType": "address",
          "name": "operator",
          "type": "address"
        },
        {
          "internalType": "bool",
          "name": "approved",
          "type": "bool"
        }
      ],
      "name": "setApprovalForAll",
      "outputs": [],
      "stateMutability": "nonpayable",
      "type": "function"
    },
    {
      "inputs": [
        {
          "internalType": "bytes4",
          "name": "interfaceId",
          "type": "bytes4"
        }
      ],
      "name": "supportsInterface",
      "outputs": [
        {
          "internalType": "bool",
          "name": "",
          "type": "bool"
        }
      ],
      "stateMutability": "view",
      "type": "function"
    },
    {
      "inputs": [],
      "name": "symbol",
      "outputs": [
        {
          "internalType": "string",
          "name": "",
          "type": "string"
        }
      ],
      "stateMutability": "view",
      "type": "function"
    },
    {
      "inputs": [
        {
          "internalType": "uint256",
          "name": "tokenId",
          "type": "uint256"
        }
      ],
      "name": "tokenURI",
      "outputs": [
        {
          "internalType": "string",
          "name": "",
          "type": "string"
        }
      ],
      "stateMutability": "view",
      "type": "function"
    },
    {
      "inputs": [
        {
          "internalType": "address",
          "name": "from",
          "type": "address"
        },
        {
          "internalType": "address",
          "name": "to",
          "type": "address"
        },
        {
          "internalType": "uint256",
          "name": "tokenId",
          "type": "uint256"
        }
      ],
      "name": "transferFrom",
      "outputs": [],
      "stateMutability": "nonpayable",
      "type": "function"
    },
    {
      "inputs": [
        {
          "internalType": "address",
          "name": "newOwner",
          "type": "address"
        }
      ],
      "name": "transferOwnership",
      "outputs": [],
      "stateMutability": "nonpayable",
      "type": "function"
    },
    {
      "inputs": [
        {
          "internalType": "uint256",
          "name": "_productId",
          "type": "uint256"
        },
        {
          "internalType": "address",
          "name": "_newOwner",
          "type": "address"
        }
      ],
      "name": "transferProduct",
      "outputs": [],
      "stateMutability": "nonpayable",
      "type": "function"
    },
    {
      "inputs": [
        {
          "internalType": "uint256",
          "name": "_productId",
          "type": "uint256"
        }
      ],
      "name": "verifyProduct",
      "outputs": [],
      "stateMutability": "nonpayable",
      "type": "function"
    }
  ],
  "bytecode": "0x60806040523480156200001157600080fd5b5060405180604001604052806009815260200168119c995cda119bdbd960ba1b8152506040518060400160405280600381526020016223292360e91b81525081600090816200006191906200018e565b5060016200007082826200018e565b5050506200008d620000876200009360201b60201c565b62000097565b6200025a565b3390565b600680546001600160a01b038381166001600160a01b0319831681179093556040519116919082907f8be0079c531659141344cd1fd0a4f28419497f9722a3daafe3b4186f6b6457e090600090a35050565b634e487b7160e01b600052604160045260246000fd5b600181811c908216806200011457607f821691505b6020821081036200013557634e487b7160e01b600052602260045260246000fd5b50919050565b601f8211156200018957600081815260208120601f850160051c81016020861015620001645750805b601f850160051c820191505b81811015620001855782815560010162000170565b5050505b505050565b81516001600160401b03811115620001aa57620001aa620000e9565b620001c281620001bb8454620000ff565b846200013b565b602080601f831160018114620001fa5760008415620001e15750858301515b600019600386901b1c1916600185901b17855562000185565b600085815260208120601f198616915b828110156200022b578886015182559484019460019091019084016200020a565b50858210156200024a5787850151600019600388901b60f8161c191681555b5050505050600190811b01905550565b6144ce806200026a6000396000f3fe608060405234801561001057600080fd5b506004361061020b5760003560e01c80637acc0b201161012a578063b9db15b4116100bd578063e43059e51161008c578063e985e9c511610071578063e985e9c5146104c1578063f2fde38b146104fd578063f8d292341461051057600080fd5b8063e43059e51461049b578063e7ab0731146104ae57600080fd5b8063b9db15b414610440578063c29b2f2014610460578063c87b56dd14610475578063d0d0bf011461048857600080fd5b806395d89b41116100f957806395d89b41146103ff578063a22cb46514610407578063a4fde7c61461041a578063b88d4fde1461042d57600080fd5b80637acc0b20146103af5780637dd4040a146103d3578063893d20e8146103e65780638da5cb5b146103ee57600080fd5b806340d097c3116101a25780636352211e116101715780636352211e146103535780636f4421541461036657806370a0823114610386578063715018a6146103a757600080fd5b806340d097c3146102f457806342842e0e1461030757806345c45b4a1461031a578063524e84621461034057600080fd5b8063095ea7b3116101de578063095ea7b3146102995780630e34b00e146102ae57806323b872dd146102c15780633206b2c6146102d457600080fd5b806301ffc9a714610210578063022914a71461023857806306fdde0314610259578063081812fc1461026e575b600080fd5b61022361021e366004613b3c565b610530565b60405190151581526020015b60405180910390f35b61024b610246366004613b75565b6105cd565b60405161022f929190613be0565b6102616106f9565b60405161022f9190613c0e565b61028161027c366004613c21565b61078b565b6040516001600160a01b03909116815260200161022f565b6102ac6102a7366004613c3a565b6107b2565b005b6102ac6102bc366004613d10565b6108e8565b6102ac6102cf366004613d98565b610b96565b6102e76102e2366004613c21565b610c0d565b60405161022f9190613e72565b6102ac610302366004613b75565b610e42565b6102ac610315366004613d98565b610e73565b610223610328366004613c21565b60009081526008602052604090206005015460ff1690565b6102ac61034e366004613c21565b610e8e565b610281610361366004613c21565b610f1a565b610379610374366004613b75565b610f7f565b60405161022f9190613eb3565b610399610394366004613b75565b6110df565b60405190815260200161022f565b6102ac611179565b6103c26103bd366004613c21565b61118d565b60405161022f959493929190613ec6565b6103796103e1366004613c21565b61135d565b6103796113c9565b6006546001600160a01b0316610281565b61026161151e565b6102ac610415366004613f19565b61152d565b610379610428366004613f55565b611538565b6102ac61043b366004613fb9565b6115f1565b61045361044e366004613c21565b61166f565b60405161022f9190614112565b610468611bc2565b60405161022f9190614125565b610261610483366004613c21565b612233565b610468610496366004613b75565b6122a7565b6102ac6104a9366004614187565b612a32565b6102ac6104bc3660046141b3565b612d3c565b6102236104cf366004614239565b6001600160a01b03918216600090815260056020908152604080832093909416825291909152205460ff1690565b6102ac61050b366004613b75565b612ea1565b61052361051e366004613c21565b612f31565b60405161022f9190614263565b60006001600160e01b031982167f80ac58cd00000000000000000000000000000000000000000000000000000000148061059357506001600160e01b031982167f5b5e139f00000000000000000000000000000000000000000000000000000000145b806105c757507f01ffc9a7000000000000000000000000000000000000000000000000000000006001600160e01b03198316145b92915050565b6009602052600090815260409020805481906105e890614276565b80601f016020809104026020016040519081016040528092919081815260200182805461061490614276565b80156106615780601f1061063657610100808354040283529160200191610661565b820191906000526020600020905b81548152906001019060200180831161064457829003601f168201915b50505050509080600101805461067690614276565b80601f01602080910402602001604051908101604052809291908181526020018280546106a290614276565b80156106ef5780601f106106c4576101008083540402835291602001916106ef565b820191906000526020600020905b8154815290600101906020018083116106d257829003601f168201915b5050505050905082565b60606000805461070890614276565b80601f016020809104026020016040519081016040528092919081815260200182805461073490614276565b80156107815780601f1061075657610100808354040283529160200191610781565b820191906000526020600020905b81548152906001019060200180831161076457829003601f168201915b5050505050905090565b6000610796826130bf565b506000908152600460205260409020546001600160a01b031690565b60006107bd82610f1a565b9050806001600160a01b0316836001600160a01b03160361084b5760405162461bcd60e51b815260206004820152602160248201527f4552433732313a20617070726f76616c20746f2063757272656e74206f776e6560448201527f720000000000000000000000000000000000000000000000000000000000000060648201526084015b60405180910390fd5b336001600160a01b0382161480610867575061086781336104cf565b6108d95760405162461bcd60e51b815260206004820152603d60248201527f4552433732313a20617070726f76652063616c6c6572206973206e6f7420746f60448201527f6b656e206f776e6572206f7220617070726f76656420666f7220616c6c0000006064820152608401610842565b6108e38383613123565b505050565b336000908152600960205260409020805461090290614276565b90506000036109535760405162461bcd60e51b815260206004820181905260248201527f596f75206d757374207265676973746572206173206f776e65722066697273746044820152606401610842565b82511515806109625750815115155b6109d45760405162461bcd60e51b815260206004820152602860248201527f50726f64756374206e616d65206f72206f726967696e206d757374206e6f742060448201527f626520656d7074790000000000000000000000000000000000000000000000006064820152608401610842565b60006109df60075490565b90506109ef600780546001019055565b600081815260086020526040902081815560018101610a0e86826142f8565b5060028101610a1d85826142f8565b5060058101805460ff1916905560068101610a3884826142f8565b506000610a4433610f7f565b5190506000610a5233610f7f565b6020908101516040805180820190915284815280830182905260038601805460018101825560009182529390208151929450909260020201908190610a9790826142f8565b5060208201516001820190610aac90826142f8565b50506040805160c0810182526006608082018181527f637265617465000000000000000000000000000000000000000000000000000060a084018190529083528351808501855282815260208181018390528085019190915284518086018652928352828101919091529282015242606082015260048087018054600181018255600091825293902082519294509202909101908190610b4c90826142f8565b5060208201516001820190610b6190826142f8565b5060408201516002820190610b7690826142f8565b50606082015181600301555050610b8d338561319e565b50505050505050565b610ba033826131b8565b610c025760405162461bcd60e51b815260206004820152602d60248201527f4552433732313a2063616c6c6572206973206e6f7420746f6b656e206f776e6560448201526c1c881bdc88185c1c1c9bdd9959609a1b6064820152608401610842565b6108e3838383613237565b606060086000838152602001908152602001600020600401805480602002602001604051908101604052809291908181526020016000905b82821015610e375783829060005260206000209060040201604051806080016040529081600082018054610c7890614276565b80601f0160208091040260200160405190810160405280929190818152602001828054610ca490614276565b8015610cf15780601f10610cc657610100808354040283529160200191610cf1565b820191906000526020600020905b815481529060010190602001808311610cd457829003601f168201915b50505050508152602001600182018054610d0a90614276565b80601f0160208091040260200160405190810160405280929190818152602001828054610d3690614276565b8015610d835780601f10610d5857610100808354040283529160200191610d83565b820191906000526020600020905b815481529060010190602001808311610d6657829003601f168201915b50505050508152602001600282018054610d9c90614276565b80601f0160208091040260200160405190810160405280929190818152602001828054610dc890614276565b8015610e155780601f10610dea57610100808354040283529160200191610e15565b820191906000526020600020905b815481529060010190602001808311610df857829003601f168201915b5050505050815260200160038201548152505081526020019060010190610c45565b505050509050919050565b610e4a61343d565b6000610e5560075490565b9050610e65600780546001019055565b610e6f828261319e565b5050565b6108e3838383604051806020016040528060008152506115f1565b33610e9882610f1a565b6001600160a01b031614610efc5760405162461bcd60e51b815260206004820152602560248201527f596f7520617265206e6f7420746865206f776e6572206f6620746869732070726044820152641bd91d58dd60da1b6064820152608401610842565b6000908152600860205260409020600501805460ff19166001179055565b6000818152600260205260408120546001600160a01b0316806105c75760405162461bcd60e51b815260206004820152601860248201527f4552433732313a20696e76616c696420746f6b656e20494400000000000000006044820152606401610842565b60408051808201909152606080825260208201526001600160a01b038216600090815260096020526040908190208151808301909252805482908290610fc490614276565b80601f0160208091040260200160405190810160405280929190818152602001828054610ff090614276565b801561103d5780601f106110125761010080835404028352916020019161103d565b820191906000526020600020905b81548152906001019060200180831161102057829003601f168201915b5050505050815260200160018201805461105690614276565b80601f016020809104026020016040519081016040528092919081815260200182805461108290614276565b80156110cf5780601f106110a4576101008083540402835291602001916110cf565b820191906000526020600020905b8154815290600101906020018083116110b257829003601f168201915b5050505050815250509050919050565b60006001600160a01b03821661115d5760405162461bcd60e51b815260206004820152602960248201527f4552433732313a2061646472657373207a65726f206973206e6f74206120766160448201527f6c6964206f776e657200000000000000000000000000000000000000000000006064820152608401610842565b506001600160a01b031660009081526003602052604090205490565b61118161343d565b61118b6000613497565b565b600860205260009081526040902080546001820180549192916111af90614276565b80601f01602080910402602001604051908101604052809291908181526020018280546111db90614276565b80156112285780601f106111fd57610100808354040283529160200191611228565b820191906000526020600020905b81548152906001019060200180831161120b57829003601f168201915b50505050509080600201805461123d90614276565b80601f016020809104026020016040519081016040528092919081815260200182805461126990614276565b80156112b65780601f1061128b576101008083540402835291602001916112b6565b820191906000526020600020905b81548152906001019060200180831161129957829003601f168201915b5050506005840154600685018054949560ff9092169491935091506112da90614276565b80601f016020809104026020016040519081016040528092919081815260200182805461130690614276565b80156113535780601f1061132857610100808354040283529160200191611353565b820191906000526020600020905b81548152906001019060200180831161133657829003601f168201915b5050505050905085565b604080518082019091526060808252602082015260008281526008602052604090206003018054611390906001906143ce565b815481106113a0576113a06143e1565b9060005260206000209060020201604051806040016040529081600082018054610fc490614276565b60408051808201909152606080825260208201523360009081526009602052604090819020815180830190925280548290829061140590614276565b80601f016020809104026020016040519081016040528092919081815260200182805461143190614276565b801561147e5780601f106114535761010080835404028352916020019161147e565b820191906000526020600020905b81548152906001019060200180831161146157829003601f168201915b5050505050815260200160018201805461149790614276565b80601f01602080910402602001604051908101604052809291908181526020018280546114c390614276565b80156115105780601f106114e557610100808354040283529160200191611510565b820191906000526020600020905b8154815290600101906020018083116114f357829003601f168201915b505050505081525050905090565b60606001805461070890614276565b610e6f3383836134f6565b6040805180820190915260608082526020820152825160000361159d5760405162461bcd60e51b815260206004820152601660248201527f4e616d65206d757374206e6f7420626520656d707479000000000000000000006044820152606401610842565b6040805180820182528481526020808201859052336000908152600990915291909120815182919081906115d190826142f8565b50602082015160018201906115e690826142f8565b509195945050505050565b6115fb33836131b8565b61165d5760405162461bcd60e51b815260206004820152602d60248201527f4552433732313a2063616c6c6572206973206e6f7420746f6b656e206f776e6560448201526c1c881bdc88185c1c1c9bdd9959609a1b6064820152608401610842565b611669848484846135c4565b50505050565b6116b16040518060e001604052806000815260200160608152602001606081526020016060815260200160608152602001600015158152602001606081525090565b600860008381526020019081526020016000206040518060e0016040529081600082015481526020016001820180546116e990614276565b80601f016020809104026020016040519081016040528092919081815260200182805461171590614276565b80156117625780601f1061173757610100808354040283529160200191611762565b820191906000526020600020905b81548152906001019060200180831161174557829003601f168201915b5050505050815260200160028201805461177b90614276565b80601f01602080910402602001604051908101604052809291908181526020018280546117a790614276565b80156117f45780601f106117c9576101008083540402835291602001916117f4565b820191906000526020600020905b8154815290600101906020018083116117d757829003601f168201915b5050505050815260200160038201805480602002602001604051908101604052809291908181526020016000905b82821015611978578382906000526020600020906002020160405180604001604052908160008201805461185590614276565b80601f016020809104026020016040519081016040528092919081815260200182805461188190614276565b80156118ce5780601f106118a3576101008083540402835291602001916118ce565b820191906000526020600020905b8154815290600101906020018083116118b157829003601f168201915b505050505081526020016001820180546118e790614276565b80601f016020809104026020016040519081016040528092919081815260200182805461191390614276565b80156119605780601f1061193557610100808354040283529160200191611960565b820191906000526020600020905b81548152906001019060200180831161194357829003601f168201915b50505050508152505081526020019060010190611822565b50505050815260200160048201805480602002602001604051908101604052809291908181526020016000905b82821015611b9757838290600052602060002090600402016040518060800160405290816000820180546119d890614276565b80601f0160208091040260200160405190810160405280929190818152602001828054611a0490614276565b8015611a515780601f10611a2657610100808354040283529160200191611a51565b820191906000526020600020905b815481529060010190602001808311611a3457829003601f168201915b50505050508152602001600182018054611a6a90614276565b80601f0160208091040260200160405190810160405280929190818152602001828054611a9690614276565b8015611ae35780601f10611ab857610100808354040283529160200191611ae3565b820191906000526020600020905b815481529060010190602001808311611ac657829003601f168201915b50505050508152602001600282018054611afc90614276565b80601f0160208091040260200160405190810160405280929190818152602001828054611b2890614276565b8015611b755780601f10611b4a57610100808354040283529160200191611b75565b820191906000526020600020905b815481529060010190602001808311611b5857829003601f168201915b50505050508152602001600382015481525050815260200190600101906119a5565b50505090825250600582015460ff161515602082015260068201805460409092019161105690614276565b60606000611bcf60075490565b67ffffffffffffffff811115611be757611be7613c64565b604051908082528060200260200182016040528015611c5a57816020015b611c476040518060e001604052806000815260200160608152602001606081526020016060815260200160608152602001600015158152602001606081525090565b815260200190600190039081611c055790505b50905060005b60075481101561222d57600860008281526020019081526020016000206040518060e001604052908160008201548152602001600182018054611ca290614276565b80601f0160208091040260200160405190810160405280929190818152602001828054611cce90614276565b8015611d1b5780601f10611cf057610100808354040283529160200191611d1b565b820191906000526020600020905b815481529060010190602001808311611cfe57829003601f168201915b50505050508152602001600282018054611d3490614276565b80601f0160208091040260200160405190810160405280929190818152602001828054611d6090614276565b8015611dad5780601f10611d8257610100808354040283529160200191611dad565b820191906000526020600020905b815481529060010190602001808311611d9057829003601f168201915b5050505050815260200160038201805480602002602001604051908101604052809291908181526020016000905b82821015611f315783829060005260206000209060020201604051806040016040529081600082018054611e0e90614276565b80601f0160208091040260200160405190810160405280929190818152602001828054611e3a90614276565b8015611e875780601f10611e5c57610100808354040283529160200191611e87565b820191906000526020600020905b815481529060010190602001808311611e6a57829003601f168201915b50505050508152602001600182018054611ea090614276565b80601f0160208091040260200160405190810160405280929190818152602001828054611ecc90614276565b8015611f195780601f10611eee57610100808354040283529160200191611f19565b820191906000526020600020905b815481529060010190602001808311611efc57829003601f168201915b50505050508152505081526020019060010190611ddb565b50505050815260200160048201805480602002602001604051908101604052809291908181526020016000905b828210156121505783829060005260206000209060040201604051806080016040529081600082018054611f9190614276565b80601f0160208091040260200160405190810160405280929190818152602001828054611fbd90614276565b801561200a5780601f10611fdf5761010080835404028352916020019161200a565b820191906000526020600020905b815481529060010190602001808311611fed57829003601f168201915b5050505050815260200160018201805461202390614276565b80601f016020809104026020016040519081016040528092919081815260200182805461204f90614276565b801561209c5780601f106120715761010080835404028352916020019161209c565b820191906000526020600020905b81548152906001019060200180831161207f57829003601f168201915b505050505081526020016002820180546120b590614276565b80601f01602080910402602001604051908101604052809291908181526020018280546120e190614276565b801561212e5780601f106121035761010080835404028352916020019161212e565b820191906000526020600020905b81548152906001019060200180831161211157829003601f168201915b5050505050815260200160038201548152505081526020019060010190611f5e565b50505090825250600582015460ff161515602082015260068201805460409092019161217b90614276565b80601f01602080910402602001604051908101604052809291908181526020018280546121a790614276565b80156121f45780601f106121c9576101008083540402835291602001916121f4565b820191906000526020600020905b8154815290600101906020018083116121d757829003601f168201915b50505050508152505082828151811061220f5761220f6143e1565b60200260200101819052508080612225906143f7565b915050611c60565b50919050565b606061223e826130bf565b600061225560408051602081019091526000815290565b9050600081511161227557604051806020016040528060008152506122a0565b8061227f84613642565b604051602001612290929190614410565b6040516020818303038152906040525b9392505050565b606060006122b460075490565b67ffffffffffffffff8111156122cc576122cc613c64565b60405190808252806020026020018201604052801561233f57816020015b61232c6040518060e001604052806000815260200160608152602001606081526020016060815260200160608152602001600015158152602001606081525090565b8152602001906001900390816122ea5790505b5090506000805b60075481101561294257846001600160a01b031661236382610f1a565b6001600160a01b03160361293057600860008281526020019081526020016000206040518060e0016040529081600082015481526020016001820180546123a990614276565b80601f01602080910402602001604051908101604052809291908181526020018280546123d590614276565b80156124225780601f106123f757610100808354040283529160200191612422565b820191906000526020600020905b81548152906001019060200180831161240557829003601f168201915b5050505050815260200160028201805461243b90614276565b80601f016020809104026020016040519081016040528092919081815260200182805461246790614276565b80156124b45780601f10612489576101008083540402835291602001916124b4565b820191906000526020600020905b81548152906001019060200180831161249757829003601f168201915b5050505050815260200160038201805480602002602001604051908101604052809291908181526020016000905b82821015612638578382906000526020600020906002020160405180604001604052908160008201805461251590614276565b80601f016020809104026020016040519081016040528092919081815260200182805461254190614276565b801561258e5780601f106125635761010080835404028352916020019161258e565b820191906000526020600020905b81548152906001019060200180831161257157829003601f168201915b505050505081526020016001820180546125a790614276565b80601f01602080910402602001604051908101604052809291908181526020018280546125d390614276565b80156126205780601f106125f557610100808354040283529160200191612620565b820191906000526020600020905b81548152906001019060200180831161260357829003601f168201915b505050505081525050815260200190600101906124e2565b50505050815260200160048201805480602002602001604051908101604052809291908181526020016000905b82821015612857578382906000526020600020906004020160405180608001604052908160008201805461269890614276565b80601f01602080910402602001604051908101604052809291908181526020018280546126c490614276565b80156127115780601f106126e657610100808354040283529160200191612711565b820191906000526020600020905b8154815290600101906020018083116126f457829003601f168201915b5050505050815260200160018201805461272a90614276565b80601f016020809104026020016040519081016040528092919081815260200182805461275690614276565b80156127a35780601f10612778576101008083540402835291602001916127a3565b820191906000526020600020905b81548152906001019060200180831161278657829003601f168201915b505050505081526020016002820180546127bc90614276565b80601f01602080910402602001604051908101604052809291908181526020018280546127e890614276565b80156128355780601f1061280a57610100808354040283529160200191612835565b820191906000526020600020905b81548152906001019060200180831161281857829003601f168201915b5050505050815260200160038201548152505081526020019060010190612665565b50505090825250600582015460ff161515602082015260068201805460409092019161288290614276565b80601f01602080910402602001604051908101604052809291908181526020018280546128ae90614276565b80156128fb5780601f106128d0576101008083540402835291602001916128fb565b820191906000526020600020905b8154815290600101906020018083116128de57829003601f168201915b505050505081525050838381518110612916576129166143e1565b6020026020010181905250818061292c906143f7565b9250505b8061293a816143f7565b915050612346565b5060008167ffffffffffffffff81111561295e5761295e613c64565b6040519080825280602002602001820160405280156129d157816020015b6129be6040518060e001604052806000815260200160608152602001606081526020016060815260200160608152602001600015158152602001606081525090565b81526020019060019003908161297c5790505b50905060005b82811015612a29578381815181106129f1576129f16143e1565b6020026020010151828281518110612a0b57612a0b6143e1565b60200260200101819052508080612a21906143f7565b9150506129d7565b50949350505050565b6001600160a01b03811660009081526009602052604090208054612a5590614276565b9050600003612aa65760405162461bcd60e51b815260206004820152601760248201527f4e6577206f776e6572206d7573742072656769737465720000000000000000006044820152606401610842565b33612ab083610f1a565b6001600160a01b031614612b145760405162461bcd60e51b815260206004820152602560248201527f596f7520617265206e6f7420746865206f776e6572206f6620746869732070726044820152641bd91d58dd60da1b6064820152608401610842565b336001600160a01b03821603612b6c5760405162461bcd60e51b815260206004820152601960248201527f596f752061726520616c726561647920746865206f776e6572000000000000006044820152606401610842565b60008281526008602052604090206005015460ff1615612bce5760405162461bcd60e51b815260206004820152601860248201527f50726f6475637420616c726561647920766572696669656400000000000000006044820152606401610842565b6000612bd982610f7f565b5190506000612be783610f7f565b602090810151600086815260088352604080822081518083019092528682528185018490526003018054600181018255908352939091208151929450909260020201908190612c3690826142f8565b5060208201516001820190612c4b90826142f8565b5050506000848152600860208181526040808420815160c081018352608081018581527f7472616e7366657200000000000000000000000000000000000000000000000060a0830181905290825283518085018552868152808601829052828601528351808501855295865285850152918201939093524260608201526004928301805460018101825590855291909320835191909202909101908190612cf290826142f8565b5060208201516001820190612d0790826142f8565b5060408201516002820190612d1c90826142f8565b50606082015181600301555050611669612d3585610f1a565b8486613237565b33612d4685610f1a565b6001600160a01b031614612daa5760405162461bcd60e51b815260206004820152602560248201527f596f7520617265206e6f7420746865206f776e6572206f6620746869732070726044820152641bd91d58dd60da1b6064820152608401610842565b60008481526008602052604090206005015460ff1615612e0c5760405162461bcd60e51b815260206004820152601860248201527f50726f6475637420616c726561647920766572696669656400000000000000006044820152606401610842565b6040805160808101825284815260208082018590528183018490524260608301526000878152600882529283206004908101805460018101825590855291909320825192938493920201908190612e6390826142f8565b5060208201516001820190612e7890826142f8565b5060408201516002820190612e8d90826142f8565b506060820151816003015550505050505050565b612ea961343d565b6001600160a01b038116612f255760405162461bcd60e51b815260206004820152602660248201527f4f776e61626c653a206e6577206f776e657220697320746865207a65726f206160448201527f64647265737300000000000000000000000000000000000000000000000000006064820152608401610842565b612f2e81613497565b50565b606060086000838152602001908152602001600020600301805480602002602001604051908101604052809291908181526020016000905b82821015610e375783829060005260206000209060020201604051806040016040529081600082018054612f9c90614276565b80601f0160208091040260200160405190810160405280929190818152602001828054612fc890614276565b80156130155780601f10612fea57610100808354040283529160200191613015565b820191906000526020600020905b815481529060010190602001808311612ff857829003601f168201915b5050505050815260200160018201805461302e90614276565b80601f016020809104026020016040519081016040528092919081815260200182805461305a90614276565b80156130a75780601f1061307c576101008083540402835291602001916130a7565b820191906000526020600020905b81548152906001019060200180831161308a57829003601f168201915b50505050508152505081526020019060010190612f69565b6000818152600260205260409020546001600160a01b0316612f2e5760405162461bcd60e51b815260206004820152601860248201527f4552433732313a20696e76616c696420746f6b656e20494400000000000000006044820152606401610842565b6000818152600460205260409020805473ffffffffffffffffffffffffffffffffffffffff19166001600160a01b038416908117909155819061316582610f1a565b6001600160a01b03167f8c5be1e5ebec7d5bd14f71427d1e84f3dd0314c0f7b2291e5b200ac8c7c3b92560405160405180910390a45050565b610e6f8282604051806020016040528060008152506136e2565b6000806131c483610f1a565b9050806001600160a01b0316846001600160a01b0316148061320b57506001600160a01b0380821660009081526005602090815260408083209388168352929052205460ff165b8061322f5750836001600160a01b03166132248461078b565b6001600160a01b0316145b949350505050565b826001600160a01b031661324a82610f1a565b6001600160a01b0316146132ae5760405162461bcd60e51b815260206004820152602560248201527f4552433732313a207472616e736665722066726f6d20696e636f72726563742060448201526437bbb732b960d91b6064820152608401610842565b6001600160a01b0382166133295760405162461bcd60e51b8152602060048201526024808201527f4552433732313a207472616e7366657220746f20746865207a65726f2061646460448201527f72657373000000000000000000000000000000000000000000000000000000006064820152608401610842565b826001600160a01b031661333c82610f1a565b6001600160a01b0316146133a05760405162461bcd60e51b815260206004820152602560248201527f4552433732313a207472616e736665722066726f6d20696e636f72726563742060448201526437bbb732b960d91b6064820152608401610842565b6000818152600460209081526040808320805473ffffffffffffffffffffffffffffffffffffffff199081169091556001600160a01b0387811680865260038552838620805460001901905590871680865283862080546001019055868652600290945282852080549092168417909155905184937fddf252ad1be2c89b69c2b068fc378daa952ba7f163c4a11628f55a4df523b3ef91a4505050565b6006546001600160a01b0316331461118b5760405162461bcd60e51b815260206004820181905260248201527f4f776e61626c653a2063616c6c6572206973206e6f7420746865206f776e65726044820152606401610842565b600680546001600160a01b0383811673ffffffffffffffffffffffffffffffffffffffff19831681179093556040519116919082907f8be0079c531659141344cd1fd0a4f28419497f9722a3daafe3b4186f6b6457e090600090a35050565b816001600160a01b0316836001600160a01b0316036135575760405162461bcd60e51b815260206004820152601960248201527f4552433732313a20617070726f766520746f2063616c6c6572000000000000006044820152606401610842565b6001600160a01b03838116600081815260056020908152604080832094871680845294825291829020805460ff191686151590811790915591519182527f17307eab39ab6107e8899845ad3d59bd9653f200f220920489ca2b5937696c31910160405180910390a3505050565b6135cf848484613237565b6135db84848484613760565b6116695760405162461bcd60e51b815260206004820152603260248201527f4552433732313a207472616e7366657220746f206e6f6e20455243373231526560448201527131b2b4bb32b91034b6b83632b6b2b73a32b960711b6064820152608401610842565b6060600061364f836138ac565b600101905060008167ffffffffffffffff81111561366f5761366f613c64565b6040519080825280601f01601f191660200182016040528015613699576020820181803683370190505b5090508181016020015b600019017f3031323334353637383961626364656600000000000000000000000000000000600a86061a8153600a85049450846136a357509392505050565b6136ec838361398e565b6136f96000848484613760565b6108e35760405162461bcd60e51b815260206004820152603260248201527f4552433732313a207472616e7366657220746f206e6f6e20455243373231526560448201527131b2b4bb32b91034b6b83632b6b2b73a32b960711b6064820152608401610842565b60006001600160a01b0384163b156138a157604051630a85bd0160e11b81526001600160a01b0385169063150b7a02906137a490339089908890889060040161443f565b6020604051808303816000875af19250505080156137df575060408051601f3d908101601f191682019092526137dc9181019061447b565b60015b613887573d80801561380d576040519150601f19603f3d011682016040523d82523d6000602084013e613812565b606091505b50805160000361387f5760405162461bcd60e51b815260206004820152603260248201527f4552433732313a207472616e7366657220746f206e6f6e20455243373231526560448201527131b2b4bb32b91034b6b83632b6b2b73a32b960711b6064820152608401610842565b805181602001fd5b6001600160e01b031916630a85bd0160e11b14905061322f565b506001949350505050565b6000807a184f03e93ff9f4daa797ed6e38ed64bf6a1f01000000000000000083106138f5577a184f03e93ff9f4daa797ed6e38ed64bf6a1f010000000000000000830492506040015b6d04ee2d6d415b85acef81000000008310613921576d04ee2d6d415b85acef8100000000830492506020015b662386f26fc10000831061393f57662386f26fc10000830492506010015b6305f5e1008310613957576305f5e100830492506008015b612710831061396b57612710830492506004015b6064831061397d576064830492506002015b600a83106105c75760010192915050565b6001600160a01b0382166139e45760405162461bcd60e51b815260206004820181905260248201527f4552433732313a206d696e7420746f20746865207a65726f20616464726573736044820152606401610842565b6000818152600260205260409020546001600160a01b031615613a495760405162461bcd60e51b815260206004820152601c60248201527f4552433732313a20746f6b656e20616c7265616479206d696e746564000000006044820152606401610842565b6000818152600260205260409020546001600160a01b031615613aae5760405162461bcd60e51b815260206004820152601c60248201527f4552433732313a20746f6b656e20616c7265616479206d696e746564000000006044820152606401610842565b6001600160a01b0382166000818152600360209081526040808320805460010190558483526002909152808220805473ffffffffffffffffffffffffffffffffffffffff19168417905551839291907fddf252ad1be2c89b69c2b068fc378daa952ba7f163c4a11628f55a4df523b3ef908290a45050565b6001600160e01b031981168114612f2e57600080fd5b600060208284031215613b4e57600080fd5b81356122a081613b26565b80356001600160a01b0381168114613b7057600080fd5b919050565b600060208284031215613b8757600080fd5b6122a082613b59565b60005b83811015613bab578181015183820152602001613b93565b50506000910152565b60008151808452613bcc816020860160208601613b90565b601f01601f19169290920160200192915050565b604081526000613bf36040830185613bb4565b8281036020840152613c058185613bb4565b95945050505050565b6020815260006122a06020830184613bb4565b600060208284031215613c3357600080fd5b5035919050565b60008060408385031215613c4d57600080fd5b613c5683613b59565b946020939093013593505050565b634e487b7160e01b600052604160045260246000fd5b600067ffffffffffffffff80841115613c9557613c95613c64565b604051601f8501601f19908116603f01168101908282118183101715613cbd57613cbd613c64565b81604052809350858152868686011115613cd657600080fd5b858560208301376000602087830101525050509392505050565b600082601f830112613d0157600080fd5b6122a083833560208501613c7a565b600080600060608486031215613d2557600080fd5b833567ffffffffffffffff80821115613d3d57600080fd5b613d4987838801613cf0565b94506020860135915080821115613d5f57600080fd5b613d6b87838801613cf0565b93506040860135915080821115613d8157600080fd5b50613d8e86828701613cf0565b9150509250925092565b600080600060608486031215613dad57600080fd5b613db684613b59565b9250613dc460208501613b59565b9150604084013590509250925092565b6000815180845260208085019450848260051b860182860160005b85811015613e65578383038952815160808151818652613e1182870182613bb4565b9150508682015185820388870152613e298282613bb4565b91505060408083015186830382880152613e438382613bb4565b6060948501519790940196909652505098850198925090840190600101613def565b5090979650505050505050565b6020815260006122a06020830184613dd4565b6000815160408452613e9a6040850182613bb4565b905060208301518482036020860152613c058282613bb4565b6020815260006122a06020830184613e85565b85815260a060208201526000613edf60a0830187613bb4565b8281036040840152613ef18187613bb4565b905084151560608401528281036080840152613f0d8185613bb4565b98975050505050505050565b60008060408385031215613f2c57600080fd5b613f3583613b59565b915060208301358015158114613f4a57600080fd5b809150509250929050565b60008060408385031215613f6857600080fd5b823567ffffffffffffffff80821115613f8057600080fd5b613f8c86838701613cf0565b93506020850135915080821115613fa257600080fd5b50613faf85828601613cf0565b9150509250929050565b60008060008060808587031215613fcf57600080fd5b613fd885613b59565b9350613fe660208601613b59565b925060408501359150606085013567ffffffffffffffff81111561400957600080fd5b8501601f8101871361401a57600080fd5b61402987823560208401613c7a565b91505092959194509250565b600082825180855260208086019550808260051b84010181860160005b84811015613e6557601f1986840301895261406e838351613e85565b98840198925090830190600101614052565b805182526000602082015160e0602085015261409f60e0850182613bb4565b9050604083015184820360408601526140b88282613bb4565b915050606083015184820360608601526140d28282614035565b915050608083015184820360808601526140ec8282613dd4565b91505060a0830151151560a085015260c083015184820360c0860152613c058282613bb4565b6020815260006122a06020830184614080565b6000602080830181845280855180835260408601915060408160051b870101925083870160005b8281101561417a57603f19888603018452614168858351614080565b9450928501929085019060010161414c565b5092979650505050505050565b6000806040838503121561419a57600080fd5b823591506141aa60208401613b59565b90509250929050565b600080600080608085870312156141c957600080fd5b84359350602085013567ffffffffffffffff808211156141e857600080fd5b6141f488838901613cf0565b9450604087013591508082111561420a57600080fd5b61421688838901613cf0565b9350606087013591508082111561422c57600080fd5b5061402987828801613cf0565b6000806040838503121561424c57600080fd5b61425583613b59565b91506141aa60208401613b59565b6020815260006122a06020830184614035565b600181811c9082168061428a57607f821691505b60208210810361222d57634e487b7160e01b600052602260045260246000fd5b601f8211156108e357600081815260208120601f850160051c810160208610156142d15750805b601f850160051c820191505b818110156142f0578281556001016142dd565b505050505050565b815167ffffffffffffffff81111561431257614312613c64565b614326816143208454614276565b846142aa565b602080601f83116001811461435b57600084156143435750858301515b600019600386901b1c1916600185901b1785556142f0565b600085815260208120601f198616915b8281101561438a5788860151825594840194600190910190840161436b565b50858210156143a85787850151600019600388901b60f8161c191681555b5050505050600190811b01905550565b634e487b7160e01b600052601160045260246000fd5b818103818111156105c7576105c76143b8565b634e487b7160e01b600052603260045260246000fd5b600060018201614409576144096143b8565b5060010190565b60008351614422818460208801613b90565b835190830190614436818360208801613b90565b01949350505050565b60006001600160a01b038087168352808616602084015250836040830152608060608301526144716080830184613bb4565b9695505050505050565b60006020828403121561448d57600080fd5b81516122a081613b2656fea2646970667358221220f1f441f0dfdca204878412e285c2eb8f16d9ec55b13bd012d81811f5dcb561b064736f6c63430008110033",
  "linkReferences": {},
  "deployedLinkReferences": {}
}