{
  "_format": "hh-sol-artifact-1",
  "contractName": "FreshFood",
  "sourceName": "contracts/FreshFood.sol",
  "abi": [
    {
      "inputs": [],
      "stateMutability": "nonpayable",
      "type": "constructor"
    },
    {
      "anonymous": false,
      "inputs": [
        {
          "indexed": true,
          "internalType": "address",
          "name": "owner",
          "type": "address"
        },
        {
          "indexed": true,
          "internalType": "address",
          "name": "approved",
          "type": "address"
        },
        {
          "indexed": true,
          "internalType": "uint256",
          "name": "tokenId",
          "type": "uint256"
        }
      ],
      "name": "Approval",
      "type": "event"
    },
    {
      "anonymous": false,
      "inputs": [
        {
          "indexed": true,
          "internalType": "address",
          "name": "owner",
          "type": "address"
        },
        {
          "indexed": true,
          "internalType": "address",
          "name": "operator",
          "type": "address"
        },
        {
          "indexed": false,
          "internalType": "bool",
          "name": "approved",
          "type": "bool"
        }
      ],
      "name": "ApprovalForAll",
      "type": "event"
    },
    {
      "anonymous": false,
      "inputs": [
        {
          "indexed": true,
          "internalType": "address",
          "name": "previousOwner",
          "type": "address"
        },
        {
          "indexed": true,
          "internalType": "address",
          "name": "newOwner",
          "type": "address"
        }
      ],
      "name": "OwnershipTransferred",
      "type": "event"
    },
    {
      "anonymous": false,
      "inputs": [
        {
          "indexed": true,
          "internalType": "address",
          "name": "from",
          "type": "address"
        },
        {
          "indexed": true,
          "internalType": "address",
          "name": "to",
          "type": "address"
        },
        {
          "indexed": true,
          "internalType": "uint256",
          "name": "tokenId",
          "type": "uint256"
        }
      ],
      "name": "Transfer",
      "type": "event"
    },
    {
      "inputs": [
        {
          "internalType": "uint256",
          "name": "_productId",
          "type": "uint256"
        },
        {
          "internalType": "string",
          "name": "_url",
          "type": "string"
        },
        {
          "internalType": "string",
          "name": "_hash",
          "type": "string"
        },
        {
          "internalType": "string",
          "name": "_location",
          "type": "string"
        }
      ],
      "name": "addLog",
      "outputs": [],
      "stateMutability": "nonpayable",
      "type": "function"
    },
    {
      "inputs": [
        {
          "internalType": "string",
          "name": "_name",
          "type": "string"
        },
        {
          "internalType": "string",
          "name": "_origin",
          "type": "string"
        }
      ],
      "name": "addProduct",
      "outputs": [],
      "stateMutability": "nonpayable",
      "type": "function"
    },
    {
      "inputs": [
        {
          "internalType": "address",
          "name": "to",
          "type": "address"
        },
        {
          "internalType": "uint256",
          "name": "tokenId",
          "type": "uint256"
        }
      ],
      "name": "approve",
      "outputs": [],
      "stateMutability": "nonpayable",
      "type": "function"
    },
    {
      "inputs": [
        {
          "internalType": "address",
          "name": "owner",
          "type": "address"
        }
      ],
      "name": "balanceOf",
      "outputs": [
        {
          "internalType": "uint256",
          "name": "",
          "type": "uint256"
        }
      ],
      "stateMutability": "view",
      "type": "function"
    },
    {
      "inputs": [
        {
          "internalType": "uint256",
          "name": "_productId",
          "type": "uint256"
        }
      ],
      "name": "checkProductVerified",
      "outputs": [
        {
          "internalType": "bool",
          "name": "",
          "type": "bool"
        }
      ],
      "stateMutability": "view",
      "type": "function"
    },
    {
      "inputs": [
        {
          "internalType": "uint256",
          "name": "tokenId",
          "type": "uint256"
        }
      ],
      "name": "getApproved",
      "outputs": [
        {
          "internalType": "address",
          "name": "",
          "type": "address"
        }
      ],
      "stateMutability": "view",
      "type": "function"
    },
    {
      "inputs": [
        {
          "internalType": "uint256",
          "name": "_productId",
          "type": "uint256"
        }
      ],
      "name": "getCurrentOwnerOfProduct",
      "outputs": [
        {
          "components": [
            {
              "internalType": "string",
              "name": "name",
              "type": "string"
            },
            {
              "internalType": "string",
              "name": "description",
              "type": "string"
            }
          ],
          "internalType": "struct Owner",
          "name": "",
          "type": "tuple"
        }
      ],
      "stateMutability": "view",
      "type": "function"
    },
    {
      "inputs": [
        {
          "internalType": "uint256",
          "name": "_productId",
          "type": "uint256"
        }
      ],
      "name": "getLogs",
      "outputs": [
        {
          "components": [
            {
              "internalType": "string",
              "name": "objectId",
              "type": "string"
            },
            {
              "internalType": "string",
              "name": "hash",
              "type": "string"
            },
            {
              "internalType": "string",
              "name": "location",
              "type": "string"
            }
          ],
          "internalType": "struct Log[]",
          "name": "",
          "type": "tuple[]"
        }
      ],
      "stateMutability": "view",
      "type": "function"
    },
    {
      "inputs": [],
      "name": "getOwner",
      "outputs": [
        {
          "components": [
            {
              "internalType": "string",
              "name": "name",
              "type": "string"
            },
            {
              "internalType": "string",
              "name": "description",
              "type": "string"
            }
          ],
          "internalType": "struct Owner",
          "name": "",
          "type": "tuple"
        }
      ],
      "stateMutability": "view",
      "type": "function"
    },
    {
      "inputs": [
        {
          "internalType": "address",
          "name": "_ownerAddr",
          "type": "address"
        }
      ],
      "name": "getOwnerByAddress",
      "outputs": [
        {
          "components": [
            {
              "internalType": "string",
              "name": "name",
              "type": "string"
            },
            {
              "internalType": "string",
              "name": "description",
              "type": "string"
            }
          ],
          "internalType": "struct Owner",
          "name": "",
          "type": "tuple"
        }
      ],
      "stateMutability": "view",
      "type": "function"
    },
    {
      "inputs": [
        {
          "internalType": "uint256",
          "name": "_productId",
          "type": "uint256"
        }
      ],
      "name": "getOwnersOfProduct",
      "outputs": [
        {
          "components": [
            {
              "internalType": "string",
              "name": "name",
              "type": "string"
            },
            {
              "internalType": "string",
              "name": "description",
              "type": "string"
            }
          ],
          "internalType": "struct Owner[]",
          "name": "",
          "type": "tuple[]"
        }
      ],
      "stateMutability": "view",
      "type": "function"
    },
    {
      "inputs": [
        {
          "internalType": "uint256",
          "name": "_productId",
          "type": "uint256"
        }
      ],
      "name": "getProduct",
      "outputs": [
        {
          "components": [
            {
              "internalType": "uint256",
              "name": "productId",
              "type": "uint256"
            },
            {
              "internalType": "string",
              "name": "name",
              "type": "string"
            },
            {
              "internalType": "string",
              "name": "origin",
              "type": "string"
            },
            {
              "components": [
                {
                  "internalType": "string",
                  "name": "name",
                  "type": "string"
                },
                {
                  "internalType": "string",
                  "name": "description",
                  "type": "string"
                }
              ],
              "internalType": "struct Owner[]",
              "name": "ownerList",
              "type": "tuple[]"
            },
            {
              "components": [
                {
                  "internalType": "string",
                  "name": "objectId",
                  "type": "string"
                },
                {
                  "internalType": "string",
                  "name": "hash",
                  "type": "string"
                },
                {
                  "internalType": "string",
                  "name": "location",
                  "type": "string"
                }
              ],
              "internalType": "struct Log[]",
              "name": "logList",
              "type": "tuple[]"
            },
            {
              "internalType": "bool",
              "name": "verified",
              "type": "bool"
            }
          ],
          "internalType": "struct Product",
          "name": "",
          "type": "tuple"
        }
      ],
      "stateMutability": "view",
      "type": "function"
    },
    {
      "inputs": [
        {
          "internalType": "address",
          "name": "_ownerAddr",
          "type": "address"
        }
      ],
      "name": "getProductByOwner",
      "outputs": [
        {
          "components": [
            {
              "internalType": "uint256",
              "name": "productId",
              "type": "uint256"
            },
            {
              "internalType": "string",
              "name": "name",
              "type": "string"
            },
            {
              "internalType": "string",
              "name": "origin",
              "type": "string"
            },
            {
              "components": [
                {
                  "internalType": "string",
                  "name": "name",
                  "type": "string"
                },
                {
                  "internalType": "string",
                  "name": "description",
                  "type": "string"
                }
              ],
              "internalType": "struct Owner[]",
              "name": "ownerList",
              "type": "tuple[]"
            },
            {
              "components": [
                {
                  "internalType": "string",
                  "name": "objectId",
                  "type": "string"
                },
                {
                  "internalType": "string",
                  "name": "hash",
                  "type": "string"
                },
                {
                  "internalType": "string",
                  "name": "location",
                  "type": "string"
                }
              ],
              "internalType": "struct Log[]",
              "name": "logList",
              "type": "tuple[]"
            },
            {
              "internalType": "bool",
              "name": "verified",
              "type": "bool"
            }
          ],
          "internalType": "struct Product[]",
          "name": "",
          "type": "tuple[]"
        }
      ],
      "stateMutability": "view",
      "type": "function"
    },
    {
      "inputs": [],
      "name": "getProducts",
      "outputs": [
        {
          "components": [
            {
              "internalType": "uint256",
              "name": "productId",
              "type": "uint256"
            },
            {
              "internalType": "string",
              "name": "name",
              "type": "string"
            },
            {
              "internalType": "string",
              "name": "origin",
              "type": "string"
            },
            {
              "components": [
                {
                  "internalType": "string",
                  "name": "name",
                  "type": "string"
                },
                {
                  "internalType": "string",
                  "name": "description",
                  "type": "string"
                }
              ],
              "internalType": "struct Owner[]",
              "name": "ownerList",
              "type": "tuple[]"
            },
            {
              "components": [
                {
                  "internalType": "string",
                  "name": "objectId",
                  "type": "string"
                },
                {
                  "internalType": "string",
                  "name": "hash",
                  "type": "string"
                },
                {
                  "internalType": "string",
                  "name": "location",
                  "type": "string"
                }
              ],
              "internalType": "struct Log[]",
              "name": "logList",
              "type": "tuple[]"
            },
            {
              "internalType": "bool",
              "name": "verified",
              "type": "bool"
            }
          ],
          "internalType": "struct Product[]",
          "name": "",
          "type": "tuple[]"
        }
      ],
      "stateMutability": "view",
      "type": "function"
    },
    {
      "inputs": [
        {
          "internalType": "address",
          "name": "owner",
          "type": "address"
        },
        {
          "internalType": "address",
          "name": "operator",
          "type": "address"
        }
      ],
      "name": "isApprovedForAll",
      "outputs": [
        {
          "internalType": "bool",
          "name": "",
          "type": "bool"
        }
      ],
      "stateMutability": "view",
      "type": "function"
    },
    {
      "inputs": [],
      "name": "name",
      "outputs": [
        {
          "internalType": "string",
          "name": "",
          "type": "string"
        }
      ],
      "stateMutability": "view",
      "type": "function"
    },
    {
      "inputs": [],
      "name": "owner",
      "outputs": [
        {
          "internalType": "address",
          "name": "",
          "type": "address"
        }
      ],
      "stateMutability": "view",
      "type": "function"
    },
    {
      "inputs": [
        {
          "internalType": "uint256",
          "name": "tokenId",
          "type": "uint256"
        }
      ],
      "name": "ownerOf",
      "outputs": [
        {
          "internalType": "address",
          "name": "",
          "type": "address"
        }
      ],
      "stateMutability": "view",
      "type": "function"
    },
    {
      "inputs": [
        {
          "internalType": "address",
          "name": "",
          "type": "address"
        }
      ],
      "name": "owners",
      "outputs": [
        {
          "internalType": "string",
          "name": "name",
          "type": "string"
        },
        {
          "internalType": "string",
          "name": "description",
          "type": "string"
        }
      ],
      "stateMutability": "view",
      "type": "function"
    },
    {
      "inputs": [
        {
          "internalType": "uint256",
          "name": "",
          "type": "uint256"
        }
      ],
      "name": "products",
      "outputs": [
        {
          "internalType": "uint256",
          "name": "productId",
          "type": "uint256"
        },
        {
          "internalType": "string",
          "name": "name",
          "type": "string"
        },
        {
          "internalType": "string",
          "name": "origin",
          "type": "string"
        },
        {
          "internalType": "bool",
          "name": "verified",
          "type": "bool"
        }
      ],
      "stateMutability": "view",
      "type": "function"
    },
    {
      "inputs": [
        {
          "internalType": "string",
          "name": "_name",
          "type": "string"
        },
        {
          "internalType": "string",
          "name": "_description",
          "type": "string"
        }
      ],
      "name": "registerOwner",
      "outputs": [
        {
          "components": [
            {
              "internalType": "string",
              "name": "name",
              "type": "string"
            },
            {
              "internalType": "string",
              "name": "description",
              "type": "string"
            }
          ],
          "internalType": "struct Owner",
          "name": "",
          "type": "tuple"
        }
      ],
      "stateMutability": "nonpayable",
      "type": "function"
    },
    {
      "inputs": [],
      "name": "renounceOwnership",
      "outputs": [],
      "stateMutability": "nonpayable",
      "type": "function"
    },
    {
      "inputs": [
        {
          "internalType": "address",
          "name": "to",
          "type": "address"
        }
      ],
      "name": "safeMint",
      "outputs": [],
      "stateMutability": "nonpayable",
      "type": "function"
    },
    {
      "inputs": [
        {
          "internalType": "address",
          "name": "from",
          "type": "address"
        },
        {
          "internalType": "address",
          "name": "to",
          "type": "address"
        },
        {
          "internalType": "uint256",
          "name": "tokenId",
          "type": "uint256"
        }
      ],
      "name": "safeTransferFrom",
      "outputs": [],
      "stateMutability": "nonpayable",
      "type": "function"
    },
    {
      "inputs": [
        {
          "internalType": "address",
          "name": "from",
          "type": "address"
        },
        {
          "internalType": "address",
          "name": "to",
          "type": "address"
        },
        {
          "internalType": "uint256",
          "name": "tokenId",
          "type": "uint256"
        },
        {
          "internalType": "bytes",
          "name": "data",
          "type": "bytes"
        }
      ],
      "name": "safeTransferFrom",
      "outputs": [],
      "stateMutability": "nonpayable",
      "type": "function"
    },
    {
      "inputs": [
        {
          "internalType": "address",
          "name": "operator",
          "type": "address"
        },
        {
          "internalType": "bool",
          "name": "approved",
          "type": "bool"
        }
      ],
      "name": "setApprovalForAll",
      "outputs": [],
      "stateMutability": "nonpayable",
      "type": "function"
    },
    {
      "inputs": [
        {
          "internalType": "bytes4",
          "name": "interfaceId",
          "type": "bytes4"
        }
      ],
      "name": "supportsInterface",
      "outputs": [
        {
          "internalType": "bool",
          "name": "",
          "type": "bool"
        }
      ],
      "stateMutability": "view",
      "type": "function"
    },
    {
      "inputs": [],
      "name": "symbol",
      "outputs": [
        {
          "internalType": "string",
          "name": "",
          "type": "string"
        }
      ],
      "stateMutability": "view",
      "type": "function"
    },
    {
      "inputs": [
        {
          "internalType": "uint256",
          "name": "tokenId",
          "type": "uint256"
        }
      ],
      "name": "tokenURI",
      "outputs": [
        {
          "internalType": "string",
          "name": "",
          "type": "string"
        }
      ],
      "stateMutability": "view",
      "type": "function"
    },
    {
      "inputs": [
        {
          "internalType": "address",
          "name": "from",
          "type": "address"
        },
        {
          "internalType": "address",
          "name": "to",
          "type": "address"
        },
        {
          "internalType": "uint256",
          "name": "tokenId",
          "type": "uint256"
        }
      ],
      "name": "transferFrom",
      "outputs": [],
      "stateMutability": "nonpayable",
      "type": "function"
    },
    {
      "inputs": [
        {
          "internalType": "address",
          "name": "newOwner",
          "type": "address"
        }
      ],
      "name": "transferOwnership",
      "outputs": [],
      "stateMutability": "nonpayable",
      "type": "function"
    },
    {
      "inputs": [
        {
          "internalType": "uint256",
          "name": "_productId",
          "type": "uint256"
        },
        {
          "internalType": "address",
          "name": "_newOwner",
          "type": "address"
        }
      ],
      "name": "transferProduct",
      "outputs": [],
      "stateMutability": "nonpayable",
      "type": "function"
    },
    {
      "inputs": [
        {
          "internalType": "uint256",
          "name": "_productId",
          "type": "uint256"
        }
      ],
      "name": "verifyProduct",
      "outputs": [],
      "stateMutability": "nonpayable",
      "type": "function"
    }
  ],
  "bytecode": "0x60806040523480156200001157600080fd5b5060405180604001604052806009815260200168119c995cda119bdbd960ba1b8152506040518060400160405280600381526020016223292360e91b81525081600090816200006191906200018e565b5060016200007082826200018e565b5050506200008d620000876200009360201b60201c565b62000097565b6200025a565b3390565b600680546001600160a01b038381166001600160a01b0319831681179093556040519116919082907f8be0079c531659141344cd1fd0a4f28419497f9722a3daafe3b4186f6b6457e090600090a35050565b634e487b7160e01b600052604160045260246000fd5b600181811c908216806200011457607f821691505b6020821081036200013557634e487b7160e01b600052602260045260246000fd5b50919050565b601f8211156200018957600081815260208120601f850160051c81016020861015620001645750805b601f850160051c820191505b81811015620001855782815560010162000170565b5050505b505050565b81516001600160401b03811115620001aa57620001aa620000e9565b620001c281620001bb8454620000ff565b846200013b565b602080601f831160018114620001fa5760008415620001e15750858301515b600019600386901b1c1916600185901b17855562000185565b600085815260208120601f198616915b828110156200022b578886015182559484019460019091019084016200020a565b50858210156200024a5787850151600019600388901b60f8161c191681555b5050505050600190811b01905550565b6142c5806200026a6000396000f3fe608060405234801561001057600080fd5b506004361061020b5760003560e01c80637dd4040a1161012a578063c29b2f20116100bd578063e43059e51161008c578063e985e9c511610071578063e985e9c5146104c0578063f2fde38b146104fc578063f8d292341461050f57600080fd5b8063e43059e51461049a578063e7ab0731146104ad57600080fd5b8063c29b2f201461044c578063c87b56dd14610461578063ca2efb5514610474578063d0d0bf011461048757600080fd5b8063a22cb465116100f9578063a22cb465146103f3578063a4fde7c614610406578063b88d4fde14610419578063b9db15b41461042c57600080fd5b80637dd4040a146103bf578063893d20e8146103d25780638da5cb5b146103da57806395d89b41146103eb57600080fd5b806342842e0e116101a25780636f442154116101715780636f4421541461035357806370a0823114610373578063715018a6146103945780637acc0b201461039c57600080fd5b806342842e0e146102f457806345c45b4a14610307578063524e84621461032d5780636352211e1461034057600080fd5b8063095ea7b3116101de578063095ea7b3146102995780631124c05a146102ae57806323b872dd146102ce57806340d097c3146102e157600080fd5b806301ffc9a714610210578063022914a71461023857806306fdde0314610259578063081812fc1461026e575b600080fd5b61022361021e366004613965565b61052f565b60405190151581526020015b60405180910390f35b61024b61024636600461399e565b6105cc565b60405161022f929190613a09565b6102616106f8565b60405161022f9190613a37565b61028161027c366004613a4a565b61078a565b6040516001600160a01b03909116815260200161022f565b6102ac6102a7366004613a63565b6107b1565b005b6102c16102bc366004613a4a565b6108e7565b60405161022f9190613a8d565b6102ac6102dc366004613b2e565b610b12565b6102ac6102ef36600461399e565b610b89565b6102ac610302366004613b2e565b610bba565b610223610315366004613a4a565b60009081526008602052604090206005015460ff1690565b6102ac61033b366004613a4a565b610bd5565b61028161034e366004613a4a565b610c61565b61036661036136600461399e565b610cc6565b60405161022f9190613b98565b61038661038136600461399e565b610e26565b60405190815260200161022f565b6102ac610ec0565b6103af6103aa366004613a4a565b610ed4565b60405161022f9493929190613bab565b6103666103cd366004613a4a565b611010565b61036661107c565b6006546001600160a01b0316610281565b6102616111d1565b6102ac610401366004613bea565b6111e0565b610366610414366004613cd2565b6111eb565b6102ac610427366004613d36565b6112a4565b61043f61043a366004613a4a565b611322565b60405161022f9190613f11565b610454611858565b60405161022f9190613f24565b61026161046f366004613a4a565b611e26565b6102ac610482366004613cd2565b611e9a565b61045461049536600461399e565b61214b565b6102ac6104a8366004613f86565b61282c565b6102ac6104bb366004613fb2565b612b23565b6102236104ce366004614038565b6001600160a01b03918216600090815260056020908152604080832093909416825291909152205460ff1690565b6102ac61050a36600461399e565b612cca565b61052261051d366004613a4a565b612d5a565b60405161022f9190614062565b60006001600160e01b031982167f80ac58cd00000000000000000000000000000000000000000000000000000000148061059257506001600160e01b031982167f5b5e139f00000000000000000000000000000000000000000000000000000000145b806105c657507f01ffc9a7000000000000000000000000000000000000000000000000000000006001600160e01b03198316145b92915050565b6009602052600090815260409020805481906105e790614075565b80601f016020809104026020016040519081016040528092919081815260200182805461061390614075565b80156106605780601f1061063557610100808354040283529160200191610660565b820191906000526020600020905b81548152906001019060200180831161064357829003601f168201915b50505050509080600101805461067590614075565b80601f01602080910402602001604051908101604052809291908181526020018280546106a190614075565b80156106ee5780601f106106c3576101008083540402835291602001916106ee565b820191906000526020600020905b8154815290600101906020018083116106d157829003601f168201915b5050505050905082565b60606000805461070790614075565b80601f016020809104026020016040519081016040528092919081815260200182805461073390614075565b80156107805780601f1061075557610100808354040283529160200191610780565b820191906000526020600020905b81548152906001019060200180831161076357829003601f168201915b5050505050905090565b600061079582612ee8565b506000908152600460205260409020546001600160a01b031690565b60006107bc82610c61565b9050806001600160a01b0316836001600160a01b03160361084a5760405162461bcd60e51b815260206004820152602160248201527f4552433732313a20617070726f76616c20746f2063757272656e74206f776e6560448201527f720000000000000000000000000000000000000000000000000000000000000060648201526084015b60405180910390fd5b336001600160a01b0382161480610866575061086681336104ce565b6108d85760405162461bcd60e51b815260206004820152603d60248201527f4552433732313a20617070726f76652063616c6c6572206973206e6f7420746f60448201527f6b656e206f776e6572206f7220617070726f76656420666f7220616c6c0000006064820152608401610841565b6108e28383612f4c565b505050565b606060086000838152602001908152602001600020600401805480602002602001604051908101604052809291908181526020016000905b82821015610b07578382906000526020600020906003020160405180606001604052908160008201805461095290614075565b80601f016020809104026020016040519081016040528092919081815260200182805461097e90614075565b80156109cb5780601f106109a0576101008083540402835291602001916109cb565b820191906000526020600020905b8154815290600101906020018083116109ae57829003601f168201915b505050505081526020016001820180546109e490614075565b80601f0160208091040260200160405190810160405280929190818152602001828054610a1090614075565b8015610a5d5780601f10610a3257610100808354040283529160200191610a5d565b820191906000526020600020905b815481529060010190602001808311610a4057829003601f168201915b50505050508152602001600282018054610a7690614075565b80601f0160208091040260200160405190810160405280929190818152602001828054610aa290614075565b8015610aef5780601f10610ac457610100808354040283529160200191610aef565b820191906000526020600020905b815481529060010190602001808311610ad257829003601f168201915b5050505050815250508152602001906001019061091f565b505050509050919050565b610b1c3382612fc7565b610b7e5760405162461bcd60e51b815260206004820152602d60248201527f4552433732313a2063616c6c6572206973206e6f7420746f6b656e206f776e6560448201526c1c881bdc88185c1c1c9bdd9959609a1b6064820152608401610841565b6108e2838383613046565b610b9161324c565b6000610b9c60075490565b9050610bac600780546001019055565b610bb682826132a6565b5050565b6108e2838383604051806020016040528060008152506112a4565b33610bdf82610c61565b6001600160a01b031614610c435760405162461bcd60e51b815260206004820152602560248201527f596f7520617265206e6f7420746865206f776e6572206f6620746869732070726044820152641bd91d58dd60da1b6064820152608401610841565b6000908152600860205260409020600501805460ff19166001179055565b6000818152600260205260408120546001600160a01b0316806105c65760405162461bcd60e51b815260206004820152601860248201527f4552433732313a20696e76616c696420746f6b656e20494400000000000000006044820152606401610841565b60408051808201909152606080825260208201526001600160a01b038216600090815260096020526040908190208151808301909252805482908290610d0b90614075565b80601f0160208091040260200160405190810160405280929190818152602001828054610d3790614075565b8015610d845780601f10610d5957610100808354040283529160200191610d84565b820191906000526020600020905b815481529060010190602001808311610d6757829003601f168201915b50505050508152602001600182018054610d9d90614075565b80601f0160208091040260200160405190810160405280929190818152602001828054610dc990614075565b8015610e165780601f10610deb57610100808354040283529160200191610e16565b820191906000526020600020905b815481529060010190602001808311610df957829003601f168201915b5050505050815250509050919050565b60006001600160a01b038216610ea45760405162461bcd60e51b815260206004820152602960248201527f4552433732313a2061646472657373207a65726f206973206e6f74206120766160448201527f6c6964206f776e657200000000000000000000000000000000000000000000006064820152608401610841565b506001600160a01b031660009081526003602052604090205490565b610ec861324c565b610ed260006132c0565b565b60086020526000908152604090208054600182018054919291610ef690614075565b80601f0160208091040260200160405190810160405280929190818152602001828054610f2290614075565b8015610f6f5780601f10610f4457610100808354040283529160200191610f6f565b820191906000526020600020905b815481529060010190602001808311610f5257829003601f168201915b505050505090806002018054610f8490614075565b80601f0160208091040260200160405190810160405280929190818152602001828054610fb090614075565b8015610ffd5780601f10610fd257610100808354040283529160200191610ffd565b820191906000526020600020905b815481529060010190602001808311610fe057829003601f168201915b5050506005909301549192505060ff1684565b604080518082019091526060808252602082015260008281526008602052604090206003018054611043906001906140bf565b81548110611053576110536140d2565b9060005260206000209060020201604051806040016040529081600082018054610d0b90614075565b6040805180820190915260608082526020820152336000908152600960205260409081902081518083019092528054829082906110b890614075565b80601f01602080910402602001604051908101604052809291908181526020018280546110e490614075565b80156111315780601f1061110657610100808354040283529160200191611131565b820191906000526020600020905b81548152906001019060200180831161111457829003601f168201915b5050505050815260200160018201805461114a90614075565b80601f016020809104026020016040519081016040528092919081815260200182805461117690614075565b80156111c35780601f10611198576101008083540402835291602001916111c3565b820191906000526020600020905b8154815290600101906020018083116111a657829003601f168201915b505050505081525050905090565b60606001805461070790614075565b610bb633838361331f565b604080518082019091526060808252602082015282516000036112505760405162461bcd60e51b815260206004820152601660248201527f4e616d65206d757374206e6f7420626520656d707479000000000000000000006044820152606401610841565b604080518082018252848152602080820185905233600090815260099091529190912081518291908190611284908261412e565b5060208201516001820190611299908261412e565b509195945050505050565b6112ae3383612fc7565b6113105760405162461bcd60e51b815260206004820152602d60248201527f4552433732313a2063616c6c6572206973206e6f7420746f6b656e206f776e6560448201526c1c881bdc88185c1c1c9bdd9959609a1b6064820152608401610841565b61131c848484846133ed565b50505050565b61135d6040518060c0016040528060008152602001606081526020016060815260200160608152602001606081526020016000151581525090565b600860008381526020019081526020016000206040518060c00160405290816000820154815260200160018201805461139590614075565b80601f01602080910402602001604051908101604052809291908181526020018280546113c190614075565b801561140e5780601f106113e35761010080835404028352916020019161140e565b820191906000526020600020905b8154815290600101906020018083116113f157829003601f168201915b5050505050815260200160028201805461142790614075565b80601f016020809104026020016040519081016040528092919081815260200182805461145390614075565b80156114a05780601f10611475576101008083540402835291602001916114a0565b820191906000526020600020905b81548152906001019060200180831161148357829003601f168201915b5050505050815260200160038201805480602002602001604051908101604052809291908181526020016000905b82821015611624578382906000526020600020906002020160405180604001604052908160008201805461150190614075565b80601f016020809104026020016040519081016040528092919081815260200182805461152d90614075565b801561157a5780601f1061154f5761010080835404028352916020019161157a565b820191906000526020600020905b81548152906001019060200180831161155d57829003601f168201915b5050505050815260200160018201805461159390614075565b80601f01602080910402602001604051908101604052809291908181526020018280546115bf90614075565b801561160c5780601f106115e15761010080835404028352916020019161160c565b820191906000526020600020905b8154815290600101906020018083116115ef57829003601f168201915b505050505081525050815260200190600101906114ce565b50505050815260200160048201805480602002602001604051908101604052809291908181526020016000905b82821015611839578382906000526020600020906003020160405180606001604052908160008201805461168490614075565b80601f01602080910402602001604051908101604052809291908181526020018280546116b090614075565b80156116fd5780601f106116d2576101008083540402835291602001916116fd565b820191906000526020600020905b8154815290600101906020018083116116e057829003601f168201915b5050505050815260200160018201805461171690614075565b80601f016020809104026020016040519081016040528092919081815260200182805461174290614075565b801561178f5780601f106117645761010080835404028352916020019161178f565b820191906000526020600020905b81548152906001019060200180831161177257829003601f168201915b505050505081526020016002820180546117a890614075565b80601f01602080910402602001604051908101604052809291908181526020018280546117d490614075565b80156118215780601f106117f657610100808354040283529160200191611821565b820191906000526020600020905b81548152906001019060200180831161180457829003601f168201915b50505050508152505081526020019060010190611651565b505050908252506005919091015460ff16151560209091015292915050565b6060600061186560075490565b67ffffffffffffffff81111561187d5761187d613c26565b6040519080825280602002602001820160405280156118e957816020015b6118d66040518060c0016040528060008152602001606081526020016060815260200160608152602001606081526020016000151581525090565b81526020019060019003908161189b5790505b50905060005b600754811015611e2057600860008281526020019081526020016000206040518060c00160405290816000820154815260200160018201805461193190614075565b80601f016020809104026020016040519081016040528092919081815260200182805461195d90614075565b80156119aa5780601f1061197f576101008083540402835291602001916119aa565b820191906000526020600020905b81548152906001019060200180831161198d57829003601f168201915b505050505081526020016002820180546119c390614075565b80601f01602080910402602001604051908101604052809291908181526020018280546119ef90614075565b8015611a3c5780601f10611a1157610100808354040283529160200191611a3c565b820191906000526020600020905b815481529060010190602001808311611a1f57829003601f168201915b5050505050815260200160038201805480602002602001604051908101604052809291908181526020016000905b82821015611bc05783829060005260206000209060020201604051806040016040529081600082018054611a9d90614075565b80601f0160208091040260200160405190810160405280929190818152602001828054611ac990614075565b8015611b165780601f10611aeb57610100808354040283529160200191611b16565b820191906000526020600020905b815481529060010190602001808311611af957829003601f168201915b50505050508152602001600182018054611b2f90614075565b80601f0160208091040260200160405190810160405280929190818152602001828054611b5b90614075565b8015611ba85780601f10611b7d57610100808354040283529160200191611ba8565b820191906000526020600020905b815481529060010190602001808311611b8b57829003601f168201915b50505050508152505081526020019060010190611a6a565b50505050815260200160048201805480602002602001604051908101604052809291908181526020016000905b82821015611dd55783829060005260206000209060030201604051806060016040529081600082018054611c2090614075565b80601f0160208091040260200160405190810160405280929190818152602001828054611c4c90614075565b8015611c995780601f10611c6e57610100808354040283529160200191611c99565b820191906000526020600020905b815481529060010190602001808311611c7c57829003601f168201915b50505050508152602001600182018054611cb290614075565b80601f0160208091040260200160405190810160405280929190818152602001828054611cde90614075565b8015611d2b5780601f10611d0057610100808354040283529160200191611d2b565b820191906000526020600020905b815481529060010190602001808311611d0e57829003601f168201915b50505050508152602001600282018054611d4490614075565b80601f0160208091040260200160405190810160405280929190818152602001828054611d7090614075565b8015611dbd5780601f10611d9257610100808354040283529160200191611dbd565b820191906000526020600020905b815481529060010190602001808311611da057829003601f168201915b50505050508152505081526020019060010190611bed565b505050908252506005919091015460ff1615156020909101528251839083908110611e0257611e026140d2565b60200260200101819052508080611e18906141ee565b9150506118ef565b50919050565b6060611e3182612ee8565b6000611e4860408051602081019091526000815290565b90506000815111611e685760405180602001604052806000815250611e93565b80611e728461346b565b604051602001611e83929190614207565b6040516020818303038152906040525b9392505050565b3360009081526009602052604090208054611eb490614075565b9050600003611f055760405162461bcd60e51b815260206004820181905260248201527f596f75206d757374207265676973746572206173206f776e65722066697273746044820152606401610841565b8151600003611f565760405162461bcd60e51b815260206004820152601e60248201527f50726f64756374206e616d65206d757374206e6f7420626520656d70747900006044820152606401610841565b8051600003611fa75760405162461bcd60e51b815260206004820181905260248201527f50726f64756374206f726967696e206d757374206e6f7420626520656d7074796044820152606401610841565b6000611fb260075490565b9050611fc2600780546001019055565b600081815260086020526040902081815560018101611fe1858261412e565b5060028101611ff0848261412e565b5060058101805460ff19169055600061200833610cc6565b519050600061201633610cc6565b602090810151604080518082019091528481528083018290526003860180546001810182556000918252939020815192945090926002020190819061205b908261412e565b5060208201516001820190612070908261412e565b50506040805160a0810182526006606082018181527f6372656174650000000000000000000000000000000000000000000000000000608084018190529083528351808501855282815260208181018390528085019190915284518086018652928352828101919091529282015260048601805460018101825560009182529290208151919350600390920290910190819061210c908261412e565b5060208201516001820190612121908261412e565b5060408201516002820190612136908261412e565b50505061214333856132a6565b505050505050565b6060600061215860075490565b67ffffffffffffffff81111561217057612170613c26565b6040519080825280602002602001820160405280156121dc57816020015b6121c96040518060c0016040528060008152602001606081526020016060815260200160608152602001606081526020016000151581525090565b81526020019060019003908161218e5790505b5090506000805b60075481101561274357846001600160a01b031661220082610c61565b6001600160a01b03160361273157600860008281526020019081526020016000206040518060c00160405290816000820154815260200160018201805461224690614075565b80601f016020809104026020016040519081016040528092919081815260200182805461227290614075565b80156122bf5780601f10612294576101008083540402835291602001916122bf565b820191906000526020600020905b8154815290600101906020018083116122a257829003601f168201915b505050505081526020016002820180546122d890614075565b80601f016020809104026020016040519081016040528092919081815260200182805461230490614075565b80156123515780601f1061232657610100808354040283529160200191612351565b820191906000526020600020905b81548152906001019060200180831161233457829003601f168201915b5050505050815260200160038201805480602002602001604051908101604052809291908181526020016000905b828210156124d557838290600052602060002090600202016040518060400160405290816000820180546123b290614075565b80601f01602080910402602001604051908101604052809291908181526020018280546123de90614075565b801561242b5780601f106124005761010080835404028352916020019161242b565b820191906000526020600020905b81548152906001019060200180831161240e57829003601f168201915b5050505050815260200160018201805461244490614075565b80601f016020809104026020016040519081016040528092919081815260200182805461247090614075565b80156124bd5780601f10612492576101008083540402835291602001916124bd565b820191906000526020600020905b8154815290600101906020018083116124a057829003601f168201915b5050505050815250508152602001906001019061237f565b50505050815260200160048201805480602002602001604051908101604052809291908181526020016000905b828210156126ea578382906000526020600020906003020160405180606001604052908160008201805461253590614075565b80601f016020809104026020016040519081016040528092919081815260200182805461256190614075565b80156125ae5780601f10612583576101008083540402835291602001916125ae565b820191906000526020600020905b81548152906001019060200180831161259157829003601f168201915b505050505081526020016001820180546125c790614075565b80601f01602080910402602001604051908101604052809291908181526020018280546125f390614075565b80156126405780601f1061261557610100808354040283529160200191612640565b820191906000526020600020905b81548152906001019060200180831161262357829003601f168201915b5050505050815260200160028201805461265990614075565b80601f016020809104026020016040519081016040528092919081815260200182805461268590614075565b80156126d25780601f106126a7576101008083540402835291602001916126d2565b820191906000526020600020905b8154815290600101906020018083116126b557829003601f168201915b50505050508152505081526020019060010190612502565b505050908252506005919091015460ff1615156020909101528351849084908110612717576127176140d2565b6020026020010181905250818061272d906141ee565b9250505b8061273b816141ee565b9150506121e3565b5060008167ffffffffffffffff81111561275f5761275f613c26565b6040519080825280602002602001820160405280156127cb57816020015b6127b86040518060c0016040528060008152602001606081526020016060815260200160608152602001606081526020016000151581525090565b81526020019060019003908161277d5790505b50905060005b82811015612823578381815181106127eb576127eb6140d2565b6020026020010151828281518110612805576128056140d2565b6020026020010181905250808061281b906141ee565b9150506127d1565b50949350505050565b6001600160a01b0381166000908152600960205260409020805461284f90614075565b90506000036128a05760405162461bcd60e51b815260206004820152601760248201527f4e6577206f776e6572206d7573742072656769737465720000000000000000006044820152606401610841565b336128aa83610c61565b6001600160a01b03161461290e5760405162461bcd60e51b815260206004820152602560248201527f596f7520617265206e6f7420746865206f776e6572206f6620746869732070726044820152641bd91d58dd60da1b6064820152608401610841565b336001600160a01b038216036129665760405162461bcd60e51b815260206004820152601960248201527f596f752061726520616c726561647920746865206f776e6572000000000000006044820152606401610841565b60008281526008602052604090206005015460ff16156129c85760405162461bcd60e51b815260206004820152601860248201527f50726f6475637420616c726561647920766572696669656400000000000000006044820152606401610841565b60006129d382610cc6565b51905060006129e183610cc6565b602090810151600086815260088352604080822081518083019092528682528185018490526003018054600181018255908352939091208151929450909260020201908190612a30908261412e565b5060208201516001820190612a45908261412e565b5050506000848152600860208181526040808420815160a081018352606081018581527f7472616e736665720000000000000000000000000000000000000000000000006080830181905290825283518085018552868152808601829052828601528351808501855295865285850152918201939093526004909201805460018101825590845292208151919260030201908190612ae3908261412e565b5060208201516001820190612af8908261412e565b5060408201516002820190612b0d908261412e565b50505061131c612b1c85610c61565b8486613046565b33612b2d85610c61565b6001600160a01b031614612b915760405162461bcd60e51b815260206004820152602560248201527f596f7520617265206e6f7420746865206f776e6572206f6620746869732070726044820152641bd91d58dd60da1b6064820152608401610841565b60008481526008602052604090206005015460ff1615612bf35760405162461bcd60e51b815260206004820152601860248201527f50726f6475637420616c726561647920766572696669656400000000000000006044820152606401610841565b8251600003612c445760405162461bcd60e51b815260206004820152601560248201527f55524c206d757374206e6f7420626520656d70747900000000000000000000006044820152606401610841565b604080516060810182528481526020808201859052818301849052600087815260088252928320600401805460018101825590845292208151919283926003909102909101908190612c96908261412e565b5060208201516001820190612cab908261412e565b5060408201516002820190612cc0908261412e565b5050505050505050565b612cd261324c565b6001600160a01b038116612d4e5760405162461bcd60e51b815260206004820152602660248201527f4f776e61626c653a206e6577206f776e657220697320746865207a65726f206160448201527f64647265737300000000000000000000000000000000000000000000000000006064820152608401610841565b612d57816132c0565b50565b606060086000838152602001908152602001600020600301805480602002602001604051908101604052809291908181526020016000905b82821015610b075783829060005260206000209060020201604051806040016040529081600082018054612dc590614075565b80601f0160208091040260200160405190810160405280929190818152602001828054612df190614075565b8015612e3e5780601f10612e1357610100808354040283529160200191612e3e565b820191906000526020600020905b815481529060010190602001808311612e2157829003601f168201915b50505050508152602001600182018054612e5790614075565b80601f0160208091040260200160405190810160405280929190818152602001828054612e8390614075565b8015612ed05780601f10612ea557610100808354040283529160200191612ed0565b820191906000526020600020905b815481529060010190602001808311612eb357829003601f168201915b50505050508152505081526020019060010190612d92565b6000818152600260205260409020546001600160a01b0316612d575760405162461bcd60e51b815260206004820152601860248201527f4552433732313a20696e76616c696420746f6b656e20494400000000000000006044820152606401610841565b6000818152600460205260409020805473ffffffffffffffffffffffffffffffffffffffff19166001600160a01b0384169081179091558190612f8e82610c61565b6001600160a01b03167f8c5be1e5ebec7d5bd14f71427d1e84f3dd0314c0f7b2291e5b200ac8c7c3b92560405160405180910390a45050565b600080612fd383610c61565b9050806001600160a01b0316846001600160a01b0316148061301a57506001600160a01b0380821660009081526005602090815260408083209388168352929052205460ff165b8061303e5750836001600160a01b03166130338461078a565b6001600160a01b0316145b949350505050565b826001600160a01b031661305982610c61565b6001600160a01b0316146130bd5760405162461bcd60e51b815260206004820152602560248201527f4552433732313a207472616e736665722066726f6d20696e636f72726563742060448201526437bbb732b960d91b6064820152608401610841565b6001600160a01b0382166131385760405162461bcd60e51b8152602060048201526024808201527f4552433732313a207472616e7366657220746f20746865207a65726f2061646460448201527f72657373000000000000000000000000000000000000000000000000000000006064820152608401610841565b826001600160a01b031661314b82610c61565b6001600160a01b0316146131af5760405162461bcd60e51b815260206004820152602560248201527f4552433732313a207472616e736665722066726f6d20696e636f72726563742060448201526437bbb732b960d91b6064820152608401610841565b6000818152600460209081526040808320805473ffffffffffffffffffffffffffffffffffffffff199081169091556001600160a01b0387811680865260038552838620805460001901905590871680865283862080546001019055868652600290945282852080549092168417909155905184937fddf252ad1be2c89b69c2b068fc378daa952ba7f163c4a11628f55a4df523b3ef91a4505050565b6006546001600160a01b03163314610ed25760405162461bcd60e51b815260206004820181905260248201527f4f776e61626c653a2063616c6c6572206973206e6f7420746865206f776e65726044820152606401610841565b610bb682826040518060200160405280600081525061350b565b600680546001600160a01b0383811673ffffffffffffffffffffffffffffffffffffffff19831681179093556040519116919082907f8be0079c531659141344cd1fd0a4f28419497f9722a3daafe3b4186f6b6457e090600090a35050565b816001600160a01b0316836001600160a01b0316036133805760405162461bcd60e51b815260206004820152601960248201527f4552433732313a20617070726f766520746f2063616c6c6572000000000000006044820152606401610841565b6001600160a01b03838116600081815260056020908152604080832094871680845294825291829020805460ff191686151590811790915591519182527f17307eab39ab6107e8899845ad3d59bd9653f200f220920489ca2b5937696c31910160405180910390a3505050565b6133f8848484613046565b61340484848484613589565b61131c5760405162461bcd60e51b815260206004820152603260248201527f4552433732313a207472616e7366657220746f206e6f6e20455243373231526560448201527131b2b4bb32b91034b6b83632b6b2b73a32b960711b6064820152608401610841565b60606000613478836136d5565b600101905060008167ffffffffffffffff81111561349857613498613c26565b6040519080825280601f01601f1916602001820160405280156134c2576020820181803683370190505b5090508181016020015b600019017f3031323334353637383961626364656600000000000000000000000000000000600a86061a8153600a85049450846134cc57509392505050565b61351583836137b7565b6135226000848484613589565b6108e25760405162461bcd60e51b815260206004820152603260248201527f4552433732313a207472616e7366657220746f206e6f6e20455243373231526560448201527131b2b4bb32b91034b6b83632b6b2b73a32b960711b6064820152608401610841565b60006001600160a01b0384163b156136ca57604051630a85bd0160e11b81526001600160a01b0385169063150b7a02906135cd903390899088908890600401614236565b6020604051808303816000875af1925050508015613608575060408051601f3d908101601f1916820190925261360591810190614272565b60015b6136b0573d808015613636576040519150601f19603f3d011682016040523d82523d6000602084013e61363b565b606091505b5080516000036136a85760405162461bcd60e51b815260206004820152603260248201527f4552433732313a207472616e7366657220746f206e6f6e20455243373231526560448201527131b2b4bb32b91034b6b83632b6b2b73a32b960711b6064820152608401610841565b805181602001fd5b6001600160e01b031916630a85bd0160e11b14905061303e565b506001949350505050565b6000807a184f03e93ff9f4daa797ed6e38ed64bf6a1f010000000000000000831061371e577a184f03e93ff9f4daa797ed6e38ed64bf6a1f010000000000000000830492506040015b6d04ee2d6d415b85acef8100000000831061374a576d04ee2d6d415b85acef8100000000830492506020015b662386f26fc10000831061376857662386f26fc10000830492506010015b6305f5e1008310613780576305f5e100830492506008015b612710831061379457612710830492506004015b606483106137a6576064830492506002015b600a83106105c65760010192915050565b6001600160a01b03821661380d5760405162461bcd60e51b815260206004820181905260248201527f4552433732313a206d696e7420746f20746865207a65726f20616464726573736044820152606401610841565b6000818152600260205260409020546001600160a01b0316156138725760405162461bcd60e51b815260206004820152601c60248201527f4552433732313a20746f6b656e20616c7265616479206d696e746564000000006044820152606401610841565b6000818152600260205260409020546001600160a01b0316156138d75760405162461bcd60e51b815260206004820152601c60248201527f4552433732313a20746f6b656e20616c7265616479206d696e746564000000006044820152606401610841565b6001600160a01b0382166000818152600360209081526040808320805460010190558483526002909152808220805473ffffffffffffffffffffffffffffffffffffffff19168417905551839291907fddf252ad1be2c89b69c2b068fc378daa952ba7f163c4a11628f55a4df523b3ef908290a45050565b6001600160e01b031981168114612d5757600080fd5b60006020828403121561397757600080fd5b8135611e938161394f565b80356001600160a01b038116811461399957600080fd5b919050565b6000602082840312156139b057600080fd5b611e9382613982565b60005b838110156139d45781810151838201526020016139bc565b50506000910152565b600081518084526139f58160208601602086016139b9565b601f01601f19169290920160200192915050565b604081526000613a1c60408301856139dd565b8281036020840152613a2e81856139dd565b95945050505050565b602081526000611e9360208301846139dd565b600060208284031215613a5c57600080fd5b5035919050565b60008060408385031215613a7657600080fd5b613a7f83613982565b946020939093013593505050565b60006020808301818452808551808352604092508286019150828160051b87010184880160005b83811015613b2057603f19898403018552815160608151818652613ada828701826139dd565b915050888201518582038a870152613af282826139dd565b91505087820151915084810388860152613b0c81836139dd565b968901969450505090860190600101613ab4565b509098975050505050505050565b600080600060608486031215613b4357600080fd5b613b4c84613982565b9250613b5a60208501613982565b9150604084013590509250925092565b6000815160408452613b7f60408501826139dd565b905060208301518482036020860152613a2e82826139dd565b602081526000611e936020830184613b6a565b848152608060208201526000613bc460808301866139dd565b8281036040840152613bd681866139dd565b915050821515606083015295945050505050565b60008060408385031215613bfd57600080fd5b613c0683613982565b915060208301358015158114613c1b57600080fd5b809150509250929050565b634e487b7160e01b600052604160045260246000fd5b600067ffffffffffffffff80841115613c5757613c57613c26565b604051601f8501601f19908116603f01168101908282118183101715613c7f57613c7f613c26565b81604052809350858152868686011115613c9857600080fd5b858560208301376000602087830101525050509392505050565b600082601f830112613cc357600080fd5b611e9383833560208501613c3c565b60008060408385031215613ce557600080fd5b823567ffffffffffffffff80821115613cfd57600080fd5b613d0986838701613cb2565b93506020850135915080821115613d1f57600080fd5b50613d2c85828601613cb2565b9150509250929050565b60008060008060808587031215613d4c57600080fd5b613d5585613982565b9350613d6360208601613982565b925060408501359150606085013567ffffffffffffffff811115613d8657600080fd5b8501601f81018713613d9757600080fd5b613da687823560208401613c3c565b91505092959194509250565b600081518084526020808501808196508360051b8101915082860160005b85811015613dfa578284038952613de8848351613b6a565b98850198935090840190600101613dd0565b5091979650505050505050565b80518252600060208083015160c082860152613e2660c08601826139dd565b905060408085015186830382880152613e3f83826139dd565b92505060608086015187840382890152613e598482613db2565b935050608086015187840360808901528381518086528686019150868160051b870101878401935060005b82811015613eed57878203601f1901845284518051878452613ea8888501826139dd565b90508a8201518482038c860152613ebf82826139dd565b91505088820151915083810389850152613ed981836139dd565b968b0196958b019593505050600101613e84565b5060a08a01519750613f0360a08c018915159052565b9a9950505050505050505050565b602081526000611e936020830184613e07565b6000602080830181845280855180835260408601915060408160051b870101925083870160005b82811015613f7957603f19888603018452613f67858351613e07565b94509285019290850190600101613f4b565b5092979650505050505050565b60008060408385031215613f9957600080fd5b82359150613fa960208401613982565b90509250929050565b60008060008060808587031215613fc857600080fd5b84359350602085013567ffffffffffffffff80821115613fe757600080fd5b613ff388838901613cb2565b9450604087013591508082111561400957600080fd5b61401588838901613cb2565b9350606087013591508082111561402b57600080fd5b50613da687828801613cb2565b6000806040838503121561404b57600080fd5b61405483613982565b9150613fa960208401613982565b602081526000611e936020830184613db2565b600181811c9082168061408957607f821691505b602082108103611e2057634e487b7160e01b600052602260045260246000fd5b634e487b7160e01b600052601160045260246000fd5b818103818111156105c6576105c66140a9565b634e487b7160e01b600052603260045260246000fd5b601f8211156108e257600081815260208120601f850160051c8101602086101561410f5750805b601f850160051c820191505b818110156121435782815560010161411b565b815167ffffffffffffffff81111561414857614148613c26565b61415c816141568454614075565b846140e8565b602080601f83116001811461419157600084156141795750858301515b600019600386901b1c1916600185901b178555612143565b600085815260208120601f198616915b828110156141c0578886015182559484019460019091019084016141a1565b50858210156141de5787850151600019600388901b60f8161c191681555b5050505050600190811b01905550565b600060018201614200576142006140a9565b5060010190565b600083516142198184602088016139b9565b83519083019061422d8183602088016139b9565b01949350505050565b60006001600160a01b0380871683528086166020840152508360408301526080606083015261426860808301846139dd565b9695505050505050565b60006020828403121561428457600080fd5b8151611e938161394f56fea264697066735822122089f877b7933a8bc0ada99b24860f932bee69498b46c14961ec0fc5fea855811164736f6c63430008110033",
  "linkReferences": {},
  "deployedLinkReferences": {}
}